:0200000490006A
:10000000000600207D03009091540090A94D0090BF
:100010008954009089040090099600900000000027
:10002000000000000000000000000000F16B0090E4
:100030009104009000000000A9540090F96B00901A
:100040009703009000000000970300909703009032
:10005000970300909703009000000000000000004C
:100060009703009097030090970300900000000012
:100070000000000097030090000000000000000056
:1000800097030090970300909703009097030090C8
:1000900097030090970300909703009097030090B8
:1000A00097030090970300909703009097030090A8
:1000B0009703009097030090970300909703009098
:1000C00097030090000000000000000097030090DC
:1000D0009703009097030090970300909703009078
:1000E0009703009097030090970300909703009068
:1000F0009703009097030090970300909703009058
:100100009703009097030090970300909703009047
:100110009703009097030090970300909703009037
:100120009703009097030090970300909703009027
:100130009703009097030090970300909703009017
:100140009703009097030090970300909703009007
:1001500097030090970300909703009097030090F7
:1001600097030090970300909703009097030090E7
:1001700097030090970300909703009097030090D7
:1001800097030090970300909703009097030090C7
:1001900097030090970300909703009097030090B7
:1001A0009703009097030090970300909954009054
:1001B0009703009097030090970300909703009097
:1001C00000000000000000009703009097030090DB
:1001D00097030090970300900000000000000000CB
:1001E0000000000097030090970300909703009091
:1001F00097030090970300900000000000000000AB
:100200009703009097030090970300909703009046
:100210009703009097030090970300909703009036
:100220009703009097030090970300909703009026
:100230009703009097030090970300909703009016
:100240009703009097030090970300909703009006
:1002500097030090970300909703009097030090F6
:1002600097030090970300909703009097030090E6
:1002700097030090970300909703009097030090D6
:1002800097030090970300909703009097030090C6
:100290009703009000000000000000000000000034
:1002A00097030090970300909703009097030090A6
:1002B00000F002F800F052F814A696E8000CB244E0
:1002C000B344DA4501D100F049F8BAE80F000FA6AF
:1002D00096E83000A5EB040504EB0607AAEB07043B
:1002E000A7F101074FEA15154FEA3414A4F10104F0
:1002F000AC4201D300F032F813F0010F18BFFB1A23
:1003000043F0010300F001F8DBE7184720950000F7
:1003100050950000103A24BF78C878C1FAD8520727
:1003200024BF30C830C144BF04680C60704700006F
:10033000704700000023002400250026103A28BF43
:1003400078C1FBD8520728BF30C148BF0B60704747
:100350001FB509F047FA1FBD10B510BD00F058F8E1
:100360001146FFF7F5FF09F053F900F076F803B4F2
:10037000FFF7F2FF03BC00F07DF80000094880475A
:1003800009480047FEE7FEE7FEE7FEE7FEE7FEE777
:10039000FEE7FEE7FEE7FEE704480549054A064B8F
:1003A00070470000216D0090B10200900000002015
:1003B0000006002000020020000200204FF0000292
:1003C00000B5134694469646203922BFA0E80C504B
:1003D000A0E80C50B1F12001BFF4F7AF090728BF26
:1003E000A0E80C5048BF0CC05DF804EB890028BFA2
:1003F00040F8042B08BF704748BF20F8022B11F0CB
:10040000804F18BF00F8012B704770477047704746
:10041000754600F02BF8AE4605006946534620F0BD
:100420000700854618B020B5FFF7B6FFBDE82040AD
:100430004FF000064FF000074FF000084FF0000BA0
:10044000AC46ACE8C009ACE8C009ACE8C009ACE80F
:10045000C00921F007018D46704710B50446AFF37F
:1004600000802046BDE81040FFF781BF004870477C
:100470000401002401491820ABBEFEE7260002005B
:100480007047000000000000FEE7000000000000D0
:10049000704700000000000072B600BFFEE70000D9
:1004A000B0B5044600F0FCF840F200010546C2F287
:1004B0000041621C097818BF0C4400BF00F0F0F83E
:1004C000401BA042FAD3B0BD2DE9F04F82B00F68B7
:1004D000002F00F0C9804FF67F728E46C0F22902CD
:1004E0004FF0000B0024002602EA902200920191B6
:1004F0000BE000BF0136DEF8007037FA06F204F1B7
:1005000002040BF1040B00F0AF800122B24017EAA5
:10051000020AEFD0DEF80480032308F0030903FA8F
:1005200004FCA9F10105012D12D88568DEE902E37A
:1005300025EA0C0703FA04F53D438560C8F300156E
:10054000476827EA0202B5402A43426008E000BF3C
:10055000DEF808E0B9F1030F08BFBEF1010F2DD09E
:10056000C26873006FEA0C0122EA0C020EFA04F56D
:10057000B9F1020F42EA0502C2601BD16FF003021B
:100580000BF01C0502EA56020F27024407FA05FE8B
:10059000D2F820C0019F2CEA0E0CBE46D7F810807E
:1005A00008FA05F545EA0C051562D7F8048008F04D
:1005B00003090BE0DDF804E008E000BF4FF0030999
:1005C000234609FA04F2DDF804E0D143026809FA8F
:1005D00003F50A4018F4403F42EA0502026089D060
:1005E00040F2305826F00302C5F600080BF00C0567
:1005F0000F2152F808C001FA05F7009B2CEA070703
:1006000003FA05F54FF0B0412F4342F808700A682D
:10061000DEF8047042EA0A05FB0258BF22EA0A0526
:1006200040F2040CC5F6000C0D60BD02DCF80020A1
:1006300042EA0A0358BF22EA0A03BD03CCF800309D
:10064000DCF8802042EA0A0358BF22EA0A03FF03CB
:10065000CCF88030DCF87C2042EA0A0358BF22EA5A
:100660000A03CCF87C3045E702B0BDE8F08F00000B
:100670000069084018BF012070470000000000001A
:10068000426902EA0103914341EA034181617047F3
:100690001823002A08BF2823C1507047000000001B
:1006A00040F68060C2F20040006870470000000021
:1006B00040F2000040F68061C2F20040C2F2004108
:1006C00000780A68104408607047000000000000CD
:1006D00080B5032000F07CF80F2000F009F8002816
:1006E0001CBF012080BD00F02BF8002080BD000061
:1006F00070B540F20006C2F200463178E1B104461E
:1007000040F24800C2F200404FF47A72B2FBF1F1BD
:100710000068B0FBF1F004F023FB0F2C4FF0010553
:1007200008D838B94FF0FF3000222146002500F0EC
:100730001FF87460284670BD012070BD00000000E5
:1007400001F0C6B900000000002848BF704700F063
:100750001F01012202FA01F14EF20012C0F34A1009
:10076000CEF2000242F820107047000000000000A6
:1007700070B54EF60C5C4FF0FF36CEF2000C00F177
:10078000604505F56445DCF80030C3F3022E8EF0B9
:100790000703042B28BF0423BEF1030406FA03F366
:1007A00021EA030100F00F0338BF0024043B0028B6
:1007B000634406FA04F048BF03F10C05A14022EAA5
:1007C000000008430001287070BD00000000000018
:1007D0004EF60C514FF6FF03CEF200010A681A40A4
:1007E00060F30A2242F0806040F0FD7008607047BC
:1007F00001680122C0F8D824002280F8CC2488693E
:1008000040F000608861486D40F08052002042F066
:1008100003024A65704700007047000000000000B6
:1008200002680020516270472DE9F043D0F8008043
:10083000D8F8243081B1D8F82870B1F1010E03EB5B
:10084000174355D05FFA8EF10EF0030C04290BD23A
:10085000002700212DE000BF002043EA0241C8F834
:100860002810BDE8F08300BF0EF0FC0908F1F40584
:10087000002108F5827600BF55F8107F41F0010095
:10088000C0B241F00304E4B203EB174341F00207A6
:1008900056F82000FFB2043103EB104056F8273021
:1008A00056F82440CFB200EB13404F4500EB144301
:1008B000E2D1BCF1000F1BD008EB8700BCF1010FA7
:1008C000D0F8040103EB104312D0481CBCF1020F16
:1008D000C0B208EB8000D0F8040103EB104307D04E
:1008E000881CC0B208EB8000D0F8040103EB104371
:1008F00008EB8E0043EA0241C0F804110020BDE875
:10090000F083000000000000D0F8E00406F0FCBB1B
:1009100001EBC10200EB8202D0F8E004126A06F09B
:1009200053BB00000000000001EBC10200EB82029B
:10093000D0F8E004D2F8602206F0A6BB0000000068
:10094000D0F8E00406F0E4BB10B54AB2044601F06A
:100950000F00B2F1FF3F00EBC00104EB81020BDDA1
:1009600002F51571002382F8553294F8942408702A
:10097000012A0AD1022010BD02F11401012353758E
:1009800094F894240870012AF4D0012084F8940487
:10099000206807F0ADFC002084F8940410BD00002E
:1009A000B0B50279044601F00F00904202D901204F
:1009B000B0BD00BF49B2B1F1FF3F09DD00EBC0019E
:1009C000002304EB810202F5157182F8553207E02D
:1009D00000EBC001012304EB810202F11401537505
:1009E00094F8942400258D70012A087002D1022009
:1009F000B0BD00BF012084F89404206807F090FF88
:100A0000284684F89454B0BD10B5044690F8940478
:100A1000012801D1022010BD48B20122B0F1FF3FF0
:100A2000206884F8942405DD08F002FA002084F898
:100A3000940410BD01F00F0108F05AFA002084F868
:100A4000940410BD0000000001F00F0101EBC10192
:100A500000EB8100D0F86802704700000000000041
:100A600070B54CB2064601F00F00B4F1FF3F00EB49
:100A7000C00107DD06EB8104002504F5157184F83B
:100A8000555206E006EB810C01240CF114018CF8A0
:100A900015404D7808706FF3DF228A60002D0B71CE
:100AA00018BF4883022B01D10020487196F89404A6
:100AB000012801D1022070BD012086F8940430681D
:100AC00007F06AFA002086F8940470BD0000000068
:100AD00080B501F00F0E0EEBCE0100EB810C002172
:100AE000CCE998238379CCF868128CF855120CF570
:100AF0001571012B8CF854E208BFCCF87022006805
:100B00001A4607F059FF002080BD000000000000D9
:100B1000B0B50446007901F00F05854202D90120E5
:100B2000B0BD00BF48B2B0F1FF3F09DD01EBC1002D
:100B3000002204EB800000F5157180F8552207E0D3
:100B400005EBC500012204EB800000F114014275A1
:100B500094F8942401208870012A0D7002D102209B
:100B6000B0BD00BF84F89404206807F005FF1DB1F4
:100B7000002084F89404B0BDA179206804F29C425E
:100B800007F09EFE002084F89404B0BD0000000031
:100B900010B501F00F0C01240CEBCC0100EB810E21
:100BA000714601F814CF4FF0000CC1F814C090F852
:100BB00006C04C70CA60BCF1010F0B6108BFCEF8D3
:100BC00030200068624607F0F7FE002010BD0000EC
:100BD0002DE9F04F89B005688246284608F0F8F9FB
:100BE00010B109B0BDE8F08FDAF8000008F020FA83
:100BF0000028F6D0D5F80808C0F30D20CAF8D404B0
:100C0000DAF8000008F014FA8007DAF8000003D5DB
:100C1000416901F00201416105F50061049108F0AC
:100C200007FAC006DAF8000007953BD5816921F084
:100C3000100181612C6A04F00F05C4F343400628BB
:100C400018D0022827D147F6F07014EA000622D007
:100C500005EBC50034090AEB800707982246D7F850
:100C6000601208F0E9F9D7F8600200EB1610C7F837
:100C7000600207E00AF29C410822079808F0DCF9BC
:100C8000C4F30A1405EBC5000AEB8000D0F8681223
:100C90002144C0F86812DAF80000816941F01001BF
:100CA0008161079D08F0C4F9000340F10181DAF881
:100CB000000008F099F9002800F0FA8006460AF5CD
:100CC0001D784FF430644FF0000B0AF29C400890FE
:100CD00009E000BF0BF1010B760804F1200408F1D4
:100CE000240800F0E580F007F4D05FFA8BF9DAF819
:100CF0000000494608F094F90746C00771D028194A
:100D000001218160DAF8000004EB000C036CDCF8D0
:100D100008209AF80650012D28D115073AD49506D7
:100D200058D412F0280F079D5BD143F20B01C4F693
:100D300054718B4202D312F4004235D1D8F800200E
:100D4000DCF810106FF3DF41BBF1000FA2EB0101E3
:100D500048F80C1C19D1DAF86422002A00F0A280AD
:100D6000DAF860020844CAF860020EE043F20B05AC
:100D7000C4F65475FF35AB421CD110042CD4900638
:100D8000079D02D52020CCF8080050464946FFF7C1
:100D9000CBFD26E043F20B00079DC4F6547083425E
:100DA0001FD312F400401CD04FF40040CCF80800D0
:100DB00017E000BFBBF1000F06D1DAF8641219B9D1
:100DC0000021089A07F07CFD50464946FFF7ACFD2C
:100DD00006E000BF202001E04FF40040CCF80800FE
:100DE000079D38072CD528190821816043F20B0193
:100DF000DAF80000C4F65471056C20448D42816815
:100E00000AD311F4004107D04FF4004181605046ED
:100E100000F01EFE079D09E0504600F019FE43F267
:100E20000B00C4F654708542079D09D39AF806005A
:100E3000012805D1DAF800000121089A07F040FDE9
:100E4000F80607D4B8070AD4B80620D4B8047FF54A
:100E500041AF22E0281910218160B807F4D56869F4
:100E6000000604D50499486840F48060486018F88A
:100E70001D0C012806D1002008F81D0C50464946DB
:100E800000F012FC281902218160B806DED528196D
:100E900020218160B8047FF51DAF28194FF400515F
:100EA000816017E70121089A07F00AFD6DE700BF8E
:100EB000DAF8000008F0BCF84003DDF810B040F1AB
:100EC000E180DAF8000008F087F8002800F0DA8006
:100ED0000646079800F5106700250AF29C4002902C
:100EE000CDF814A0039704E0760805F1010500F0A1
:100EF000C980F007F8D0E9B2DAF80000089108F0EC
:100F00007BF80446C0070BD1200733D4E00637D462
:100F100060063BD4A0073FD42006E5D555E000BFCE
:100F200005F00F00012307EB4512DBF8341003FA3C
:100F300000F021EA0000CBF8340093609AF8060034
:100F4000012811D105EBC5000AEB8000D0E907129A
:100F50001144016245B9DAF8240028B9DAF8000032
:100F60000121029A07F0ACFC50460899FFF7D0FC2B
:100F70002007CBD507EB451008218160E006C7D5D7
:100F800007EB4510102181606006C3D507EB4510C3
:100F900040218160A007BFD50798294607F0A8FF28
:100FA00005EBC5000AEB800010F8171F012905D1D9
:100FB000002101705046089900F072FB07EB4510C4
:100FC0000221816020067FF58FAF05EBC5000AEB9B
:100FD0008002914659F8241FC84658F8040F8142F0
:100FE000FFF482AF9346DAF800400B1A5BF81C7FDF
:100FF000BB4238BF1F4604EB4513069407F1030CB0
:10100000D3F81879BFB2B7EB9C0F29D303F5106A58
:1010100002F12007D9F8001081421FD9081A05995A
:10102000DBF80040A0428A7938BF04463968009254
:10103000A3B20698089A08F0ABFA3868E11C20447D
:101040003860D8F800002044C8F80000DAF818200A
:1010500092B2B2EB910FDDD2D9F80010DDF814A0F6
:10106000DDE9037B81423FF63FAF069A05F00F00B2
:10107000012101FA00F0D2F8341821EA0000C2F888
:10108000340831E7DAF8000007F0D2FF00281DD459
:10109000DAF80000079D07F0CBFF000536D4DAF838
:1010A000000007F0C5FF000141D4DAF8000007F0A6
:1010B000BFFFC0044DD4DAF8000007F0B9FF800488
:1010C000DAF8000000F15D8176E100BFDBF8040092
:1010D00020F00100CBF804009AF8CC04012807D1D5
:1010E00000208AF8CC0400215046FFF795FB02E06F
:1010F000504600F079FCDAF80000079D416901F0E4
:101100000041416107F094FF0005C8D5DBF80800F5
:10111000C00702D0504600F0C3FCDAF80000416975
:1011200001F40061416107F083FF0001BDD5DAF8E9
:101130000000416901F0006141619AF8CC14F9B1F5
:10114000504600F0ADFCDAF8000007F071FFC00473
:10115000B1D5DBF80400102120F00100CBF8040029
:10116000DAF8000007F0C4FE9AF80400010600F067
:10117000CE80C1B200F00300042915D200217AE02C
:1011800001218AF8CC14406DC0F38300CAF8D00462
:101190005046FFF741FBDAF8000007F049FFC004B2
:1011A0007FF589AFD5E700BF6FF06002002302EA48
:1011B00041124FF67F370021EE1880339A4201F139
:1011C0000401C6F80879D6F8005925F40015C6F8C8
:1011D0000059C6F8087BD6F8005B25F40015C6F860
:1011E000005BD6F8005B45F00065C6F8005BC6F80A
:1011F0002879D6F8205925F40015C6F82059C6F8E4
:10120000287BD6F8205B25F40015C6F8205BD6F8BD
:10121000205B45F00065C6F8205BC6F84879D6F833
:10122000405925F40015C6F84059C6F8487BD6F851
:10123000405B25F40015C6F8405BD6F8405B45F0EE
:101240000065C6F8405BC6F86879D6F8605925F4A1
:101250000015C6F86059C6F8687BD6F8605B25F4BF
:101260000015C6F8605BD6F8605B45F00065C6F80F
:10127000605B079DA0D1002849D005F5106305F5F6
:10128000306203EB41164FF67F374D010128B760FE
:1012900002EB41145E5926F400165E51A7605659C0
:1012A00026F400165651565946F000665651079DD1
:1012B0002DD04E1C02284FEA461403EB461502EBD4
:1012C0004616AF601D5925F400151D51079DB760E6
:1012D000175927F400171751175947F0006010519C
:1012E00015D0881C4FF67F36470103EB401102EB07
:1012F00040108E60D95921F40011D9518660D0591F
:1013000020F40010D051D05940F00060D051DBF8EB
:101310001C0040F00110CBF81C009AF80F0048B1F7
:10132000DBF8840040F00B00CBF884000BF14400A4
:1013300009E000BFDBF8140042F22B010843CBF8B0
:1013400014000BF1100001680AF29C4241F00B01FD
:101350000160DBF8000020F4FE60CBF800009AF892
:101360000610DAF8000007F0ABFADAF8000041697D
:1013700001F48051416107F05BFE8004DAF800005F
:101380001AD506F051FEDAF8000007F011FE8AF8CF
:101390000700DAF8004001F0E7FD9AF8072001465F
:1013A000204608F069F8504600F006FBDAF8000025
:1013B000416901F40051416107F03AFE000707D48A
:1013C000DAF8000007F034FE00060FD4BEE000BFDC
:1013D000504600F025FBDAF80000416901F00801F1
:1013E000416107F025FE000640F1B080A86920F0B9
:1013F0008000A8619AF80400C1B20229C0F0A6805A
:101400004FF0FF316FF0010252FA80F251FA80F191
:10141000032A01F0030001D201215BE00AF27B27DD
:1014200021F0030105F5386300223E4605E000BFC8
:1014300004328033914237464AD016F8905B012D32
:1014400024D153F8605C45F0006543F8605C53F8C4
:10145000605C45F0804543F8605C97F82450012DAE
:1014600018D097F84850012D24D153F8205C45F04E
:10147000006543F8205C53F8205C45F0804543F854
:10148000205C97F86C70012FD2D117E097F82450A8
:10149000012DE6D153F8405C45F0006543F8405C0F
:1014A00053F8405C45F0804543F8405C97F848505D
:1014B000012DDAD097F86C70012FB9D11F6847F071
:1014C00000671F601F6847F080471F60B0E700BFDC
:1014D000511C079DD0B301EBC1020AEB820292F8C6
:1014E0005722012A05F5306208D14B01D75847F041
:1014F0000067D750D75847F08047D750012825D0EC
:101500004B1C03EBC3070AEB870797F85772012FB1
:1015100008D15B01D75847F00067D750D75847F03C
:101520008047D750022811D0881C00EBC0010AEB7D
:10153000810191F85712012908D14001115841F059
:1015400000611150115841F080411150DAF800004B
:1015500007F06EFDC0024FD4DAF8000007F068FD16
:10156000800240F17E809AF8041002292BD307985C
:10157000013900F532600AF51F72012304E000BF53
:10158000013900F120001ED01746066812F8245BCE
:10159000012DF5D1B6F1FF3FF2DCDAF8D45485EA3B
:1015A0001646F607ECD1079E07F8013CB76947F0ED
:1015B0008007B76177693F06E2D4DBF8040040F4A6
:1015C0000070CBF80400DAF80000416901F4001162
:1015D000416107F02DFD400049D55046FFF794F9D1
:1015E000DAF80000416901F08041416107F020FD17
:1015F000400743D4FFF7F5BA9AF80400022825D330
:1016000007990AF13C0501F512640126012703E060
:1016100001372034874219D22946226815F8243B25
:10162000012BF5D1B2F1FF3FF2DC07F00F0001F81A
:10163000016C00EBC0000AEB800000F11401DAF845
:10164000000007F0D1FA9AF80400E1E7DAF80000A8
:10165000416901F48011416107F0EAFC80023FF525
:1016600082AFDAF8000007F0E3FC4000B5D4DAF806
:10167000000007F0DDFC40077FF5B3AADAF80000B0
:101680004468610704D55046FFF75AF9DAF80000BC
:1016900041682143416009B0BDE8F08F00000000BF
:1016A000D0F8E00405F0A8BDD0F8E00405F0BCBD1A
:1016B000002800F03581F0B581B00446056890F847
:1016C000950428B9002084F89404204600F03CF9E1
:1016D0000020C4F2080085424FF0030084F895040E
:1016E00001D10020A071206807F0E2F8D4E90001E0
:1016F000267CD4E90223009606F0A6FC002840F0E0
:1017000009812068002107F0EFFC002840F00281E9
:1017100094F804E0BEF1000F00F0F380BEF1040F76
:101720000EF0030C4FF0000242D30EF0FC03A4F1C4
:1017300090000321012500BFCE1E80F8A460A0F810
:10174000BE608E1E80F8C8604F1CA0F8E2604E1E7E
:1017500080F8EC609F42A0F8066101F1040680F871
:10176000A55080F8A820C0E92B22C0F8B42080F84A
:10177000C95080F8CC20C0E93422C0F8D82080F8C5
:10178000ED5080F8F020C0E93D22C0F8FC2080F840
:10179000115180F81011A0F82A11314680F8142157
:1017A000C0E94622C0F8202100F19000C4D1F21E09
:1017B000BCF1000F2DD002EBC2000121BCF1010FE2
:1017C00004EB80034FF0000059751A75DA8518761E
:1017D000C3E9070058621CD0531CBCF1020F03EB95
:1017E000C30504EB850569752B75EB852876C5E97E
:1017F000070068620DD0901C012200EBC00104EBD1
:1018000081014A750875C88500200876C1E907007E
:101810004862BEF1000F74D0BEF1040F4FF0000219
:1018200037D30EF0FC000321234600BFCF1E83F800
:1018300054728F1E83F878724F1E83F89C724F1C6F
:101840000D1D83F85522874283F85822C3E9972259
:10185000C3F8642283F8792283F87C22C3E9A022AA
:10186000C3F8882283F89D2283F8A022C3E9A92225
:10187000C3F8AC2283F8C12283F8C012294683F84A
:10188000C422C3E9B222C3F8D02203F19003CDD120
:10189000EA1EBCF1000F34D002EBC200BCF1010F14
:1018A00004EB80014FF0000081F8550281F85422CA
:1018B00081F85802C1E99700C1F8640221D0511C97
:1018C000BCF1020F01EBC10304EB830383F8550263
:1018D00083F8541283F85802C3E99700C3F86402EE
:1018E0000FD0901C002200EBC00104EB810181F8B5
:1018F000552281F8540281F85822C1E99722C1F893
:101900006422D4E90001277CD4E90223009706F081
:1019100053FD38B1022084F89504012001B0F0BDD8
:101920000120704700206074012084F89504207B1A
:10193000012802D12046FEF75BFF206806F02CFD4F
:10194000002001B0F0BD000010B5A2B001A904460E
:10195000081D8021FEF732FD00212068C4F2040139
:10196000884201D022B010BD4FF08040019001A804
:1019700000F042FD08B1FEF78FFD00F0B5F844F22B
:1019800038500022C5F60200016841F00071016084
:10199000016800910099016841F080610160006870
:1019A000009000985B200621FEF7E2FE5B20FEF728
:1019B000CBFE22B010BD000010B50446C07928B19E
:1019C000022801D0FEF768FD012100E00021D4F8D3
:1019D000E00405F0B9FCD4F8E004BDE8104005F0DF
:1019E00063BC00000000000010B50446C07A48B196
:1019F00002F0D6FA4EF61050CEF20000016821F047
:101A0000060101602068D0F8001E21F00101C0F835
:101A1000001ED4F8E004BDE8104005F079BC0000D9
:101A2000D0F8E00405F080BC10B5044690F89404AA
:101A3000012801D1022010BD012084F894046174B2
:101A4000206807F005FD002084F8940410BD000014
:101A5000D0F8E02400F29C41104605F08DBC000057
:101A600010B5044690F89404012801D1022010BD5D
:101A70002068012184F89414C168490606D5617B69
:101A8000012903D1816B41F48031816307F0C8F9EA
:101A9000206806F071FC002084F8940410BD00005A
:101AA00010B50446D0F8E00405F0C2FCE07A002846
:101AB00008BF10BD03F06CF94EF61050CEF20000D6
:101AC000016841F00601016010BD00000000000047
:101AD00044F60C00C5F60200016841F000610160A7
:101AE0007047000000000000B0B544F60C05C5F6D4
:101AF0000205286840F080702860FEF7D1FD04469A
:101B00002868400108D4FEF7CBFD001BB0F57A7FB2
:101B1000F6D90120B0BD00BF0020B0BD000000001C
:101B200080B50146B0F5804F4FF000002EDBB1F5D7
:101B3000800F80F29380B1F5802F80F2CB80B1F5D9
:101B4000803F80F22781B1F5804F00F03F82B1F5F0
:101B5000004F40F0A18344F20040C5F60200816DC1
:101B600001F00701052900F23E84DFE811F095023B
:101B70000700BF0311021B03230300BFC06A8003D9
:101B800040F13184BDE8804001F03ABB7F2900F389
:101B900085804A1E3F2A00F27981DFE812F0410079
:101BA00093017D03AF017D037D037D03BF017D03B1
:101BB0007D037D037D037D037D037D03D3017D03D1
:101BC0007D037D037D037D037D037D037D037D0315
:101BD0007D037D037D037D037D037D03E7017D039D
:101BE0007D037D037D037D037D037D037D037D03F5
:101BF0007D037D037D037D037D037D037D037D03E5
:101C00007D037D037D037D037D037D037D037D03D4
:101C10007D037D037D037D037D037D03030200BF00
:101C200044F20040C5F60200D0F8001101F4E04192
:101C3000B1F5A04F00F06E81C16C01F00301DFE847
:101C400011F0F5020500B703A70100BFC06A400606
:101C500040F1C983BDE8804001F0F2B9B1F1806F75
:101C600056DAB1F1807F80F2A580B1F5800F00F0E7
:101C7000C781B1F5000F40F00F8344F20040C5F674
:101C80000200416DC1F30221042900F2AC83DFE8B8
:101C900011F05F026B02B302BB026702B1F5806F05
:101CA0005CDBB1F5805F80F2A180B1F5806F00F060
:101CB000BB81B1F5006F40F0EF8244F20040C5F601
:101CC0000200016DC1F30131DFE811F06802BA01D1
:101CD000EA016C02B1F5801F80F2A880B1F5802F77
:101CE00000F0B481B1F5002F40F0D68244F20040FC
:101CF000C5F60200416DC1F30241042900F273836D
:101D0000DFE811F0260232027A0282022E0200BFC0
:101D1000B1F1005F80F2A080B1F1806F00F0AA8184
:101D2000B1F1805F40F0B88244F20040C5F6020095
:101D3000416D01F00701052900F25583DFE811F03C
:101D400052000600DE02B00132023A02C06A80038D
:101D500040F14983BDE8804001F052BA802900F08B
:101D60002F82B1F5807F00F03982B1F5007F40F01D
:101D7000938244F20040C5F60200016D01F4400177
:101D8000B1F5000F00F0F081B1F5800F40F07980DF
:101D9000DEE100BF00F09681B1F5003F40F07C82AB
:101DA00044F20040C5F60200C16C090100F1D8817F
:101DB00046E100BF00F09281B1F1007F40F06C82FB
:101DC00044F20040C5F60200416DC1F3021105293D
:101DD00000F20983DFE811F006009A02A202640112
:101DE000E6010902BDE8804001F0F2B800F086810A
:101DF000B1F5005F40F0508244F20040C5F60200A9
:101E0000816DC1F30221052900F2ED82DFE811F0B6
:101E1000440106008E02D2010002A801C06AC0037C
:101E200040F1E182BDE8804001F07AB900F08081A4
:101E3000B1F5001F40F0308244F20040C5F60200C8
:101E4000C16CC06A490700F10582000340F1CB82F2
:101E5000BDE8804001F0B4BA00F08E81B1F1804F4E
:101E600040F01A8244F20040C5F60200C16C01F451
:101E70004051B1F5005F00F01182B1F5805F00F0D4
:101E8000FD81002900F0B181ADE200BFB1F1004F4A
:101E900040F0028244F20040C5F60200C16CC1F37A
:101EA0008131022900F0A181012900F01782002967
:101EB00040F09982006846F600418004C0F2DC21BF
:101EC000E8E100BF44F20040C5F60200D0F800117E
:101ED00001F0700140291DD0C16CC1F3011102292C
:101EE00000F06E82012940F09E81C06A000340F13B
:101EF0007A82BDE8804001F063BA00BF44F200403E
:101F0000C5F60200D0F8001101F4E061B1F5806F70
:101F100040F0808101F028F8800880BD44F2004044
:101F2000C5F60200C16C01F04051B1F1005F00F054
:101F30005C81B1F1805F00F03581002940F053826F
:101F4000AEE000BF44F20040C5F60200C16C01F0F3
:101F50004071B1F1007F00F00381B1F1807F00F0AA
:101F60006F80002940F03F82FEE000BF44F2004055
:101F7000C5F60200C16CC1F30251052900F233829B
:101F8000DFE811F05401F2003A01420110010600AD
:101F90000168490740F127820168890600F18880BD
:101FA00004E200BF44F20040C5F60200016D01F0FA
:101FB0004051B1F1005F00F0F580B1F1805F00F0B9
:101FC0002781002940F00F82F4E000BF44F2004076
:101FD000C5F60200816DC1F30231052900F20382CA
:101FE000DFE811F05A000600AC01E8001601BE005F
:101FF000C06AC00340F1F781BDE8804001F090B8AD
:1020000044F20040C5F60200016DC1F30161DFE852
:1020100001F09F03174700BFC06A400340F1E3810E
:10202000BDE8804001F05CB944F20040C5F6020012
:10203000016DC1F30121DFE801F0B10333B500BF49
:10204000C06A800040F1CF8144E000BF44F200410B
:10205000C5F60201086F00F44070B0F5407F40F013
:10206000E98008694FF47C3202EA001000F5407004
:10207000E3E000BF44F20040C5F60200816DC1F309
:102080000211052900F2AF81DFE811F006006001BE
:1020900068010A008C00AF00BDE8804000F0B4BFCA
:1020A0000168490740F19F810168890640F19B81E1
:1020B000006849F20001C0F2D031C0F3C10021FA3A
:1020C00000F080BD44F20040C5F60200C06A800006
:1020D00040F18981BDE8804001F032BB44F200400C
:1020E000C5F60200016DC1F30211042900F27B81E3
:1020F000DFE801F02E3A828A360000BF44F2004049
:10210000C5F60200016DC1F30241052900F26B81A1
:10211000DFE811F0440006002C0150007E0026008C
:10212000C06AC00340F15F81BDE8804000F0F8BFA5
:1021300044F20040C5F60200416DC1F3025104298A
:1021400000F25181DFE801F0041058600C0000BF7C
:10215000C06A400640F14781BDE8804000F070BF92
:10216000BDE8804003F0A4B9C06AC00340F13B81E0
:10217000BDE8804000F0D4BF44F20040C5F6020044
:10218000016D01F00701052900F22D81DFE811F052
:102190000600F600FE0006010A001200BDE88040BD
:1021A00000F0FABE006840F60011C005C0F23D0123
:1021B00070E000BF006F4FF4004101EA803080BD45
:1021C00044F20040C5F60200C16C01F44031B1F5A3
:1021D000003F47D0B1F5803F07D004E144F2004012
:1021E000C5F60200C16C49033FD4006843F20061A8
:1021F0008003C0F26E114DE0C06A000140F1F3802F
:10220000BDE8804001F0BCB94BF6803080BD00BF16
:10221000406F3CE0C16C01F0C001802900F0D88023
:10222000402900F0DD80002940F0DD80BDE88040DD
:1022300000F09ABE086F00F4407068B3B0F5007FFC
:1022400024D0B0F5807F31D1086F4FF4004101EA0E
:10225000803080BDC00240F1C680BDE8804001F002
:102260001FB900BFC16C4903BFD5C06A400040F12F
:10227000BA80BDE8804001F0D3BA00BF006841F6E3
:1022800000318003C0F2B70104E000BF486F80074F
:102290004FF4FA4101EAE07080BD00BFC06AC0009F
:1022A00040F1A180BDE8804001F0DAB9086F00F488
:1022B0004070B0F5407F40F096800868800340F1A0
:1022C00092800869C0F3052002286FD343F20061B1
:1022D000C0F26E11B1FBF0F080BD00BFC06AC0005B
:1022E00040F18180BDE8804001F0BAB9C06AC00009
:1022F00079D5BDE8804001F0B3B900BFC06AC00025
:1023000071D5BDE8804001F0ABB900BFC06A800361
:1023100069D5BDE8804000F073BF00BFC06AC0004F
:1023200061D5BDE8804001F09BB900BFC06A800064
:1023300059D5BDE8804001F003BA00BFC06A8000F3
:1023400051D5BDE8804001F0FBB900BFC06A8003F1
:1023500049D5BDE8804000F053BF00BFC06AC0004F
:1023600041D5BDE8804001F07BB900BFC06A800064
:1023700039D5BDE8804001F0E3B900BFC06A8003F1
:1023800031D5BDE8804000F03BBF00BFC06AC0004F
:1023900029D5BDE8804001F063B900BF0168490755
:1023A00044BF01685FEA81611DD581E6002080BDE0
:1023B000C06A400317D5BDE8804000F091BF00BF60
:1023C000C06AC0020FD5BDE8804001F069B800BF07
:1023D000C06AC00207D5BDE8804001F061B800BF07
:1023E000C06A000302D4002080BD00BFBDE8804069
:1023F00000F0E6BF000000002DE9F041016844F262
:102400002C4804464803C5F6020805D400200122E2
:10241000CB0700F08A8064E0D8F8440010F44071E3
:10242000E06F25D000F44072914221D0D8F8D41347
:1024300041F48071C8F8D413D8F8D413C90505D471
:10244000012000222168CB074BD16EE0D8F8441060
:10245000D8F8442042F48032C8F84420D8F8442008
:1024600021F4407122F48032C8F84420C8F84410A6
:10247000B0F5807F15D1FEF713F9054641F2883794
:10248000D8F8440080070BD4FEF70AF9401BB84285
:10249000F6D9032000222168CB0722D145E000BFF6
:1024A000E06F58F81C1C6FF0300221F47C5102EAF6
:1024B000101210F47C3F00F4407018BF1143012249
:1024C00048F81C1CD8F844100843C8F84400D8F851
:1024D000440040F40040C8F8440000202168CB07C5
:1024E00023D06368032B11D84027DFE803F00317DC
:1024F000150300BFCAB1D8F8202022F003021A4306
:10250000C8F8202000228B0712D43DE001220120D0
:102510008B070DD438E000BF4FF48027D8F8005067
:102520002F43C8F80070002AE5D102468B072BD54F
:10253000A56875B1102D05D0202D31D14FF4801331
:1025400002E000BF4FF40023D8F800703B43C8F806
:102550000030134682B1480719D418460B0730D50E
:10256000D8F82030276923F040533B43C8F8203087
:102570008B025DD527E000BFD8F8202022F0300282
:102580002A43C8F82020002203464807E5D5E5681D
:102590009DB1402D0AD0802D3CD14FF4801007E032
:1025A000012201234807F2D4D7E700BF4FF40020EF
:1025B000D8F800703843C8F800001046F2B10B0795
:1025C000CED48B0234D5656D25B1042D10D14FF4D6
:1025D000801301E04FF40023D8F8007043EA0703AA
:1025E000C8F800301346DAB1C8065BD523E000BF57
:1025F00001220123C8061ED454E000BFD8F82000F1
:10260000002220F0C0002843C8F8200018460B071D
:10261000D7D5A5E7012201200B07D2D5A0E700BF3F
:10262000D8F8202022F004022A43C8F820200022F3
:102630000346C80636D5656945B1B5F1007F0CD0B3
:10264000B5F1807F62D14FF0005001E04FF480304F
:10265000D8F800703843C8F800001046D2B18B0695
:1026600023D40546480637D5D8F82400E36920F07E
:1026700040501843C8F8240008062FD5D8F8200089
:10268000236A20F440301843C8F82000C8054BD511
:1026900026E000BFD8F82000002220F04070284338
:1026A000C8F8200018468B06DBD5A3694FEA3357DC
:1026B000052F00F225834FF48035DFE817F007007F
:1026C0002B03290307000700070000BF002A154657
:1026D00000F029834806C7D40806CFD4C80523D5FF
:1026E000606A40B1B0F5802F0AD1D8F8003043F0CD
:1026F0008043C8F80030134672B1880536D516E01D
:1027000001220123880512D430E000BF01220120FC
:102710008B06CAD4A5E700BFD8F8202022F4802277
:1027200010430022C8F820002B4688051ED5A56A54
:1027300075B1B5F5800F05D0B5F5000F3AD14FF45E
:10274000803000E04020D8F800703843C8F800001E
:1027500010461AB10B0531D50BE000BFD8F82400A4
:10276000002220F440002843C8F8240018460B0536
:1027700024D5E56A6FF0010303EB3533022B0AD34E
:102780004FEA35333BB1012B54D1D8F8003043F038
:102790000053C8F80030134612B148054ED510E07A
:1027A000D8F8242022F440522A43C8F824200022DA
:1027B00004E000BF012201200B05DAD403464805DE
:1027C0003CD5256B6FF0010000EB352002280BD3C0
:1027D0004FEA352040B1012840F04681D8F800008A
:1027E00040F00050C8F800001046CAB1CB0428D40D
:1027F000034688043CD418464B044FD403460804CF
:1028000000F163801846CB0340F17580D8F80030A2
:1028100043F00053C8F800308B0340F1DB806CE0DC
:10282000D8F82400002220F440702843C8F824007F
:1028300004E000BF012201234805C2D41846CB049E
:10284000D6D5656B4FEA3543052B00F27B824FF4FA
:102850008037DFE813F007007F027D0207000700E2
:10286000070000BF002A134600F07D828804C2D50D
:10287000A56B4FEA3520052800F282824FF480379D
:10288000DFE810F00600860284020600060006005B
:10289000002A104600F085824B04AFD5E56B4FEA65
:1028A0003533052B00F28A824FF48037DFE813F0CE
:1028B00006008E028C02060006000600002A13465F
:1028C00000F08D8208047FF59DAF256C052D00F288
:1028D00093824FF40030DFE815F00700970295026D
:1028E00007000700070000BF002A104600F095828D
:1028F000CB033FF58BAF8B036CD5A36CB3F1006FAB
:1029000007D0002B58D1D8F8007047F00057C8F80E
:102910000070002A154655D008035ED42B46C80225
:1029200071D418464B0200F184800346080200F17E
:10293000B5801846CB0100F1C6800346880100F13E
:10294000D88018464B0100F1EC800346C80000F126
:10295000008118468B0000F112810346480000F107
:1029600024811846B1F1FF3F00F32B81A36F6FF074
:10297000010707EBB337022F0AD34FEAB3373FB152
:10298000012F07D1D8F8007047F08057C8F80070C1
:10299000002A5DD00120090140F1168158F81C1C65
:1029A000D4F8802021F40041114348F81C1C002871
:1029B00018BF0120BDE8F0810122012508030CD4D5
:1029C000ACE700BFD8F8202022F000621A43C8F814
:1029D0002020002205460803A0D5E06C4FEA3047CE
:1029E000042F00F21F814023DFE817F028012201A5
:1029F00026010600060000BF002A134600F02781CA
:102A0000C8027FF58EAF256D4FEA3557052F00F2CE
:102A100011824020DFE817F09202900214020600B3
:102A200006000600002A104600F091824B027FF556
:102A30007CAFA56E4FEA3567032F1BD84023DFE834
:102A400007F021031F2600BF4FF480231AE000BFC8
:102A5000D8F8202022F440421A43C8F82020090167
:102A600040F1B2809AE700BF01220120CB043FF57C
:102A7000E8AEBDE60122012308020FD459E700BFEA
:102A80004FF00053D8F800703B43C8F80030002ADC
:102A9000134600F0B98008027FF54BAFA56D4FEAF1
:102AA0003527042F00F2E0804020DFE817F0E9002E
:102AB000E300E70005000500002A104600F0E98069
:102AC000CB017FF53AAFE56D4FEA3517042F00F2E1
:102AD000ED804023DFE817F0F600F000F400060078
:102AE000060000BF002A134600F0F58088017FF53C
:102AF00028AF256E4FEA3510052800F2A5814FF466
:102B00000037DFE810F00700A901A7010700070060
:102B1000070000BF002A104600F0A7814B017FF597
:102B200014AF656E4FEA3513052B00F2AB814FF4FD
:102B30000037DFE813F00700AF01AD010700070021
:102B4000070000BF002A134600F0AD81C8007FF5E2
:102B500000AFE56E052D00F2B3814FF40030DFE8E1
:102B600015F00700B701B50107000700070000BF17
:102B7000002A104600F0B5818B007FF5EEAE256F80
:102B8000052D00F2BB814FF40033DFE815F007009C
:102B9000BF01BD0107000700070000BF002A134660
:102BA00000F0BD8148007FF5DCAE656F002D18BFD9
:102BB000B5F5805F0ED11046CAB1B1F1FF3F7FF786
:102BC000D5AE09013FF5EAAE002818BF0120BDE8E7
:102BD000F08100BFB5F5005F40F08A80D8F80000B2
:102BE00040F08050C8F80000002A1046E5D1D8F81F
:102BF0002000002220F440502843C8F82000184646
:102C0000B1F1FF3FDDDCB1E6D8F8242022F04072BC
:102C10002A43C8F824200022034608027FF589AE23
:102C20003CE700BF01220123C8023FF5ECAE78E685
:102C30004FF4803302E000BF4FF00063D8F800701B
:102C40003B43C8F80030002A13467FF4D9AED8F8C9
:102C5000282022F4E02210430022C8F828002B4646
:102C6000C8027FF55EAECEE601220120CB013FF522
:102C70002AAF62E64FF4803002E000BF4FF0006000
:102C8000D8F800703843C8F80000002A10467FF4D6
:102C900017AFD8F82800002220F4E0602843C8F8D5
:102CA00028001846CB017FF548AE0CE7012201232E
:102CB00088013FF51EAF44E64FF4803302E000BFC9
:102CC0004FF00063D8F800703B43C8F80030002A8A
:102CD00013467FF40BAFD8F8242022F070022A4369
:102CE000C8F824200022034688017FF52AAE00E7B9
:102CF00001220120B1F1FF3F3FF763AF36E600BF8D
:102D00000122012548067FF5E7ACFFF7ADBC00BF07
:102D10004FF00065D8F800702F43C8F80070002A03
:102D200015467FF4D7ACD8F8202022F4E0021A43ED
:102D3000C8F820200022054648067FF5CDACFFF7F5
:102D400093BC00BF0122012388043FF591AD52E5F9
:102D50004FF00057D8F800303B43C8F80030002A45
:102D600013467FF483ADD8F8242022F4E0222A43CE
:102D7000C8F824200022034688047FF53CAD77E59F
:102D8000012201204B043FF589AD37E54FF0005794
:102D9000D8F800003843C8F80000002A10467FF435
:102DA0007BADD8F82C00002220F4E0602843C8F85E
:102DB0002C0018464B047FF521AD6FE5012201235D
:102DC00008043FF582AD1DE54FF00057D8F80030FC
:102DD0003B43C8F80030002A13467FF473ADD8F89F
:102DE0002C2022F4E0422A43C8F82C20002203467B
:102DF00008047FF507AD68E501220120CB037FF5CC
:102E00007AAD03E54FF08050D8F800703843C8F829
:102E10000000002A10467FF46BADD8F82C00002289
:102E200020F007002843C8F82C001846CB037FF594
:102E300062ADEBE4012201204B023FF5FAAD74E5EF
:102E40004FF000607AE000BF012201204B013FF506
:102E500068AE7AE54FF08057D8F800003843C8F8DC
:102E60000000002A10467FF459AED8F8280000224E
:102E700020F070002843C8F8280018464B017FF561
:102E800064AD4EE601220123C8003FF562AE60E565
:102E90004FF08057D8F800303B43C8F80030002A84
:102EA00013467FF453AED8F82C2022F070022A4348
:102EB000C8F82C2000220346C8007FF54AAD48E63A
:102EC000012201208B003FF55AAE46E54FF08050BD
:102ED000D8F800703843C8F80000002A10467FF484
:102EE0004BAED8F82800002220F007002843C8F88D
:102EF000280018468B007FF530AD40E60122012303
:102F000048003FF552AE2CE54FF08053D8F80070E2
:102F10003B43C8F80030002A13467FF443AED8F88C
:102F2000242022F007022A43C8F824200022034666
:102F300048007FF516AD38E64FF48030D8F80070C1
:102F40003843C8F80000002A10467FF46FADD8F867
:102F50002800002220F4E0002843C8F82800184682
:102F60004B027FF5E2AC64E580B500F0C9FC44F2A9
:102F70001C41C5F60201096801F00F01082938BF9C
:102F800080BD49F62202C9F20002114411F8081C62
:102F9000C84080BD0000000010B544F21C44C5F6D6
:102FA000020400F0ADFC216801F00F01082907D3ED
:102FB00049F62202C9F20002114411F8081CC84067
:102FC000616801F00701033938BF0021C84010BD16
:102FD00010B544F21C44C5F6020400F091FC2168CF
:102FE00001F00F01082907D349F62202C9F20002B5
:102FF000114411F8081CC8406168C1F3021103397B
:1030000038BF0021C84010BD10B544F21C44C5F6BD
:10301000020400F075FC216801F00F01082907D3B4
:1030200049F62202C9F20002114411F8081CC840F6
:103030006168C1F30221033938BF0021C84010BDC7
:1030400010B544F20043C5F60203D3F830E09A6AA3
:10305000186BC2F30514ACB16FF35F20D96AC907CE
:1030600000F1010C16D19FED290A02F0030002289D
:103070001FD0012820D010B91868800620D49FEDF9
:10308000231A2AE00021CEF306400130B1FBF0F014
:1030900010BD00BF586B9FED1E1AC0F3CC0000EEB0
:1030A000100AB8EE400A20EE010A02F003000228DE
:1030B000DFD19FED181A10E09FED171A0DE000BF49
:1030C000186849F20001C0F2D031C0F3C10021FA02
:1030D00000F001EE100AB8EE411A02EE104A03EEBB
:1030E00010CAB8EE422AB8EE433A81EE021A30EE28
:1030F000030A20EE010ABCEEC00A10EE101ACEF34D
:1031000006400130B1FBF0F010BD00BF0000000030
:1031100000000039001BB74B0024744A0000000077
:1031200010B544F20043C5F60203D3F838E09A6ABA
:10313000986BC2F30534ACB16FF35F20D96A09050F
:1031400000F1010C16D49FED290A02F003000228B9
:103150001FD0012820D010B91868800620D49FED18
:10316000231A2AE00021CEF346200130B1FBF0F013
:1031700010BD00BFD86B9FED1E1AC0F3CC0000EE4F
:10318000100AB8EE400A20EE010A02F003000228FD
:10319000DFD19FED181A10E09FED171A0DE000BF68
:1031A000186849F20001C0F2D031C0F3C10021FA21
:1031B00000F001EE100AB8EE411A02EE104A03EEDA
:1031C00010CAB8EE422AB8EE433A81EE021A30EE47
:1031D000030A20EE010ABCEEC00A10EE101ACEF36C
:1031E00046200130B1FBF0F010BD00BF0000000030
:1031F00000000039001BB74B0024744A0000000097
:1032000010B544F20043C5F60203D3F838E09A6AD9
:10321000986BC2F30534ACB16FF35F20D96A09052E
:1032200000F1010C16D49FED290A02F003000228D8
:103230001FD0012820D010B91868800620D49FED37
:10324000231A2AE00021CEF306400130B1FBF0F052
:1032500010BD00BFD86B9FED1E1AC0F3CC0000EE6E
:10326000100AB8EE400A20EE010A02F0030002281C
:10327000DFD19FED181A10E09FED171A0DE000BF87
:10328000186849F20001C0F2D031C0F3C10021FA40
:1032900000F001EE100AB8EE411A02EE104A03EEF9
:1032A00010CAB8EE422AB8EE433A81EE021A30EE66
:1032B000030A20EE010ABCEEC00A10EE101ACEF38B
:1032C00006400130B1FBF0F010BD00BF000000006F
:1032D00000000039001BB74B0024744A00000000B6
:1032E00010B544F20043C5F60203D3F838E09A6AF9
:1032F000986BC2F30534ACB16FF35F20D96A09054E
:1033000000F1010C16D49FED290A02F003000228F7
:103310001FD0012820D010B91868800620D49FED56
:10332000231A2AE00021CEF306600130B1FBF0F051
:1033300010BD00BFD86B9FED1E1AC0F3CC0000EE8D
:10334000100AB8EE400A20EE010A02F0030002283B
:10335000DFD19FED181A10E09FED171A0DE000BFA6
:10336000186849F20001C0F2D031C0F3C10021FA5F
:1033700000F001EE100AB8EE411A02EE104A03EE18
:1033800010CAB8EE422AB8EE433A81EE021A30EE85
:10339000030A20EE010ABCEEC00A10EE101ACEF3AA
:1033A00006600130B1FBF0F010BD00BF000000006E
:1033B00000000039001BB74B0024744A00000000D5
:1033C00010B544F20043C5F60203D3F8C4E09A6A8C
:1033D000986BC2F30534ACB16FF35F20D96A09056D
:1033E00000F1010C16D49FED290A02F00300022817
:1033F0001FD0012820D010B91868800620D49FED76
:10340000231A2AE000210EF007000130B1FBF0F092
:1034100010BD00BFD86B9FED1E1AC0F3CC0000EEAC
:10342000100AB8EE400A20EE010A02F0030002285A
:10343000DFD19FED181A10E09FED171A0DE000BFC5
:10344000186849F20001C0F2D031C0F3C10021FA7E
:1034500000F001EE100AB8EE411A02EE104A03EE37
:1034600010CAB8EE422AB8EE433A81EE021A30EEA4
:10347000030A20EE010ABCEEC00A10EE101A0EF08C
:1034800007000130B1FBF0F010BD00BF00000000EC
:1034900000000039001BB74B0024744A00000000F4
:1034A00010B544F20043C5F60203D3F8C4E09A6AAB
:1034B000986BC2F30534ACB16FF35F20D96A09058C
:1034C00000F1010C16D49FED290A02F00300022836
:1034D0001FD0012820D010B91868800620D49FED95
:1034E000231A2AE00021CEF302200130B1FBF0F0D4
:1034F00010BD00BFD86B9FED1E1AC0F3CC0000EECC
:10350000100AB8EE400A20EE010A02F00300022879
:10351000DFD19FED181A10E09FED171A0DE000BFE4
:10352000186849F20001C0F2D031C0F3C10021FA9D
:1035300000F001EE100AB8EE411A02EE104A03EE56
:1035400010CAB8EE422AB8EE433A81EE021A30EEC3
:10355000030A20EE010ABCEEC00A10EE101ACEF3E8
:1035600002200130B1FBF0F010BD00BF00000000F0
:1035700000000039001BB74B0024744A0000000013
:1035800010B544F20043C5F60203D3F840E09A6A4E
:10359000186CC2F30554ACB16FF35F20D96A4902CD
:1035A00000F1010C16D49FED290A02F00300022855
:1035B0001FD0012820D010B91868800620D49FEDB4
:1035C000231A2AE00021CEF346200130B1FBF0F0AF
:1035D00010BD00BF586C9FED1E1AC0F3CC0000EE6A
:1035E000100AB8EE400A20EE010A02F00300022899
:1035F000DFD19FED181A10E09FED171A0DE000BF04
:10360000186849F20001C0F2D031C0F3C10021FABC
:1036100000F001EE100AB8EE411A02EE104A03EE75
:1036200010CAB8EE422AB8EE433A81EE021A30EEE2
:10363000030A20EE010ABCEEC00A10EE101ACEF307
:1036400046200130B1FBF0F010BD00BF00000000CB
:1036500000000039001BB74B0024744A0000000032
:1036600010B544F20043C5F60203D3F840E09A6A6D
:10367000186CC2F30554ACB16FF35F20D96A4902EC
:1036800000F1010C16D49FED290A02F00300022874
:103690001FD0012820D010B91868800620D49FEDD3
:1036A000231A2AE00021CEF306400130B1FBF0F0EE
:1036B00010BD00BF586C9FED1E1AC0F3CC0000EE89
:1036C000100AB8EE400A20EE010A02F003000228B8
:1036D000DFD19FED181A10E09FED171A0DE000BF23
:1036E000186849F20001C0F2D031C0F3C10021FADC
:1036F00000F001EE100AB8EE411A02EE104A03EE95
:1037000010CAB8EE422AB8EE433A81EE021A30EE01
:10371000030A20EE010ABCEEC00A10EE101ACEF326
:1037200006400130B1FBF0F010BD00BF000000000A
:1037300000000039001BB74B0024744A0000000051
:1037400010B544F20043C5F60203D3F840E09A6A8C
:10375000186CC2F30554ACB16FF35F20D96A49020B
:1037600000F1010C16D49FED290A02F00300022893
:103770001FD0012820D010B91868800620D49FEDF2
:10378000231A2AE00021CEF306600130B1FBF0F0ED
:1037900010BD00BF586C9FED1E1AC0F3CC0000EEA8
:1037A000100AB8EE400A20EE010A02F003000228D7
:1037B000DFD19FED181A10E09FED171A0DE000BF42
:1037C000186849F20001C0F2D031C0F3C10021FAFB
:1037D00000F001EE100AB8EE411A02EE104A03EEB4
:1037E00010CAB8EE422AB8EE433A81EE021A30EE21
:1037F000030A20EE010ABCEEC00A10EE101ACEF346
:1038000006600130B1FBF0F010BD00BF0000000009
:1038100000000039001BB74B0024744A0000000070
:1038200010B544F20043C5F60203D3F8C8E09A6A23
:10383000186CC2F30554ACB16FF35F20D96A49022A
:1038400000F1010C16D49FED290A02F003000228B2
:103850001FD0012820D010B91868800620D49FED11
:10386000231A2AE000210EF007000130B1FBF0F02E
:1038700010BD00BF586C9FED1E1AC0F3CC0000EEC7
:10388000100AB8EE400A20EE010A02F003000228F6
:10389000DFD19FED181A10E09FED171A0DE000BF61
:1038A000186849F20001C0F2D031C0F3C10021FA1A
:1038B00000F001EE100AB8EE411A02EE104A03EED3
:1038C00010CAB8EE422AB8EE433A81EE021A30EE40
:1038D000030A20EE010ABCEEC00A10EE101A0EF028
:1038E00007000130B1FBF0F010BD00BF0000000088
:1038F00000000039001BB74B0024744A0000000090
:1039000080B544F20040C5F602000169C1F3C2016E
:1039100003290FD0022921D031BB0168890629D59E
:10392000016849F20002C0F2D032C1F3C10122FAAB
:1039300001F166E0826A816AC36AD0F834C0C1F3DB
:103940000511B9B102F00302022A15D0C2B902680A
:10395000920619D49FED310A45E000BF43F20061A1
:10396000C0F26E114DE000BF40F60011C0F23D0103
:1039700047E000BF002144E09FED270A11E000BFAF
:103980009FED240A0DE000BF0268C2F3C10E49F2A8
:103990000002C0F2D03222FA0EF200EE102AB8EE87
:1039A000400A03F001029FED1E3A524202EADC0295
:1039B0006FF35F3201EE102A026B6FF35F2202EEAB
:1039C000102AB8EE411AB8EE422A01EE032A01EE9F
:1039D000101AB7EE003AB8EE411A80EE010A32EE44
:1039E000031A20EE010A016BC1F34621013101EEF9
:1039F000101AB8EE411A80EE010ABCEEC00A10EEB1
:103A0000101A806900F00F00073838BF002021FA33
:103A100000F080BD0024744A001BB74B000000007A
:103A2000000000390000000091E80510104344F246
:103A30001C02C5F60002CB68106043EA0C0044F299
:103A400020438A69C5F6000310435860186820F0C7
:103A5000FF10D1E904210243002042EA014119602C
:103A60007047000000000000B0B544F20400002AD6
:103A7000C5F6000000684FEA104300F03F0CC0F3A9
:103A8000042ECB70C0F3423281F801E081F802C00D
:103A90000A7001D00020B0BDDAB24FEA1E1412093C
:103AA00003F00F03050A00F00F0002EB820205F09D
:103AB0000F0503EB4202CA7044EA84034FEA1C1468
:103AC00005EB43034B7044EA840200EB420088702C
:103AD0000020B0BD00000000B0B544F20000C5F603
:103AE000000083684B60C36803F44073B3F5807FC4
:103AF00014D00369002A6FF3DF338B60006800F095
:103B00007F0C81F802C0C0F305430B70C0F3062E92
:103B100081F801E0C0F38052CA7001D00020B0BD2E
:103B20001B09020C43EA830302F00F024FEA1E1442
:103B300002EB43020A7004EB84034FEA1C14050AEB
:103B400000F00F0004EB840205F00F0505EB4303C2
:103B50004B7000EB420088700020B0BD00000000F8
:103B6000B0B370B5044690F82D0028B9002084F851
:103B70002C00204600F06CF844F20C060220C5F63A
:103B8000000684F82D003068C0065BD4306800F46D
:103B90004070B0F5807F55D0CA20B0615320B0612D
:103BA0003068400620D4306840F080003060FCF778
:103BB00077FD3168490617D4054600BFFCF770FD54
:103BC000401BB0F57A7F306804D84006F6D50BE08C
:103BD00001207047400607D4032084F82D00316887
:103BE000FF21B16170BD00BF4FF6BF71F068CFF625
:103BF0008F31231D0840F0600FCB1843A369184391
:103C0000F3681843F06042EA01407060306820F4C5
:103C1000F850D4E90912084310433060204601F0FF
:103C20007FFC18B1FF21B16170BD00BFF06820F0CA
:103C30006040D4E907121043626908431043F06002
:103C4000FF20B061012084F82D00002070BD00002D
:103C500010B5A2B001A90446081D8021FCF7AEFBF7
:103C600044F200012068C5F60001884202D022B06B
:103C700010BD00BF4FF4802001904FF48070209061
:103C800001A8FEF7B9FB08B1FCF706FC44F254505A
:103C9000C5F6020050F8E41C41F4004140F8E41C71
:103CA000016841F48031016000680090009822B002
:103CB00010BD0000000000002DE9F04381B0044673
:103CC00090F82C0001284FF0020000F097804FF090
:103CD000010384F82C3084F82D003AB14878CA7872
:103CE0008E78000240EA024845E000BF4878C206EC
:103CF00003D500F0EF000A304870CA784FF0CD0CC1
:103D0000A0F10A054FF0010EA2F10A03DFB207FB92
:103D10000CF7FE0A0EEBD72706EB8606A3EB460848
:103D2000EEB206FB0CF3D6B2092E4FEAD32688BFBB
:103D300048EA071206EB86078E780EEBD323092894
:103D4000D2B2A5EB470588BF45EA0310A6F10A03E6
:103D5000DDB2C0B205FB0CF70002FD0A40EA0248E2
:103D6000F2B205EB85000EEBD727092AA3EB400042
:103D700088BF40EA071644F20C0791F80090C5F698
:103D80000007CA20B8615320B861386840061DD4C6
:103D9000386840F080003860FCF782FC39684906DA
:103DA00014D40546FCF77CFC401BB0F57A7F3868DC
:103DB00002D84006F6D509E0400607D4032084F86F
:103DC0002D003968FF21B96115E000BFF0B24FEA5C
:103DD000493140EA080020F0C000084347F8080CC9
:103DE000204601F09DFB4FF0FF01B96118B9012099
:103DF00084F82D000020002184F82C1001B0BDE8CB
:103E0000F0830000000000002DE9F04F81B004466F
:103E100090F82C0001284FF0020000F0BD8044F221
:103E20000C058846C5F60005012184F82C101646BD
:103E300084F82D00CA20A8615320A8612868400694
:103E40001ED4286840F080002860FCF729FC29680F
:103E5000490615D4074600BFFCF722FCC01BB0F58D
:103E60007A7F286802D84006F6D509E0400607D4D4
:103E7000032084F82D002968FF21A96189E000BF93
:103E8000286800F44070B0F5807F77D0E8683EB1D4
:103E900040060DD44FF0000A88F803A00CE000BFE4
:103EA000400613D44FF0000A88F803A012E000BFC8
:103EB00098F803004FEA805A98F8000098F801201B
:103EC00098F80210120242EA004248E098F8030013
:103ED0004FEA805A98F800204FF0CD0C98F8013046
:103EE0004FF00109A2F10A01CFB207FB0CF7FE0A5D
:103EF00009EBD72706EB8606A1EB460EA3F10A06CF
:103F0000F1B201FB0CF0D1B24FEAD02B092988BFE6
:103F10004EEA07120BEB8B0798F802105FFA83FE4C
:103F200009EBD020A6EB4706BEF1090F88BF46EA91
:103F30000013D2B2A1F10A00C7B2DBB207FB0CF743
:103F40001B02FE0A43EA024206EB8603CEB209EBED
:103F5000D727A0EB4300092E88BF40EA0711C8B25B
:103F600047F67F711043C0F27F0140EA0A00084023
:103F700045F80C0CE86820F48020E860204601F049
:103F8000CFFA4FF0FF01A96118B9012084F82D0084
:103F90000020002184F82C1001B0BDE8F08F000053
:103FA0004EF21000CEF20000016841F00201016003
:103FB00070470000000000002DE9F04184B0044685
:103FC00003200D4684F83000A06B032810D14FF079
:103FD0008050616B40F6FF7808436063606BC1F608
:103FE000E07868B32068C0F8388001258CE000BF15
:103FF000002D51D0B5F5004FE9D0B5F5804F63D114
:1040000000200021CDE90200206802F0EDFC8001D3
:104010005ED402A9204602F013FD0028D9D19DF8F4
:104020000E0040074CD5616C2068090402F0FCF8D2
:104030000028CED12068022102F06AF9C9E700BF4A
:104040004FF40010FDF76CFD00B343F68931C5F263
:10405000E651A0FB0116D4E904C3D4E90112B3EB85
:10406000166F4AD2A76DB7F5007F46D0B7F5807FAF
:1040700032D1002B3ED05F00B0FBF7F04FF280074B
:10408000C0F2FA27B84288BF730E36E0606B40F08A
:1040900000606063A9E700BF00200021CDE90200B5
:1040A000206802F0A1FC800112D402A9204602F08F
:1040B000C7FC00287FF48DAF9DF80E00C00737D1F4
:1040C0004FF0806085E700BF4FF0006081E700BFE0
:1040D0004FF400607DE700BF4FEA166663B15F00F2
:1040E000B0FBF7F047F64007C0F27D17B84288BF33
:1040F000334602E0730E00E033462068CDE900C38A
:104100002B4602F075FC002520684FF4007102F088
:10411000EBF830B121680125C1F83880616B0843A4
:104120006063012084F83000284604B0BDE8F081C7
:10413000616C2068090402F077F800287FF449AF29
:104140002068002102F0E4F843E7000000000000CE
:1041500080B5D0F838C0D0E9173EBCF1010F4FEA66
:1041600093720A70C3F383624A70C3F301628A7068
:104170004FEA1342CA704FEA13220A714B714FEA99
:104180001E52CA80CEF303420A72CEF3C0324A7284
:10419000CEF380328A72CEF34032CA72CEF300324E
:1041A0000A734FF000024A7338D0BCF1000F40F0A0
:1041B000898040F6FC72436E02EA8E0242EA9372F4
:1041C0000A61426EC2F3C2630B75C2F302634B75A0
:1041D000C2F342538B75C2F38243CB75C2F3C23331
:1041E0000B76D1F810C00B7E0CF1010C03F0070325
:1041F00002330CFA03FCC0F848C00B7A03F00F0E30
:10420000012303FA0EF3C3644FEA532E0EFB0CF3A3
:1042100003654FF40073436513E000BF0EF03F02E7
:10422000B0F8663043EA02420A610A694FF48063DB
:1042300003EB822282644FF400734365C0E91332BA
:10424000426EC2F380334B76C2F3C6138B7602F014
:104250007F02CA76806EC20F0A77C0F341724A7736
:10426000C0F382628A77C0F38352CA77C0F34052A8
:1042700081F82020C0F30043002281F8212081F83A
:104280002230C0F3C03381F82330C0F3803381F88B
:104290002430C0F3403381F82530C0F3003381F877
:1042A0002630C0F3812381F82730C0F3012381F841
:1042B0002830C0B2400881F82900012081F82A0086
:1042C000104680BD016840F6FF72C1F6E0728A6355
:1042D0000122416B41F08051416380F8302010464B
:1042E00080BD0000000000000246806B0860D36BB8
:1042F000106C4B60536CC1E90203906C0861D06C88
:104300004861106D88610020526DCA6170470000DD
:1043100010B5416C04460068090402F099F928B10F
:10432000616B08436063002010BD00BF206800215E
:1043300002F05AFBC0F3432010BD00000000000053
:104340002DE9F04196B0044690F83000032805D1DD
:104350000125284616B0BDE8F08100BF40F6FF7881
:104360000D46C1F6E078FCF79BF90646206800216F
:1043700002F03AFB800125D42068402101F0B4FF0F
:104380000146E0B9616C2068090401F04DFF014667
:10439000A8B94FF0FF30109040201190602012908B
:1043A000022013900020149001201590206810A97D
:1043B00002F036FA206802F0CFF90146F0B1606BE6
:1043C000606301E04FF4006120680125C0F8388087
:1043D000626B1143616384F830504FF4007101F057
:1043E00083FF0028B5D021680125C1F838806063BB
:1043F00084F83050284616B0BDE8F0816F4606E0DC
:10440000FCF74EF9801B4FF000410130DCD02068F2
:10441000416B11F4957F416B22D10904F0D502F074
:1044200003FB3860206802F0FFFA7860206802F031
:10443000FBFAB860206802F0F7FAF860206802F032
:10444000F3FA3861206802F0EFFA7861206802F030
:10445000EBFAB861206802F0E7FAF8612037CFE79D
:10446000090715D4416B890714D4406B800613D417
:104470002068416BC90411D502F0D6FA47F8040B45
:10448000FCF70EF9801B4FF000410130F0D19BE7A3
:10449000082199E7022197E7202195E740F63A7134
:1044A0006FF0FF0CC1F6000181639DE88E00CEB273
:1044B000B6092E70C1F340166E700CEA112646EA5A
:1044C0001161698011BA69602B72190AFAB26972B6
:1044D000C3F30351A9720CEA13411144A981C7F334
:1044E0008521A973C7F30121E9731109297407F024
:1044F0000F0169749DF81310A97400254FF4007121
:1045000001F0F2FE00287FF46EAF22E70000000009
:10451000A0B1B0B586B0044690F8300020B90020B4
:104520002076204600F080F9042084F830002046F0
:1045300000F056F820B1012006B0B0BD0120704750
:1045400001A92046FFF7FCFE10B1012006B0B0BD66
:104550009DF814009DF81510A26B012A04D10843A0
:1045600004D04FF4007003E0002001E04FF48070AD
:10457000A065E1682046FFF71FFD18B1012006B0D5
:10458000B0BD00BFFCF78CF8054607E0616B08433F
:104590006063FCF785F8401B013017D0616C206820
:1045A000090402F055F80028F0D12068002102F03B
:1045B0001BFA00F4F050B0F5006FEAD10020606300
:1045C000E062012184F8301006B0B0BD4FF0004029
:1045D00060630320012184F8301006B0B0BD0000F4
:1045E000F0B58FB004464FF40010FDF799FAD8B338
:1045F00048F659310546000AC0F24F11A0FB0101EF
:104600002068002200230F0900210026CDE9006761
:1046100002F0EEF9206802F0FFF943F20050C0F218
:104620000C00854202D37800B5FBF0F542F2101081
:10463000C0F20100B0FBF5F00130FBF731FF04964A
:10464000206801F079FE10BB206801F0ADFE04285F
:1046500014D10020E063206801F06EFEB8B9E06B71
:1046600001280DD01CE000BF012184F830104FF06C
:104670000060606308460FB0F0BD00BF0120E0633A
:104680002068002101F0D0FD50B14FF08050012191
:1046900084F83010626B1043606308460FB0F0BDC1
:1046A00004984FF6FE76B0421ED80025CCF21015C5
:1046B0002068002101F0B8FD0028E8D120682946D3
:1046C00001F0C6FD0028E0D12068002102F08CF93D
:1046D0000499013104910499B14202D8B0F1FF3F2D
:1046E000E6DCC0F3807000E0002004994FF6FF7212
:1046F000914203D34FF08070C9E700BFA063002050
:10470000ADF80E00FBF7CCFF0546206802F068F913
:1047100060B3A06B03282DD12068042102F064F956
:10472000000D206404A92046FFF712FD0028ACD13B
:10473000616C2068090401F0BBFE0028A7D1206845
:104740004FF4007101F0D0FD002865D0216840F6DB
:10475000FF72C1F6E0728A63616B084301216063F6
:1047600084F8301008460FB0F0BD00BF4FF08060F5
:104770008DE700BF206801F0AFFE00287FF487AF0F
:104780002068002102F030F9E0662068042102F080
:104790002BF920672068082102F026F9606720685D
:1047A0000C2102F021F9A16BA0670329B4D00DF10F
:1047B0000E0641F287372068314601F05DFF002880
:1047C0007FF465AFFBF76CFF401BB84228D8BDF8FB
:1047D0000E100029EFD0A06B03289DD061642068E3
:1047E000090401F0CDFE00287FF451AF20680021BC
:1047F00002F0FAF8E0652068042102F0F5F820667E
:104800002068082102F0F0F8606620680C2102F0B0
:10481000EBF8A06680E700BF002108460FB0F0BDAE
:104820004FF0004033E700002DE9F043A7B001A9A5
:104830000446081D8021FBF7C1FD47F200012068F6
:10484000C5F20021884203D027B0BDE8F08300BF45
:104850004FF40010019001A8FDF7CEFD08B1FBF761
:104860001BFE44F2405040F60004C5F60200C5F6B7
:10487000020422AD4FF0020850F80C1C002741F44E
:10488000807140F80C1C50F80C1C22912299016890
:1048900041F008010160016822912299016841F00C
:1048A000040101600068229022980420229004F5FF
:1048B00080602946CDF88C802497032625964FF0FA
:1048C0000B09CDF89890FBF7FFFD4FF4D85029461F
:1048D000CDE922082046CDF89890CDE92476FBF763
:1048E000F3FD4FF480602946CDE922080C20269084
:1048F0002046CDE92476FBF7E7FD27B0BDE8F0833D
:104900002DE9F04387B0984615460E460446FBF75E
:10491000C7FE9EB1074694F83000012816D1002149
:10492000616308EB0500226D904217D9606B40F07F
:1049300000706063012007B0BDE8F083606B40F059
:1049400000606063012007B0BDE8F083606B40F059
:1049500000506063012007B0BDE8F083032084F8B5
:10496000300020684FF0FF33A26B4FF00209C162A4
:10497000012A01934FEA482302934FF090030393D7
:10498000CDF81090059118BF6D02069101A901F0B4
:1049900047FF2068B8F1020FC16841F04001C160D3
:1049A00016D32946C4F82C9001F05AFDB8B12168FD
:1049B00040F6FF72C1F6E0728A63616B0843606380
:1049C000012084F830000021E16207B0BDE8F083E7
:1049D0000121E162294601F057FD0028E7D1DDF809
:1049E0003890029D05E000BFFBF75AFEC01B48450A
:1049F00048D22068416B11F4957F27D1416B09049F
:104A0000F2D5202DF0D302F00FF83060206802F0CC
:104A10000BF87060206802F007F8B060206802F0C0
:104A200003F8F060206801F0FFFF3061206801F0BA
:104A3000FBFF7061206801F0F7FFB061206801F0B2
:104A4000F3FFF0612036203DCEE700BFC168B8F12A
:104A5000020F21F04001C160416B27D311F4807136
:104A600024D0A16B032921D001F08AFE0146002841
:104A700020681BD040F6FF72C1F6E0728263606B63
:104A800008439CE7206840F6FF71C1F6E07181633E
:104A9000606B40F000406063012084F8300000202B
:104AA000E062032007B0BDE8F08300BF416B090757
:104AB00012D4416B890719D4416B890620D440F682
:104AC0003A71C1F600018163012084F830000020B2
:104AD00007B0BDE8F08300BF40F6FF71C1F6E0719A
:104AE0008163606B40F0080069E700BF40F6FF712A
:104AF000C1F6E0718163606B40F002005FE700BFC8
:104B000040F6FF71C1F6E0718163606B40F02000F8
:104B100055E70000000000002DE9F04788B09846F6
:104B200015460E460446FBF7BBFD9EB1824694F83F
:104B30003000012816D10021616308EB0500226DC9
:104B4000904217D9606B40F000706063012008B09C
:104B5000BDE8F087606B40F000606063012008B042
:104B6000BDE8F087606B40F000506063012008B042
:104B7000BDE8F087032084F8300020684FF0FF3351
:104B8000A26BC162012A02934FEA482303934FF0BC
:104B90009003CDE90431069118BF6D02079102A977
:104BA00001F03EFE2068B8F1020FC16841F04001FB
:104BB000C16017D32021E162294601F009FEC0B18E
:104BC000216840F6FF72C1F6E0728A63616B0843A8
:104BD0006063012084F830000021E16208B0BDE884
:104BE000F08700BF1021E162294601F005FE002890
:104BF000E6D1DDF84090039F01AD05E0FBF750FDE5
:104C0000A0EB0A00484563D22068416B11F48D7F08
:104C100042D1416B4904F1D5202FEFD33178019176
:104C2000727841EA02210191B27841EA0241019190
:104C3000F27841EA02610191294601F0F9FE7068BB
:104C400001902068294601F0F3FEB06801902068C9
:104C5000294601F0EDFEF06801902068294601F038
:104C6000E7FE306901902068294601F0E1FE706995
:104C700001902068294601F0DBFEB06901902068B0
:104C8000294601F0D5FEF0690190206829462036BA
:104C900001F0CEFE203FB1E7C168B8F1020F21F06C
:104CA0004001C160416B25D311F4807122D0A16B0A
:104CB00003291FD001F064FD01460028206819D0A7
:104CC00040F6FF72C1F6E0728263606B08437FE7D3
:104CD000206840F6FF71C1F6E0718163606B60632C
:104CE000012084F830000020E062032008B0BDE815
:104CF000F08700BF416B090712D4416B890719D4B3
:104D0000416BC90620D440F63A71C1F600018163B7
:104D1000012084F83000002008B0BDE8F08700BF13
:104D200040F6FF71C1F6E0718163606B40F00800EE
:104D30004EE700BF40F6FF71C1F6E0718163606B22
:104D400040F0020044E700BF40F6FF71C1F6E07199
:104D50008163606B40F010003AE700000000000043
:104D6000411E0020B0EB116F02D00120704700BF40
:104D70004EF21002F023CEF2000251604EF62351A3
:104D8000CEF200010B7007219060116070470000A7
:104D90004EF21000CEF20000016821F00201016025
:104DA0007047000000000000FEE700000000000067
:104DB00070B50446D0F8D40204EB8000D0F8C0529D
:104DC000002D08BF70BD95F81C02D8B140F208064E
:104DD0002046C2F20046317802F002FB687A0228CF
:104DE0000ED13178204602F0FBFA40F20900C2F2FF
:104DF000004001782046BDE8704002F0F1BA00BFE3
:104E000070BD00BFD5F818020028DFD0687A0028EE
:104E1000DCD140F20900C2F200400178204602F0E5
:104E2000DFFAD3E700000000B0B50446D0F8D402A2
:104E300004EB8000D0F8C052002D08BFB0BD687AE6
:104E4000022811D140F20800C2F200400178204649
:104E500002F0C6FA40F20900C2F200400178204692
:104E6000BDE8B04002F0BCBA49B2B1F1FF3F25DC69
:104E7000012823D045F255300022C5F24230C5F852
:104E80003002012085F83C0240F208002A72C2F28A
:104E9000004005F50C720D230178204602F0D8FA87
:104EA00040F2090005F50472C2F200401F230178A8
:104EB0002046BDE8B04002F0E3B900BFB0BD00003D
:104EC000B0B50446D0F8D40204EB8000D0F8C0524C
:104ED00095B3287AC11E022922D245F2553005F534
:104EE0000C72C5F24230C5F83002002085F83C0251
:104EF00040F20800C2F200400D2301780020287221
:104F0000204602F0A5FA40F2090005F50472C2F24B
:104F100000401F2301782046BDE8B04002F0B0B940
:104F2000022809D195F81D1205F21F22204600F033
:104F30006FFBB0F1FF3F01DDB0BD00BFD4F8D4027C
:104F400004EB8000D0F8C052002D08BFB0BD45F280
:104F5000553005F50C72C5F24230C5F8300201201B
:104F6000C4E7000000000000F0B581B00446D0F8AE
:104F7000D40204EB8000D0F8C062002E5AD0307A00
:104F800001284DD0002855D140F20905C2F2004554
:104F9000D6E985022978C6E98D02204602F0DCF8C0
:104FA0001F2812D145F25531D6F81002C4F2423111
:104FB00088420AD196F81D123068884205D396F8C7
:104FC0001E02113810F1110F70D896F81D1205222B
:104FD0002023204601F008F9D4F8D40204EB800025
:104FE000D0F8C0720220707227B397F81C02002814
:104FF00050D040F208062046C2F20046317802F056
:10500000EFF9787A022815D13178204602F0E8F9D4
:105010002978204601B0BDE8F04002F0E1B900BFB8
:1050200096F81D1206F21F22204600F0F1FAB0F1A8
:10503000FF3F01DD01B0F0BDD4F8D40204EB8000E5
:10504000D0F8C052002DF5D045F255300022C4F200
:1050500042302A7200F18050C5F83002012085F8F4
:105060003C0240F2080005F50C72C2F200400D232C
:105070000178204602F0ECF940F2090005F50472CF
:10508000C2F200401F230178204601B0BDE8F04085
:1050900002F0F6B8D7F818020028AAD0787A0028CB
:1050A000A7D12978204602F09BF9A2E706F21F2239
:1050B000204600F0ADFA317AB0F1FF3F0CDD481E1A
:1050C0000328B7D3F268BAB106F11001204601B047
:1050D000BDE8F04000F0ACB8052907D10121204619
:1050E00001B0BDE8F04000F073B800BF204601B049
:1050F000BDE8F040FFF75CBE0021204601B0BDE8EE
:10510000F04000F065B80000D0F8D41200EB810048
:10511000D0F8C00200281CBF0021017270470000B7
:1051200070B50446D0F8D40204EB8000D0F8C05229
:10513000002D08BF70BD00212981A5F86012D0F8AC
:10514000C40285F8621201680020884740F209060F
:105150002046C2F20046317801F0EAFF40F2080032
:10516000C2F200400178204601F0E2FF317805F5F7
:1051700004721F232046BDE8704002F081B8000091
:1051800070B50446D0F8D40204EB8000D0F8C052C9
:10519000002D08BF70BD40F20800C2F20040017847
:1051A0004FF480702881204601F0E6FE40F20906A7
:1051B0002046C2F20046317801F0DEFE317805F576
:1051C00004721F232046BDE8704002F059B8000069
:1051D000B0B50446D0F8D40204EB8000D0F8C05239
:1051E000002D08BFB0BD45F2553085F83C12C5F220
:1051F0004230C5F8300240F2080005F50C72C2F2E8
:1052000000400D23017800202872204602F020F98A
:1052100040F2090005F50472C2F200401F23017834
:105220002046BDE8B04002F02BB8000000000000AE
:1052300080B5D0F8D43200EB8303D3F8C0E2BEF1DE
:10524000000F08BF80BD8C46DEF81832DEF8381239
:10525000934228BF1346891A40F20802C2F2004264
:10526000CEF83812117800228EF83C2204228EF8F3
:1052700008206246BDE8804002F0EAB80000000065
:105280002DE9F04186B044F240500026C5F60200F8
:1052900040F20044CDE904660168C5F6020441F01D
:1052A00004010160016800910099016841F0080162
:1052B0000160016800910099016841F001010160FD
:1052C000016800910099016841F0020101600068E5
:1052D000009000980421002220464FF00408FBF7BC
:1052E000D7F901AD4FF40050CDE90106022003903B
:1052F00004F580602946FBF7E7F84FF480702946F3
:10530000CDE90106A4F5806001270397FBF7DCF8DF
:1053100020462946CDE90187CDE90366FBF7D4F89D
:1053200006B0BDE8F081000010B58EB040F6D05058
:1053300044F20001C2F200400024CDE90C44CDE962
:105340000A44CDE90844CDE90544CDE90344CDE95B
:105350000144C5F600014462C0E900147F21816068
:10536000FF21C0E90314C0E905444FF08041C0E9C2
:105370000714FEF7F5FB08B1FBF78EF840F6D050A6
:1053800007A9C2F200400794CDE90A440C94FEF745
:105390004BFB08B1FBF780F80020ADF808008DF852
:1053A0000A0002A9CDE9050040F6D0500122C2F260
:1053B0000040FEF729FD08B1FBF76EF840F201103E
:1053C00001A9C2F20150019040F6D0500122C2F270
:1053D0000040FEF771FC08B1FBF75EF80EB010BD9F
:1053E00080B540F6006047F20001C2F20040C5F20D
:1053F00000214FF4804201600021C0E90111C0E9A1
:10540000032102214161FFF783F8002808BF80BD16
:10541000BDE88040FBF740B880B540F2106040F234
:105420000C01C2F20040C2F20041012201F090FDE5
:1054300008B1FBF731F840F2106040F25001C2F2BF
:105440000040C2F2004102F0CFFA08B1FBF724F8A5
:1054500040F2106040F2C801C2F20040C2F20041C6
:1054600002F06EF908B1FBF717F840F21060C2F2D3
:10547000004002F0E5FA002808BF80BDBDE880408A
:10548000FBF70AB800000000FEE700000000000083
:10549000FEE700000000000040F6EC00C2F2004011
:1054A000FBF796BB00000000704700000000000002
:1054B00044F20040C5F60200C16C01F04051B1F168
:1054C000005F0DD0B1F1805F14D031B90168490798
:1054D00044BF01685FEA816116D40020704700BFB5
:1054E000006843F200618003C0F26E1101EAE070CF
:1054F000704700BF006840F60011C005C0F23D01D2
:1055000001EAE070704700BF006849F20001C0F294
:10551000D031C0F3C10021FA00F070470000000054
:1055200070B544F20C060446C5F60006316821F059
:1055300080013160F168890618D4306820F02000BD
:105540003060FBF7ADF805463068800630D4FBF7D5
:10555000A7F8401BB0F57A7FF6D93068800627D4CB
:10556000032084F82D0084F82D0070BDF06820F031
:105570002000F060306820F020003060FBF790F8E9
:10558000054600BF3068800614D4FBF789F8401B3D
:10559000B0F57A7FF6D9306880060BD4032084F802
:1055A0002D0084F82D00F16841F02001F16070BDFC
:1055B000002070BD0020F16841F02001F16070BD55
:1055C000D0F8D4C200EB8C00D0F8C002C0B100EB20
:1055D00001111A44D1F868128A4215D990F8611263
:1055E00005234FF0210C00EBC102013182F840325B
:1055F000CBB2A2F844C2043B18BF0B4680F861321C
:10560000FF2040B2704700BF002040B2704700004A
:105610002DE9F04383B00446D0F8D40204EB8000B7
:10562000D0F8C072002F00F0F8810E4611781546B0
:105630005A2900F27980DFE811F05B0099039903A1
:10564000D500990399039903990399039903990341
:1056500099039903990399039903990399030701FE
:1056600099039903990399039903990399033F01B6
:1056700051016501990391019903990399039903D4
:105680009D019903C50199039903F5019903150239
:10569000990399039903990345029903990399037F
:1056A000990399039903990399039903990399031A
:1056B000990399039903990399039903990399030A
:1056C00099039903990399039903990399039903FA
:1056D00099039903990399039903990399039903EA
:1056E000990399039903990399039903990357021D
:1056F000D7F81812002940F0398397F8621202296E
:1057000040F0868397F8610202223A2307EBC0013A
:10571000013081F84022C2B2A1F84432043A18BFE5
:10572000024687F8612293E39E390C2900F21E831A
:10573000DFE811F00E001C0338021C031C031C03DD
:105740001C031C031C031C039A021C03A80200BFB9
:1057500007EB0611D0F8C40201F5197801F51A79A2
:1057600043683046494642469847002840F03D810C
:1057700097F86202022800F03881D5F80A0000BAD2
:10578000F860B0B1002000217A184B1C1074FE683C
:10579000B3420ED250748B1CFE68B3423FBF90746C
:1057A000CB1CFE68B34204D2D0740431FA68914233
:1057B000EAD3D9F800000138F875010E3975010CEB
:1057C0007975010AB975B8F800100020388309BA54
:1057D000090C7983D5F80A1009BAF96040B203B010
:1057E000BDE8F083D7F81802002800F0BF8297F8D0
:1057F0006002002197F86122C7F8151087F8211080
:105800009042C7F81D10C7F81910C7F811104FF0D3
:10581000700139744FF00C01F9750ED007EBC0011F
:10582000013091F84022B1F84412BA74C2B2B9837F
:10583000043A18BF024687F860221220F8602879DF
:10584000122840F2B88034E3D7F81812002900F08B
:105850008D826978C90740F08F82D0F8C40206EBC8
:10586000C601C06900EB810128790A7905328242BC
:1058700038BF10460028F86000F01B8310F00302C8
:1058800000F01483461E012AB3B217FA86F5CB5CEA
:105890002B7400F00C83861E022AB3B217FA86F529
:1058A000CB5C2B7400F00383C61EB2B217FA86F3EA
:1058B0008A5C1A74FBE200BFD0F8C402C1683046AB
:1058C0008847002840F23400C2F2004000F0E48132
:1058D000817841F080018170E6E100BF97F86202B3
:1058E0002979012801F0030008BF022800F0548242
:1058F0000138022838D8C0B24FF40071C00021FA34
:1059000000F02FE0B5F8030000BA000C00F0D182DF
:10591000082840F2641128BF0820C2F2004110F0AC
:105920000302F86000F04E82461E012AB3B217FA55
:1059300086F5CB5C2B7400F04682861E022AB3B239
:1059400017FA86F5CB5C2B7400F03D82C61EB2B20E
:1059500017FA86F38A5C1A7435E200BF28790028AA
:1059600018BF012087F862020020F86040B203B03F
:10597000BDE8F083D0F8C40201A90DF10A02436822
:105980003046984788BB97F8620202282DD04FF026
:105990000060386101980138F875010E3975010C05
:1059A0007975BDF80A10020A02203883BA7509BA5F
:1059B000080C78830C20F860002040B203B0BDE8EA
:1059C000F08300BF07EB0611D0F8C40201F5197887
:1059D00001F51A754368304629464246984720B972
:1059E00097F86202022840F03B82D4F8D40204EB1C
:1059F0008000D0F8C00280B190F8611202233A27EB
:105A000000EBC102013182F84032CBB2043BA2F874
:105A1000447218BF0B4680F86132FF2040B203B0D9
:105A2000BDE8F083397A002940F0218197F91C12F2
:105A3000002940F19B8197F86212022900F06981E8
:105A4000D0F8C4028168304688470028CDD1D5F807
:105A5000020007EB061802BAC8F86C22B5F8070076
:105A600043BA6BE2397A002940F00F81D7F8181257
:105A7000002900F07B8197F91C12B1F1FF3F40F340
:105A80007581D0F8C4028168304688470028D4F870
:105A9000D402ACD104EB8000D0F8C402C168304617
:105AA0008847002800F06482D4F8D40204EB800018
:105AB000D0F8C0020028B0D090F861120223272746
:105AC0009EE700BF6878800700F1668107EB06104B
:105AD00000F51A7207CA114481427FF645AF97F864
