:0200000490006A
:100000000006002085030090213E0090F13B009007
:10001000193E009011090090516A00900000000004
:10002000000000000000000000000000E13E009021
:10003000B909009000000000393E0090E93E0090B0
:100040009F030090000000009F0300909F0300901A
:100050009F0300909F03009000000000000000003C
:100060009F0300909F0300909F03009000000000FA
:10007000000000009F03009000000000000000004E
:100080009F0300909F0300909F0300909F030090A8
:100090009F0300909F0300909F0300909F03009098
:1000A0009F0300909F0300909F0300909F03009088
:1000B0009F0300909F0300909F0300909F03009078
:1000C0009F03009000000000000000009F030090CC
:1000D0009F0300909F0300909F0300909F03009058
:1000E0009F0300909F0300909F0300909F03009048
:1000F0009F0300909F0300909F0300909F03009038
:100100009F0300909F0300909F0300909F03009027
:100110009F0300909F0300909F0300909F03009017
:100120009F0300909F0300909F0300909F03009007
:100130009F0300909F0300909F0300909F030090F7
:100140009F0300909F0300909F0300909F030090E7
:100150009F0300909F0300909F0300909F030090D7
:100160009F0300909F0300909F0300909F030090C7
:100170009F0300909F0300909F0300909F030090B7
:100180009F0300909F0300909F0300909F030090A7
:100190009F0300909F0300909F0300909F03009097
:1001A0009F0300909F0300909F030090293E0090C2
:1001B0009F0300909F0300909F0300909F03009077
:1001C00000000000000000009F0300909F030090CB
:1001D0009F0300909F0300900000000000000000BB
:1001E000000000009F0300909F0300909F03009079
:1001F0009F0300909F03009000000000000000009B
:100200009F0300909F0300909F0300909F03009026
:100210009F0300909F0300909F0300909F03009016
:100220009F0300909F0300909F0300909F03009006
:100230009F0300909F0300909F0300909F030090F6
:100240009F0300909F0300909F0300909F030090E6
:100250009F0300909F0300909F0300909F030090D6
:100260009F0300909F0300909F0300909F030090C6
:100270009F0300909F0300909F0300909F030090B6
:100280009F0300909F0300909F0300909F030090A6
:100290009F0300900000000000000000000000002C
:1002A0009F0300909F0300909F0300909F03009086
:1002B00000F002F800F057F814A696E8000CB244DB
:1002C000B344DA4501D100F04EF8BAE80F000FA6AA
:1002D00096E83000A5EB040504EB0607AAEB07043B
:1002E000A7F101074FEA15154FEA3414A4F10104F0
:1002F000AC4201D300F037F813F0010F18BFFB1A1E
:1003000043F0010300F001F8DBE71847EC69000057
:100310001C6A0000103A24BF78C878C1FAD8520786
:1003200024BF30C830C144BF04680C60704700006F
:10033000704700000023002400250026103A28BF43
:1003400078C1FBD8520728BF30C148BF0B60704747
:10035000642900F07580002070471FB506F0B1FCDD
:100360001FBD10B510BD00F0E4F91146FFF7F5FF11
:1003700006F072FB00F002FA03B4FFF7F2FF03BCD1
:1003800000F00AFA0948804709480047FEE7FEE7FF
:10039000FEE7FEE7FEE7FEE7FEE7FEE7FEE7FEE735
:1003A00004480549054A064B70470000114000907B
:1003B000B102009000000020000600200002002092
:1003C000000200200FB41CB5084B06AA7B44694606
:1003D0000090059800F095F904460020694600F069
:1003E000A3F920461CBC5DF814FB00005903000073
:1003F00070B5044685690068C10601D5302600E065
:100400002026C00707D070BDD4E9012130469047AF
:10041000206A401C20626D1EF6D570BD70B5044682
:1004200085690078C00707D170BDD4E9012120207B
:100430009047206A401C20626D1EF6D570BD0000FA
:100440002DE9F0410646002410687529314616A5AD
:1004500010D0AFF30080002802DA404213A507E075
:1004600031688A0701D512A502E0490704D511A514
:10047000012401E0AFF3008000210A2206F12407E5
:1004800009E0B0FBF2FCB0FBF2F302FB1C003030E1
:1004900078541846491C0028F3D123462A46304692
:1004A000BDE8F04100F0CEB8000000002D000000D3
:1004B0002B000000200000002DE9F05F8946044673
:1004C0004FF0000ADFF824B1FB44C0F820A020461A
:1004D000E168884700287DD0252806D0D4E901218D
:1004E0009047206A401C2062F1E700255F462046C5
:1004F000E16888472028064607DB312E05D2B81967
:1005000010F8200C08B10543F1E7A80701D525F044
:100510000405C4F81CA00027C4F818A02A2E09D08E
:10052000304606F0C7FB38B304EB8708303EC8F806
:10053000186019E059F8041B204604EB870291610A
:10054000E1688847012F064618D1E069002820DAC3
:1005500025F020051DE0D8F8180000EB800006EB20
:1005600040003038C8F818002046E1688847064641
:1005700006F0A0FB0028EED1012F0AD02E2E08D1C4
:100580002046E16888477F1C0646022F45F020057B
:10059000C4DBA069002803DA404245F00105A061F0
:1005A000E80701D025F01005A6B1A6F141001928F1
:1005B00002D8203645F400654A463146204625607B
:1005C0004D46FFF7C5FE60B1012807D0ED1D25F0AF
:1005D000070000E007E000F1080978E705F10409E9
:1005E00075E730467AE7206ABDE8F09F10680000A2
:1005F0004FF0000200B5134694469646203922BFBC
:10060000A0E80C50A0E80C50B1F12001BFF4F7AF06
:10061000090728BFA0E80C5048BF0CC05DF804EBE8
:10062000890028BF40F8042B08BF704748BF20F856
:10063000022B11F0804F18BF00F8012B7047704754
:10064000704770472DE9F0470D469946924604469B
:1006500000F124080168880604D5E06921F0100142
:10066000216000E00120A84201DD471B00E00027D7
:10067000A1697A1902EB0900081AA0612078C00666
:1006800002D42046FFF7B4FE002608E0D4E9012199
:100690001AF806009047206A401C761C20624E45DE
:1006A000F4DB2078C0060AD52046FFF7A1FE06E05D
:1006B000D4E9012130209047206A401C2062381E76
:1006C000A7F10107F4DC07E0D4E9012118F80500DF
:1006D0009047206A401C2062281EA5F10105F3DC2A
:1006E0002046FFF79BFE2078000602D50220BDE8D9
:1006F000F0870120FBE7000001694A1C02610878CD
:10070000704700B58FB0CDE9013100210591054951
:100710007944CDE9031011466846FFF7CDFE0FB0CE
:1007200000BD0000E5FFFFFF0A6802F8010B0A6048
:100730007047754600F02CF8AE46050069465346F2
:1007400020F00700854618B020B5FFF729FEBDE868
:1007500020404FF000064FF000074FF000084FF028
:10076000000BAC46ACE8C009ACE8C009ACE8C00975
:10077000ACE8C00921F007018D46704710B504466A
:10078000AFF300802046BDE81040FFF7F5BD000044
:1007900000487047F800002401491820ABBEFEE76E
:1007A0002600020070470000B0B5016804468A6860
:1007B0008868C0074FF0000031D012F0020218BF65
:1007C000B0BD886800F00D0001281FD14FF6C0723F
:1007D0008868C7F6FF721040023088600320086006
:1007E00000F096FE21688968C90701D10020B0BDDC
:1007F000054602E08068C007F8D000F089FE401B83
:1008000003282068F6D38168C907F3D0A06D40F0B3
:100810001000A065E06D40F00100E0650120B0BD72
:1008200070B582B000210191044600688268D20749
:1008300011D14FF6C0768168C7F6FF7606F17F02C8
:1008400011420BD0A06D012140F01000A065E06DB9
:1008500040F00100E065084602B070BD816831409B
:1008600041F00101816042F20830C4F202000068E8
:1008700000022AD540F2240042F66351C2F2004041
:10088000C0F23E5100688009A0FB010188090C21DB
:1008900000EB400001EB800002E000BF019801384E
:1008A0000190019888B1019801380190019860B1D8
:1008B000019801380190019800281FBF0198013864
:1008C0000190019818BF0028E8D100F021FE2168AE
:1008D0000A68D20718D1054603E000BF0868C007C0
:1008E00012D18868C00704D18868304040F0010008
:1008F000886000F00DFE401B21680328EED30868D5
:10090000C007EBD19EE700BF0021084602B070BDD2
:10091000FEE700000000000000207047000000001B
:10092000002070470000000010B541F2BC3440F6D2
:10093000BC31C2F20044C2F200410022204603F062
:1009400067FE40F2BC312046C2F2004103F050FE87
:10095000002010BD0000000010B541F2BC3401467B
:10096000C2F20044204603F043FE204603F064FD3B
:10097000002010BD000000000020704700000000B3
:1009800041F2BC32C2F20042D2F8BC22D2F81422A8
:10099000002A1CBF0120704710B541F2BC340A4642
:1009A000C2F200440146204603F032FE2046BDE874
:1009B000104003F0B5BE00007047000000000000CA
:1009C00072B600BFFEE70000B0B582B0002201920F
:1009D000044690F85400012802D1022002B0B0BDB4
:1009E000012084F8540020460D46FFF7DDFEA16D7E
:1009F00010B141F0100149E041F202124FF6C0730C
:100A00009143C3F6FF730231A165216805F080456B
:100A10008A6813404FF2FF72C2F2C3522B4403F1B3
:100A200000438B608B68B3F1FF3F2BDC019B0133EC
:100A30000193019B93421DD88B68B3F1FF3F21DCEA
:100A4000019B01330193019B934213D88B68B3F14F
:100A5000FF3F17DC019B01330193019B934209D8AF
:100A60008B68B3F1FF3F0DDC019B01330193019BC8
:100A70009342D7D9A06D40F0100020F00201012070
:100A800004E000BFA16D012262F30101A165002114
:100A900084F8541002B0B0BDF0B581B000220092CD
:100AA00090F85420012A03D10221084601B0F0BD7C
:100AB0000768012380F85430BB685B0738D4D1E95C
:100AC00000354FF01F0CC5F3012405F01F050CFA8B
:100AD00005F607EB8404C3F38463226BAB40B24397
:100AE0001A432263BA68BB6802F0040203F00803E9
:100AF000D21840F0BE800A6807F114030725D1F828
:100B000008C0C2F340664FF0040EC2F30454BCF1B7
:100B1000004F53F8266005FA04F50EEAD25E26EA85
:100B200005050BD143F80E501A6842F000430DE062
:100B3000816D41F020018165012185E10CFA04F20B
:100B40002A4343F80E201A6822F000437B61D1E962
:100B50000434042BFD685FD13A6E4FF6FF7E3A6E87
:100B60000B68C0F2070E93FAA3F6B6FA86F5C3F344
:100B7000846C2C466FF3DF43C2F38462002B08BF02
:100B80006446A2420CD13A6E22F000423A660A68EC
:100B900002EA0E03C2F3846C92FAA2F2B2FA82F570
:100BA0007A6E2C467A6E002B08BF6446C2F38462CC
:100BB000A2420CD17A6E22F000427A660A6802EAFA
:100BC0000E03C2F3846C92FAA2F2B2FA82F5BA6E04
:100BD0002C46BA6E002B08BF6446C2F38462A24260
:100BE0000CD1BA6E22F00042BA660A6802EA0E031D
:100BF000C2F3846C92FAA2F2B2FA82F5FA6E002B7A
:100C0000FA6E08BF6546C2F38462AA4231D1FA6E19
:100C100022F00042FA662CE0062207F1600602EAA2
:100C200095020D684FF2000C04FA02F256F82340C8
:100C3000C0F2FF3C05F0F84504EA0C042A432243C5
:100C400042F0004246F823200A698B6956F8225088
:100C500025F080752B4346F822300A690B7F012B63
:100C600056F8225025F0007508BF05F1007546F8CA
:100C70002250BA680C68D20752D12346CA686FF373
:100C8000DF43D7F8B06026EA030C4FF6FF7602F098
:100C90001805C0F20706EE400025C4F27F05264085
:100CA000AA4246EA0C02C7F8B02039D193B194FAAF
:100CB000A4F2B2FA82F2013202F01E03092B02F012
:100CC0001F0310D8012203EB43069A4042EA065361
:100CD00015E000BF012202EB946202F01E030A2B12
:100CE00002F01F03EED3012203EB43069A400023D8
:100CF000CFF6206303EB06531A4342F00073C3F3AD
:100D000040620725C3F304538E6807EB82029D40BF
:100D1000546906FA03F324EA05052B4353610C6872
:100D20000021C8F208010C4200F08D8042F2083C1C
:100D30000021C4F2020CCCF221318C42DCF80030EC
:100D400003F0E07108BF13F4000215D00022C4F2D2
:100D5000293294424CD10022B2EB116F48D1ACF54C
:100D6000027297426FD1DCF8002022F0E07211434A
:100D700041F0807165E000BFACF54272974262D1EC
:100D8000DCF8002022F0E072114342F6635241F495
:100D90000001CCF8001040F22401C0F23E52C2F231
:100DA000004109688909A1FB021291090C2201EB9B
:100DB000410102EB810100910099002943D0009983
:100DC00001390091009900293DD000990139009125
:100DD0000099C1B3009901390091009999B3009924
:100DE00001390091009900294FF00001E7D12BE073
:100DF0000022CCF25272944208BF13F4800215D044
:100E0000ACF502718F424FF000011DD10022C4F2F7
:100E10005A72944218D14FF6C061CFF6FF715CF858
:100E2000012042F001024CF801200CE0ACF54272C6
:100E3000974208D1DCF8002022F0E072114341F41F
:100E40008001CCF800100021002280F854200846D0
:100E500001B0F0BD000000000068006C70470000A9
:100E6000B0B582B0044600284FF00000019009D0D0
:100E7000A06D58B121688868800012D48868C000CD
:100E800019D54CE0012002B0B0BD00BF204600F0F3
:100E9000E7F80020E06584F8540021688868800045
:100EA000ECD54FF6C0728868C5F6FF7210408860B6
:100EB0008868C00033D44FF6C0708A68C5F6FF70EA
:100EC00000F18050104042F6635200F1805088607B
:100ED00040F22400C0F23E52C2F200400068800995
:100EE000A0FB02029009022202EB400002E000BFD8
:100EF000019801380190019888B10198013801905A
:100F0000019860B1019801380190019800281FBF35
:100F1000019801380190019818BF0028E8D188682D
:100F2000C00009D4A06D40F01000A065E06D40F055
:100F30000100E065012000E000208A68A36D03F055
:100F4000100302F00402D218A26D6DD122F4817256
:100F50000232A2658A68D20718D142F208354FF6EC
:100F6000005C4FF6006EC4F20205CFF6FF7CCFF6B0
:100F7000FF7E55F80C3055F80E201A43D20705D1E4
:100F800062682B6823F47C131A432A6094F819C012
:100F9000A36BD4E902E243EA4C3394F820501A439D
:100FA00042EA0E02012D42EA054206D1636A00259B
:100FB000CFF6FE7505EB43431A43A36A23B103F44E
:100FC0007873E56A2B431A4344F20705CB68CFF6E2
:100FD000F0752B401A43CA600A69236B22F0406205
:100FE0001A430A618A68120727D4227E636BCD6890
:100FF00044F2060C43EA823225EA0C031A43CA6023
:1010000094F83C20012A0A6914D140F2FD739A43F6
:10101000D4E910351A43A36C2A43E56C1A432A43DA
:1010200042F0010208E000BF42F010010120A1657A
:1010300002B0B0BD22F001020A6122690B6B012AE5
:1010400023F00F0202D1E369013B1A430A63012234
:10105000A16D62F30101A16502B0B0BD0000000006
:1010600010B5A8B002A90446002027902690081DBC
:101070008021FFF7BDFA42F200112068C4F202019C
:10108000884201D028B010BD1020029002A801F0C3
:101090005FFC08B1FFF794FC44F23850C5F602003B
:1010A000016841F0200101600168019101998168A6
:1010B00041F0010181608068019001980120239036
:1010C00003202490002025900020C5F6020023A9CB
:1010D00000F032F928B010BD2DE9F04742F208398E
:1010E0000446C4F202090D46D9F80000D4F8148071
:1010F000B8F1080F00F01F0A02D108270FE000BF67
:10110000BAF1090F36D8012040F2212100FA0AF085
:1011100008422FD02068C068C00730D1042700F0F3
:10112000F7F921680A683A423CD10646681C30D07B
:101130006DB900BF00F0ECF92168086838420FD0A3
:1011400008683842F6D02DE0086838422AD100F00D
:10115000DFF9801B2168A842F6D908683842F3D12C
:10116000A06D40F00400A065002084F85400032026
:10117000BDE8F087D9F8000010F4604FCED0A06D24
:1011800040F02000A0650120BDE8F08708683842E3
:1011900008D10868384205D10868384204BF086899
:1011A0003842F3D0A06D40F40070A065C86810F418
:1011B000406F0FD1607E68B9086800070AD5A06D3E
:1011C00020F48070A065A06DC00403D4A06D40F031
:1011D0000100A065A9F502708142084608BFA9F583
:1011E0004270BAF1090F024608BF0A46BAF1050F6C
:1011F00008BF0A46BAF1000F08BF0A46884208BF76
:101200000246B8F1080FD06802D1082003E000BF01
:10121000400401D40C2008600020BDE8F0870000E5
:1012200070B542F200050446C4F20205D5F8086321
:1012300000688068400703D494F85400012801D165
:10124000022070BD012084F854002046FFF7E8FA20
:1012500020B1002084F85400012070BD206805F5FD
:101260008071884240F6017218BF0546A16D21EADF
:101270000203291AB1FA81F206F01F01520903F59F
:101280008073A36500D119B9A36D23F48013A365FE
:10129000A36D0026DB044FF0000344BFE66D26F08B
:1012A0000606E6654FF01C06066084F8543042B925
:1012B000092919D8012202FA01F140F22122114232
:1012C00012D0C168890104D5A16D012262F30D31EC
:1012D000A1654FF6C0728168C7F6FF7211400431F4
:1012E0008160002070BD00BFA06D40F48010A0653B
:1012F000E868800102D4002070BD00BFA06D01210C
:1013000061F30D30A065002070BD000000000000FA
:10131000B0B5044600F0FCF840F200010546C2F208
:101320000041621C097818BF0C4400BF00F0F0F8BF
:10133000401BA042FAD3B0BD2DE9F04F82B00F6838
:10134000002F00F0C9804FF67F728E46C0F229024E
:101350004FF0000B0024002602EA90220092019137
:101360000BE000BF0136DEF8007037FA06F204F138
:1013700002040BF1040B00F0AF800122B24017EA27
:10138000020AEFD0DEF80480032308F0030903FA11
:1013900004FCA9F10105012D12D88568DEE902E3FC
:1013A00025EA0C0703FA04F53D438560C8F30015F0
:1013B000476827EA0202B5402A43426008E000BFBE
:1013C000DEF808E0B9F1030F08BFBEF1010F2DD020
:1013D000C26873006FEA0C0122EA0C020EFA04F5EF
:1013E000B9F1020F42EA0502C2601BD16FF003029D
:1013F0000BF01C0502EA56020F27024407FA05FE0D
:10140000D2F820C0019F2CEA0E0CBE46D7F81080FF
:1014100008FA05F545EA0C051562D7F8048008F0CE
:1014200003090BE0DDF804E008E000BF4FF003091A
:10143000234609FA04F2DDF804E0D143026809FA10
:1014400003F50A4018F4403F42EA0502026089D0E1
:1014500040F2305826F00302C5F600080BF00C05E8
:101460000F2152F808C001FA05F7009B2CEA070784
:1014700003FA05F54FF0B0412F4342F808700A68AF
:10148000DEF8047042EA0A05FB0258BF22EA0A05A8
:1014900040F2040CC5F6000C0D60BD02DCF8002023
:1014A00042EA0A0358BF22EA0A03BD03CCF800301F
:1014B000DCF8802042EA0A0358BF22EA0A03FF034D
:1014C000CCF88030DCF87C2042EA0A0358BF22EADC
:1014D0000A03CCF87C3045E702B0BDE8F08F00008D
:1014E0000069084018BF012070470000000000009C
:1014F000426902EA0103914341EA03418161704775
:101500001823002A08BF2823C1507047000000009C
:1015100041F61840C2F20040006870470000000029
:1015200040F2000041F61841C2F20040C2F2004110
:1015300000780A681044086070470000000000004E
:1015400080B5032000F07CF80F2000F009F8002897
:101550001CBF012080BD00F02BF8002080BD0000E2
:1015600070B540F20006C2F200463178E1B104469F
:1015700040F22400C2F200404FF47A72B2FBF1F163
:101580000068B0FBF1F002F00FFB0F2C4FF00105EB
:1015900008D838B94FF0FF3000222146002500F06E
:1015A0001FF87460284670BD012070BD0000000067
:1015B00001F0A6B900000000002848BF704700F005
:1015C0001F01012202FA01F14EF20012C0F34A108B
:1015D000CEF2000242F82010704700000000000028
:1015E00070B54EF60C5C4FF0FF36CEF2000C00F1F9
:1015F000604505F56445DCF80030C3F3022E8EF03B
:101600000703042B28BF0423BEF1030406FA03F3E7
:1016100021EA030100F00F0338BF0024043B002837
:10162000634406FA04F048BF03F10C05A14022EA26
:10163000000008430001287070BD00000000000099
:101640004EF60C514FF6FF03CEF200010A681A4025
:1016500060F30A2242F0806040F0FD70086070473D
:1016600001680122C0F8D824002280F8CC248869BF
:1016700040F000608861486D40F08052002042F0E8
:1016800003024A6570470000704700000000000038
:1016900002680020516270472DE9F043D0F80080C5
:1016A000D8F8243081B1D8F82870B1F1010E03EBDD
:1016B000174355D05FFA8EF10EF0030C04290BD2BC
:1016C000002700212DE000BF002043EA0241C8F8B6
:1016D0002810BDE8F08300BF0EF0FC0908F1F40506
:1016E000002108F5827600BF55F8107F41F0010017
:1016F000C0B241F00304E4B203EB174341F0020728
:1017000056F82000FFB2043103EB104056F82730A2
:1017100056F82440CFB200EB13404F4500EB144382
:10172000E2D1BCF1000F1BD008EB8700BCF1010F28
:10173000D0F8040103EB104312D0481CBCF1020F97
:10174000C0B208EB8000D0F8040103EB104307D0CF
:10175000881CC0B208EB8000D0F8040103EB1043F2
:1017600008EB8E0043EA0241C0F804110020BDE8F6
:10177000F083000000000000D0F8E00403F00CBA91
:1017800001EBC10200EB8202D0F8E004126A03F020
:1017900063B900000000000001EBC10200EB82020F
:1017A000D0F8E004D2F8602203F0B6B900000000DF
:1017B000D0F8E00403F0F4B910B54AB2044601F0E1
:1017C0000F00B2F1FF3F00EBC00104EB81020BDD23
:1017D00002F51571002382F8553294F894240870AC
:1017E000012A0AD1022010BD02F114010123537510
:1017F00094F894240870012AF4D0012084F8940409
:10180000206803F0F9FF002084F8940410BD000064
:10181000B0B50279044601F00F00904202D90120D0
:10182000B0BD00BF49B2B1F1FF3F09DD00EBC0011F
:10183000002304EB810202F5157182F8553207E0AE
:1018400000EBC001012304EB810202F11401537586
:1018500094F8942400258D70012A087002D102208A
:10186000B0BD00BF012084F89404206804F0DCFAC5
:10187000284684F89454B0BD01F00F0101EBC1017A
:1018800000EB8100D0F86802704700000000000003
:1018900070B54CB2064601F00F00B4F1FF3F00EB0B
:1018A000C00107DD06EB8104002504F5157184F8FD
:1018B000555206E006EB810C01240CF114018CF862
:1018C00015404D7808706FF3DF228A60002D0B7190
:1018D00018BF4883022B01D10020487196F8940468
:1018E000012801D1022070BD012086F894043068DF
:1018F00003F0D6FD002086F8940470BD00000000BF
:1019000080B501F00F0E0EEBCE0100EB810C002133
:10191000CCE998238379CCF868128CF855120CF531
:101920001571012B8CF854E208BFCCF870220068C6
:101930001A4604F0C5FA002080BD00000000000037
:10194000B0B50446007901F00F05854202D90120A7
:10195000B0BD00BF48B2B0F1FF3F09DD01EBC100EF
:10196000002204EB800000F5157180F8552207E095
:1019700005EBC500012204EB800000F11401427563
:1019800094F8942401208870012A0D7002D102205D
:10199000B0BD00BF84F89404206804F071FA1DB152
:1019A000002084F89404B0BDA179206804F29C4220
:1019B00004F00AFA002084F89404B0BD000000008E
:1019C00010B501F00F0C01240CEBCC0100EB810EE3
:1019D000714601F814CF4FF0000CC1F814C090F814
:1019E00006C04C70CA60BCF1010F0B6108BFCEF895
:1019F00030200068624604F063FA002010BD000049
:101A00002DE9F04F89B005688246284604F004FDB0
:101A100010B109B0BDE8F08FDAF8000004F02CFD39
:101A20000028F6D0D5F80808C0F30D20CAF8D40471
:101A3000DAF8000004F020FD8007DAF8000003D592
:101A4000416901F00201416105F50061049104F072
:101A500013FDC006DAF8000007953BD5816921F037
:101A6000100181612C6A04F00F05C4F3434006287D
:101A700018D0022827D147F6F07014EA000622D0C9
:101A800005EBC50034090AEB800707982246D7F812
:101A9000601204F0F5FCD7F8600200EB1610C7F8EE
:101AA000600207E00AF29C410822079804F0E8FC73
:101AB000C4F30A1405EBC5000AEB8000D0F86812E5
:101AC0002144C0F86812DAF80000816941F0100181
:101AD0008161079D04F0D0FC000340F10181DAF838
:101AE000000004F0A5FC002800F0FA8006460AF584
:101AF0001D784FF430644FF0000B0AF29C400890C0
:101B000009E000BF0BF1010B760804F1200408F195
:101B1000240800F0E580F007F4D05FFA8BF9DAF8DA
:101B20000000494604F0A0FC0746C00771D0281900
:101B300001218160DAF8000004EB000C036CDCF892
:101B400008209AF80650012D28D115073AD4950699
:101B500058D412F0280F079D5BD143F20B01C4F655
:101B600054718B4202D312F4004235D1D8F80020D0
:101B7000DCF810106FF3DF41BBF1000FA2EB0101A5
:101B800048F80C1C19D1DAF86422002A00F0A2806F
:101B9000DAF860020844CAF860020EE043F20B056E
:101BA000C4F65475FF35AB421CD110042CD49006FA
:101BB000079D02D52020CCF8080050464946FFF783
:101BC000EBFD26E043F20B00079DC4F65470834200
:101BD0001FD312F400401CD04FF40040CCF8080092
:101BE00017E000BFBBF1000F06D1DAF8641219B993
:101BF0000021089A04F0E8F850464946FFF7CCFD6A
:101C000006E000BF202001E04FF40040CCF80800BF
:101C1000079D38072CD528190821816043F20B0154
:101C2000DAF80000C4F65471056C20448D428168D6
:101C30000AD311F4004107D04FF4004181605046AF
:101C400000F01EFE079D09E0504600F019FE43F229
:101C50000B00C4F654708542079D09D39AF806001C
:101C6000012805D1DAF800000121089A04F0ACF847
:101C7000F80607D4B8070AD4B80620D4B8047FF50C
:101C800041AF22E0281910218160B807F4D56869B6
:101C9000000604D50499486840F48060486018F84C
:101CA0001D0C012806D1002008F81D0C504649469D
:101CB00000F012FC281902218160B806DED528192F
:101CC00020218160B8047FF51DAF28194FF4005121
:101CD000816017E70121089A04F076F86DE700BFEC
:101CE000DAF8000004F0C8FB4003DDF810B040F162
:101CF000E180DAF8000004F093FB002800F0DA80BD
:101D00000646079800F5106700250AF29C400290ED
:101D1000CDF814A0039704E0760805F1010500F062
:101D2000C980F007F8D0E9B2DAF80000089104F0B1
:101D300087FB0446C0070BD1200733D4E00637D415
:101D400060063BD4A0073FD42006E5D555E000BF90
:101D500005F00F00012307EB4512DBF8341003FAFE
:101D600000F021EA0000CBF8340093609AF80600F6
:101D7000012811D105EBC5000AEB8000D0E907125C
:101D80001144016245B9DAF8240028B9DAF80000F4
:101D90000121029A04F018F850460899FFF7F0FC68
:101DA0002007CBD507EB451008218160E006C7D599
:101DB00007EB4510102181606006C3D507EB451085
:101DC00040218160A007BFD50798294604F0B4FAE6
:101DD00005EBC5000AEB800010F8171F012905D19B
:101DE000002101705046089900F072FB07EB451086
:101DF0000221816020067FF58FAF05EBC5000AEB5D
:101E00008002914659F8241FC84658F8040F8142B1
:101E1000FFF482AF9346DAF800400B1A5BF81C7FA0
:101E2000BB4238BF1F4604EB4513069407F1030C71
:101E3000D3F81879BFB2B7EB9C0F29D303F5106A1A
:101E400002F12007D9F8001081421FD9081A05991C
:101E5000DBF80040A0428A7938BF04463968009216
:101E6000A3B20698089A04F0B7FD3868E11C204434
:101E70003860D8F800002044C8F80000DAF81820CC
:101E800092B2B2EB910FDDD2D9F80010DDF814A0B8
:101E9000DDE9037B81423FF63FAF069A05F00F0074
:101EA000012101FA00F0D2F8341821EA0000C2F84A
:101EB000340831E7DAF8000004F0DEFA00281DD417
:101EC000DAF80000079D04F0D7FA000536D4DAF8F6
:101ED000000004F0D1FA000141D4DAF8000004F067
:101EE000CBFAC0044DD4DAF8000004F0C5FA80043F
:101EF000DAF8000000F15D8176E100BFDBF8040054
:101F000020F00100CBF804009AF8CC04012807D196
:101F100000208AF8CC0400215046FFF7B5FB02E010
:101F2000504600F079FCDAF80000079D416901F0A5
:101F30000041416104F0A0FA0005C8D5DBF80800B3
:101F4000C00702D0504600F0C3FCDAF80000416937
:101F500001F40061416104F08FFA0001BDD5DAF8A7
:101F60000000416901F0006141619AF8CC14F9B1B7
:101F7000504600F0ADFCDAF8000004F07DFAC00431
:101F8000B1D5DBF80400102120F00100CBF80400EB
:101F9000DAF8000004F0D0F99AF80400010600F025
:101FA000CE80C1B200F00300042915D200217AE0EE
:101FB00001218AF8CC14406DC0F38300CAF8D00424
:101FC0005046FFF761FBDAF8000004F055FAC00450
:101FD0007FF589AFD5E700BF6FF06002002302EA0A
:101FE00041124FF67F370021EE1880339A4201F1FB
:101FF0000401C6F80879D6F8005925F40015C6F88A
:102000000059C6F8087BD6F8005B25F40015C6F821
:10201000005BD6F8005B45F00065C6F8005BC6F8CB
:102020002879D6F8205925F40015C6F82059C6F8A5
:10203000287BD6F8205B25F40015C6F8205BD6F87F
:10204000205B45F00065C6F8205BC6F84879D6F8F5
:10205000405925F40015C6F84059C6F8487BD6F813
:10206000405B25F40015C6F8405BD6F8405B45F0B0
:102070000065C6F8405BC6F86879D6F8605925F463
:102080000015C6F86059C6F8687BD6F8605B25F481
:102090000015C6F8605BD6F8605B45F00065C6F8D1
:1020A000605B079DA0D1002849D005F5106305F5B8
:1020B000306203EB41164FF67F374D010128B760C0
:1020C00002EB41145E5926F400165E51A760565982
:1020D00026F400165651565946F000665651079D93
:1020E0002DD04E1C02284FEA461403EB461502EB96
:1020F0004616AF601D5925F400151D51079DB760A8
:10210000175927F400171751175947F0006010515D
:1021100015D0881C4FF67F36470103EB401102EBC8
:1021200040108E60D95921F40011D9518660D059E0
:1021300020F40010D051D05940F00060D051DBF8AD
:102140001C0040F00110CBF81C009AF80F0048B1B9
:10215000DBF8840040F00B00CBF884000BF1440066
:1021600009E000BFDBF8140042F22B010843CBF872
:1021700014000BF1100001680AF29C4241F00B01BF
:102180000160DBF8000020F4FE60CBF800009AF854
:102190000610DAF8000003F017FEDAF800004169D3
:1021A00001F48051416104F067F98004DAF800001D
:1021B0001AD503F0BDF9DAF8000004F01DF98AF829
:1021C0000700DAF8004001F07BF99AF80720014691
:1021D000204604F075FB504600F006FBDAF80000DC
:1021E000416901F40051416104F046F9000707D448
:1021F000DAF8000004F040F900060FD4BEE000BF9A
:10220000504600F025FBDAF80000416901F00801B2
:10221000416104F031F9000640F1B080A86920F076
:102220008000A8619AF80400C1B20229C0F0A6801B
:102230004FF0FF316FF0010252FA80F251FA80F153
:10224000032A01F0030001D201215BE00AF27B279F
:1022500021F0030105F5386300223E4605E000BF8A
:1022600004328033914237464AD016F8905B012DF4
:1022700024D153F8605C45F0006543F8605C53F886
:10228000605C45F0804543F8605C97F82450012D70
:1022900018D097F84850012D24D153F8205C45F010
:1022A000006543F8205C53F8205C45F0804543F816
:1022B000205C97F86C70012FD2D117E097F824506A
:1022C000012DE6D153F8405C45F0006543F8405CD1
:1022D00053F8405C45F0804543F8405C97F848501F
:1022E000012DDAD097F86C70012FB9D11F6847F033
:1022F00000671F601F6847F080471F60B0E700BF9E
:10230000511C079DD0B301EBC1020AEB820292F887
:102310005722012A05F5306208D14B01D75847F002
:102320000067D750D75847F08047D750012825D0AD
:102330004B1C03EBC3070AEB870797F85772012F73
:1023400008D15B01D75847F00067D750D75847F0FE
:102350008047D750022811D0881C00EBC0010AEB3F
:10236000810191F85712012908D14001115841F01B
:1023700000611150115841F080411150DAF800000D
:1023800004F07AF8C0024FD4DAF8000004F074F8D0
:10239000800240F17E809AF8041002292BD307981E
:1023A000013900F532600AF51F72012304E000BF15
:1023B000013900F120001ED01746066812F8245B90
:1023C000012DF5D1B6F1FF3FF2DCDAF8D45485EAFD
:1023D0001646F607ECD1079E07F8013CB76947F0AF
:1023E0008007B76177693F06E2D4DBF8040040F468
:1023F0000070CBF80400DAF80000416901F4001124
:10240000416104F039F8400049D55046FFF7B4F96E
:10241000DAF80000416901F08041416104F02CF8D4
:10242000400743D4FFF7F5BA9AF80400022825D3F1
:1024300007990AF13C0501F512640126012703E022
:1024400001372034874219D22946226815F8243BE7
:10245000012BF5D1B2F1FF3FF2DC07F00F0001F8DC
:10246000016C00EBC0000AEB800000F11401DAF807
:10247000000003F03DFE9AF80400E1E7DAF80000FE
:10248000416901F48011416103F0F6FF80023FF5DC
:1024900082AFDAF8000003F0EFFF4000B5D4DAF8BD
:1024A000000003F0E9FF40077FF5B3AADAF8000067
:1024B0004468610704D55046FFF77AF9DAF800005E
:1024C00041682143416009B0BDE8F08F0000000081
:1024D000D0F8E00402F0C4BBD0F8E00402F0D8BBAE
:1024E000002800F03581F0B581B00446056890F809
:1024F000950428B9002084F89404204600F03CF9A3
:102500000020C4F2080085424FF0030084F89504CF
:1025100001D10020A071206803F04EFCD4E9000135
:10252000267CD4E90223009603F012F8002840F03C
:1025300009812068002103F0FBFF002840F00281A0
:1025400094F804E0BEF1000F00F0F380BEF1040F38
:102550000EF0030C4FF0000242D30EF0FC03A4F186
:1025600090000321012500BFCE1E80F8A460A0F8D2
:10257000BE608E1E80F8C8604F1CA0F8E2604E1E40
:1025800080F8EC609F42A0F8066101F1040680F833
:10259000A55080F8A820C0E92B22C0F8B42080F80C
:1025A000C95080F8CC20C0E93422C0F8D82080F887
:1025B000ED5080F8F020C0E93D22C0F8FC2080F802
:1025C000115180F81011A0F82A11314680F8142119
:1025D000C0E94622C0F8202100F19000C4D1F21ECB
:1025E000BCF1000F2DD002EBC2000121BCF1010FA4
:1025F00004EB80034FF0000059751A75DA851876E0
:10260000C3E9070058621CD0531CBCF1020F03EB56
:10261000C30504EB850569752B75EB852876C5E93F
:10262000070068620DD0901C012200EBC00104EB92
:1026300081014A750875C88500200876C1E9070040
:102640004862BEF1000F74D0BEF1040F4FF00002DB
:1026500037D30EF0FC000321234600BFCF1E83F8C2
:1026600054728F1E83F878724F1E83F89C724F1C31
:102670000D1D83F85522874283F85822C3E997221B
:10268000C3F8642283F8792283F87C22C3E9A0226C
:10269000C3F8882283F89D2283F8A022C3E9A922E7
:1026A000C3F8AC2283F8C12283F8C012294683F80C
:1026B000C422C3E9B222C3F8D02203F19003CDD1E2
:1026C000EA1EBCF1000F34D002EBC200BCF1010FD6
:1026D00004EB80014FF0000081F8550281F854228C
:1026E00081F85802C1E99700C1F8640221D0511C59
:1026F000BCF1020F01EBC10304EB830383F8550225
:1027000083F8541283F85802C3E99700C3F86402AF
:102710000FD0901C002200EBC00104EB810181F876
:10272000552281F8540281F85822C1E99722C1F854
:102730006422D4E90001277CD4E90223009703F046
:10274000BFF838B1022084F89504012001B0F0BD33
:102750000120704700206074012084F89504207BDC
:10276000012802D12046FEF77BFF206803F098F88D
:10277000002001B0F0BD000010B5A2B001A90446D0
:10278000081D8021FDF734FF00212068C4F20401F8
:10279000884201D022B010BD4FF08040019001A8C6
:1027A00000F0D6F808B1FEF70BF900F0B5F844F2E6
:1027B00038500022C5F60200016841F00071016046
:1027C000016800910099016841F080610160006832
:1027D000009000985B200621FEF702FF5B20FEF7C9
:1027E000EBFE22B010BD000010B50446C07928B140
:1027F000022801D0FEF7E4F8012100E00021D4F81E
:10280000E00402F0D5FAD4F8E004BDE8104002F08C
:102810007FBA00000000000010B50446C07A48B13D
:1028200001F0B6F94EF61050CEF20000016821F02A
:10283000060101602068D0F8001E21F00101C0F8F7
:10284000001ED4F8E004BDE8104002F095BA000084
:10285000D0F8E00402F09CBA10B5044690F8940455
:10286000012801D1022010BD012084F89404617474
:10287000206804F011F8002084F8940410BD0000D2
:10288000D0F8E02400F29C41104602F0A9BA000002
:1028900010B5044690F89404012801D1022010BD1F
:1028A0002068012184F89414C168490606D5617B2B
:1028B000012903D1816B41F48031816303F034FD40
:1028C000206802F0DDFF002084F8940410BD0000B1
:1028D00010B50446D0F8E00402F0DEFAE07A0028F1
:1028E00008BF10BD01F078F94EF61050CEF200008E
:1028F000016841F00601016010BD00000000000009
:1029000044F60C00C5F60200016841F00061016068
:102910007047000000000000B0B544F60C05C5F695
:102920000205286840F080702860FEF7F1FD04463B
:102930002868400108D4FEF7EBFD001BB0F57A7F54
:10294000F6D90120B0BD00BF0020B0BD00000000DE
:102950002DE9F041016844F22C4804464803C5F6CD
:10296000020805D400200122CB0700F08A8064E031
:10297000D8F8440010F44071E06F25D000F44072A4
:10298000914221D0D8F8D41341F48071C8F8D413FF
:10299000D8F8D413C90505D4012000222168CB073B
:1029A0004BD16EE0D8F84410D8F8442042F480327D
:1029B000C8F84420D8F8442021F4407122F4803231
:1029C000C8F84420C8F84410B0F5807F15D1FEF750
:1029D0009FFD054641F28837D8F8440080070BD4A4
:1029E000FEF796FD401BB842F6D90320002221686D
:1029F000CB0722D145E000BFE06F58F81C1C6FF0F8
:102A0000300221F47C5102EA101210F47C3F00F4F1
:102A1000407018BF1143012248F81C1CD8F844101C
:102A20000843C8F84400D8F8440040F40040C8F80F
:102A3000440000202168CB0723D06368032B11D802
:102A40004027DFE803F00317150300BFCAB1D8F829
:102A5000202022F003021A43C8F8202000228B070E
:102A600012D43DE0012201208B070DD438E000BFD5
:102A70004FF48027D8F800502F43C8F80070002A80
:102A8000E5D102468B072BD5A56875B1102D05D071
:102A9000202D31D14FF4801302E000BF4FF400230A
:102AA000D8F800703B43C8F80030134682B148079D
:102AB00019D418460B0730D5D8F82030276923F0F1
:102AC00040533B43C8F820308B025DD527E000BF60
:102AD000D8F8202022F030022A43C8F82020002213
:102AE00003464807E5D5E5689DB1402D0AD0802D05
:102AF0003CD14FF4801007E0012201234807F2D4B3
:102B0000D7E700BF4FF40020D8F800703843C8F86A
:102B100000001046F2B10B07CED48B0234D5656DA0
:102B200025B1042D10D14FF4801301E04FF40023A0
:102B3000D8F8007043EA0703C8F800301346DAB14A
:102B4000C8065BD523E000BF01220123C8061ED4BE
:102B500054E000BFD8F82000002220F0C000284335
:102B6000C8F8200018460B07D7D5A5E70122012099
:102B70000B07D2D5A0E700BFD8F8202022F004022E
:102B80002A43C8F8202000220346C80636D56569C6
:102B900045B1B5F1007F0CD0B5F1807F62D14FF027
:102BA000005001E04FF48030D8F800703843C8F886
:102BB00000001046D2B18B0623D40546480637D50F
:102BC000D8F82400E36920F040501843C8F82400E6
:102BD00008062FD5D8F82000236A20F44030184387
:102BE000C8F82000C8054BD526E000BFD8F8200063
:102BF000002220F040702843C8F8200018468B06B9
:102C0000DBD5A3694FEA3357052F00F225834FF434
:102C10008035DFE817F007002B03290307000700C2
:102C2000070000BF002A154600F029834806C7D4D4
:102C30000806CFD4C80523D5606A40B1B0F5802F0F
:102C40000AD1D8F8003043F08043C8F8003013466A
:102C500072B1880536D516E001220123880512D409
:102C600030E000BF012201208B06CAD4A5E700BFD7
:102C7000D8F8202022F4802210430022C8F8200037
:102C80002B4688051ED5A56A75B1B5F5800F05D010
:102C9000B5F5000F3AD14FF4803000E04020D8F86D
:102CA00000703843C8F8000010461AB10B0531D542
:102CB0000BE000BFD8F82400002220F44000284395
:102CC000C8F8240018460B0524D5E56A6FF0010307
:102CD00003EB3533022B0AD34FEA35333BB1012BDB
:102CE00054D1D8F8003043F00053C8F800301346F0
:102CF00012B148054ED510E0D8F8242022F44052F5
:102D00002A43C8F82420002204E000BF0122012049
:102D10000B05DAD4034648053CD5256B6FF001005E
:102D200000EB352002280BD34FEA352040B10128B3
:102D300040F04681D8F8000040F00050C8F800008C
:102D40001046CAB1CB0428D4034688043CD41846A4
:102D50004B044FD40346080400F163801846CB03AC
:102D600040F17580D8F8003043F00053C8F80030C7
:102D70008B0340F1DB806CE0D8F82400002220F4C3
:102D800040702843C8F8240004E000BF012201235A
:102D90004805C2D41846CB04D6D5656B4FEA3543F7
:102DA000052B00F27B824FF48037DFE813F0070039
:102DB0007F027D0207000700070000BF002A1346BC
:102DC00000F07D828804C2D5A56B4FEA3520052826
:102DD00000F282824FF48037DFE810F006008602AE
:102DE0008402060006000600002A104600F08582D4
:102DF0004B04AFD5E56B4FEA3533052B00F28A82E1
:102E00004FF48037DFE813F006008E028C020600D4
:102E100006000600002A134600F08D8208047FF5A4
:102E20009DAF256C052D00F293824FF40030DFE852
:102E300015F007009702950207000700070000BF82
:102E4000002A104600F09582CB033FF58BAF8B0331
:102E50006CD5A36CB3F1006F07D0002B58D1D8F814
:102E6000007047F00057C8F80070002A154655D08A
:102E700008035ED42B46C80271D418464B0200F1F9
:102E800084800346080200F1B5801846CB0100F1AA
:102E9000C6800346880100F1D88018464B0100F136
:102EA000EC800346C80000F1008118468B0000F159
:102EB00012810346480000F124811846B1F1FF3F1A
:102EC00000F32B81A36F6FF0010707EBB337022FDD
:102ED0000AD34FEAB3373FB1012F07D1D8F80070BA
:102EE00047F08057C8F80070002A5DD00120090122
:102EF00040F1168158F81C1CD4F8802021F40041C0
:102F0000114348F81C1C002818BF0120BDE8F081BF
:102F10000122012508030CD4ACE700BFD8F820201B
:102F200022F000621A43C8F8202000220546080358
:102F3000A0D5E06C4FEA3047042F00F21F814023F8
:102F4000DFE817F02801220126010600060000BF75
:102F5000002A134600F02781C8027FF58EAF256D49
:102F60004FEA3557052F00F211824020DFE817F0B5
:102F7000920290021402060006000600002A104683
:102F800000F091824B027FF57CAFA56E4FEA35676A
:102F9000032F1BD84023DFE807F021031F2600BFC3
:102FA0004FF480231AE000BFD8F8202022F44042DA
:102FB0001A43C8F82020090140F1B2809AE700BF07
:102FC00001220120CB043FF5E8AEBDE6012201233A
:102FD00008020FD459E700BF4FF00053D8F8007033
:102FE0003B43C8F80030002A134600F0B9800802BD
:102FF0007FF54BAFA56D4FEA3527042F00F2E08037
:103000004020DFE817F0E900E300E70005000500D5
:10301000002A104600F0E980CB017FF53AAFE56D5C
:103020004FEA3517042F00F2ED804023DFE817F058
:10303000F600F000F4000600060000BF002A134668
:1030400000F0F58088017FF528AF256E4FEA351036
:10305000052800F2A5814FF40037DFE810F00700E3
:10306000A901A70107000700070000BF002A1046BA
:1030700000F0A7814B017FF514AF656E4FEA351361
:10308000052B00F2AB814FF40037DFE813F00700A7
:10309000AF01AD0107000700070000BF002A13467B
:1030A00000F0AD81C8007FF500AFE56E052D00F2A0
:1030B000B3814FF40030DFE815F00700B701B50128
:1030C00007000700070000BF002A104600F0B58186
:1030D0008B007FF5EEAE256F052D00F2BB814FF41E
:1030E0000033DFE815F00700BF01BD01070007004E
:1030F000070000BF002A134600F0BD8148007FF59D
:10310000DCAE656F002D18BFB5F5805F0ED110469F
:10311000CAB1B1F1FF3F7FF7D5AE09013FF5EAAE85
:10312000002818BF0120BDE8F08100BFB5F5005FA1
:1031300040F08A80D8F8000040F08050C8F80000C5
:10314000002A1046E5D1D8F82000002220F4405093
:103150002843C8F820001846B1F1FF3FDDDCB1E696
:10316000D8F8242022F040722A43C8F824200022F4
:10317000034608027FF589AE3CE700BF0122012328
:10318000C8023FF5ECAE78E64FF4803302E000BFB2
:103190004FF00063D8F800703B43C8F80030002AB5
:1031A00013467FF4D9AED8F8282022F4E022104349
:1031B0000022C8F828002B46C8027FF55EAECEE696
:1031C00001220120CB013FF52AAF62E64FF48030A7
:1031D00002E000BF4FF00060D8F800703843C8F834
:1031E0000000002A10467FF417AFD8F8280000220C
:1031F00020F4E0602843C8F828001846CB017FF58A
:1032000048AE0CE70122012388013FF51EAF44E6DA
:103210004FF4803302E000BF4FF00063D8F8007035
:103220003B43C8F80030002A13467FF40BAFD8F8B0
:10323000242022F070022A43C8F8242000220346EA
:1032400088017FF52AAE00E701220120B1F1FF3F9E
:103250003FF763AF36E600BF0122012548067FF540
:10326000E7ACFFF7ADBC00BF4FF00065D8F80070C9
:103270002F43C8F80070002A15467FF4D7ACD8F861
:10328000202022F4E0021A43C8F82020002205463C
:1032900048067FF5CDACFFF793BC00BF01220123A8
:1032A00088043FF591AD52E54FF00057D8F8003053
:1032B0003B43C8F80030002A13467FF483ADD8F8AA
:1032C000242022F4E0222A43C8F8242000220346C6
:1032D00088047FF53CAD77E5012201204B043FF5E2
:1032E00089AD37E54FF00057D8F800003843C8F8EB
:1032F0000000002A10467FF47BADD8F82C00002295
:1033000020F4E0602843C8F82C0018464B047FF5F1
:1033100021AD6FE50122012308043FF582AD1DE5D3
:103320004FF00057D8F800303B43C8F80030002A6F
:1033300013467FF473ADD8F82C2022F4E0422A43E0
:10334000C8F82C200022034608047FF507AD68E585
:1033500001220120CB037FF57AAD03E54FF08050C9
:10336000D8F800703843C8F80000002A10467FF4EF
:103370006BADD8F82C00002220F007002843C8F8D5
:103380002C001846CB037FF562ADEBE4012201204F
:103390004B023FF5FAAD74E54FF000607AE000BFF4
:1033A000012201204B013FF568AE7AE54FF08057CE
:1033B000D8F800003843C8F80000002A10467FF40F
:1033C00059AED8F82800002220F070002843C8F831
:1033D000280018464B017FF564AD4EE6012201231B
:1033E000C8003FF562AE60E54FF08057D8F8003076
:1033F0003B43C8F80030002A13467FF453AED8F898
:103400002C2022F070022A43C8F82C200022034608
:10341000C8007FF54AAD48E6012201208B003FF548
:103420005AAE46E54FF08050D8F800703843C8F8DF
:103430000000002A10467FF44BAED8F82800002286
:1034400020F007002843C8F8280018468B007FF5B5
:1034500030AD40E60122012348003FF552AE2CE595
:103460004FF08053D8F800703B43C8F80030002A72
:1034700013467FF443AED8F8242022F007022A43F3
:10348000C8F824200022034648007FF516AD38E630
:103490004FF48030D8F800703843C8F80000002A94
:1034A00010467FF46FADD8F82800002220F4E00029
:1034B0002843C8F8280018464B027FF5E2AC64E5C3
:1034C00080B500F015F844F21C41C5F60201096808
:1034D00001F00F01082938BF80BD46F6ED42C9F260
:1034E0000002114411F8081CC84080BD0000000013
:1034F00080B544F20040C5F602000169C1F3C20183
:1035000003290FD0022921D031BB0168890629D5B2
:10351000016849F20002C0F2D032C1F3C10122FABF
:1035200001F166E0826A816AC36AD0F834C0C1F3EF
:103530000511B9B102F00302022A15D0C2B902681E
:10354000920619D49FED310A45E000BF43F20061B5
:10355000C0F26E114DE000BF40F60011C0F23D0117
:1035600047E000BF002144E09FED270A11E000BFC3
:103570009FED240A0DE000BF0268C2F3C10E49F2BC
:103580000002C0F2D03222FA0EF200EE102AB8EE9B
:10359000400A03F001029FED1E3A524202EADC02A9
:1035A0006FF35F3201EE102A026B6FF35F2202EEBF
:1035B000102AB8EE411AB8EE422A01EE032A01EEB3
:1035C000101AB7EE003AB8EE411A80EE010A32EE58
:1035D000031A20EE010A016BC1F34621013101EE0D
:1035E000101AB8EE411A80EE010ABCEEC00A10EEC5
:1035F000101A806900F00F00073838BF002021FA48
:1036000000F080BD0024744A001BB74B000000008E
:10361000000000390000000091E80510104344F25A
:103620001C02C5F60002CB68106043EA0C0044F2AD
:1036300020438A69C5F6000310435860186820F0DB
:10364000FF10D1E904210243002042EA0141196040
:103650007047000000000000B0B544F20400002AEA
:10366000C5F6000000684FEA104300F03F0CC0F3BD
:10367000042ECB70C0F3423281F801E081F802C021
:103680000A7001D00020B0BDDAB24FEA1E14120950
:1036900003F00F03050A00F00F0002EB820205F0B1
:1036A0000F0503EB4202CA7044EA84034FEA1C147C
:1036B00005EB43034B7044EA840200EB4200887040
:1036C0000020B0BD00000000B0B544F20000C5F617
:1036D000000083684B60C36803F44073B3F5807FD8
:1036E00014D00369002A6FF3DF338B60006800F0A9
:1036F0007F0C81F802C0C0F305430B70C0F3062EA7
:1037000081F801E0C0F38052CA7001D00020B0BD42
:103710001B09020C43EA830302F00F024FEA1E1456
:1037200002EB43020A7004EB84034FEA1C14050AFF
:1037300000F00F0004EB840205F00F0505EB4303D6
:103740004B7000EB420088700020B0BD000000000C
:10375000B0B370B5044690F82D0028B9002084F865
:103760002C00204600F06CF844F20C060220C5F64E
:10377000000684F82D003068C0065BD4306800F481
:103780004070B0F5807F55D0CA20B0615320B06141
:103790003068400620D4306840F080003060FDF78B
:1037A000B7FE3168490617D4054600BFFDF7B0FEE5
:1037B000401BB0F57A7F306804D84006F6D50BE0A0
:1037C00001207047400607D4032084F82D0031689B
:1037D000FF21B16170BD00BF4FF6BF71F068CFF639
:1037E0008F31231D0840F0600FCB1843A3691843A5
:1037F000F3681843F06042EA01407060306820F4DA
:10380000F850D4E90912084310433060204600F014
:1038100017FB18B1FF21B16170BD00BFF06820F047
:103820006040D4E907121043626908431043F06016
:10383000FF20B061012084F82D00002070BD000041
:1038400010B5A2B001A90446081D8021FCF7D0FEE6
:1038500044F200012068C5F60001884202D022B07F
:1038600010BD00BF4FF4802001904FF48070209075
:1038700001A8FFF76DF808B1FDF7A2F844F2545023
:10388000C5F6020050F8E41C41F4004140F8E41C85
:10389000016841F48031016000680090009822B016
:1038A00010BD0000000000002DE9F04381B0044687
:1038B00090F82C0001284FF0020000F097804FF0A4
:1038C000010384F82C3084F82D003AB14878CA7886
:1038D0008E78000240EA024845E000BF4878C20600
:1038E00003D500F0EF000A304870CA784FF0CD0CD5
:1038F000A0F10A054FF0010EA2F10A03DFB207FBA7
:103900000CF7FE0A0EEBD72706EB8606A3EB46085C
:10391000EEB206FB0CF3D6B2092E4FEAD32688BFCF
:1039200048EA071206EB86078E780EEBD3230928A8
:10393000D2B2A5EB470588BF45EA0310A6F10A03FA
:10394000DDB2C0B205FB0CF70002FD0A40EA0248F6
:10395000F2B205EB85000EEBD727092AA3EB400056
:1039600088BF40EA071644F20C0791F80090C5F6AC
:103970000007CA20B8615320B861386840061DD4DA
:10398000386840F080003860FDF7C2FD39684906AC
:1039900014D40546FDF7BCFD401BB0F57A7F3868AE
:1039A00002D84006F6D509E0400607D4032084F883
:1039B0002D003968FF21B96115E000BFF0B24FEA70
:1039C000493140EA080020F0C000084347F8080CDD
:1039D000204600F035FA4FF0FF01B96118B9012017
:1039E00084F82D000020002184F82C1001B0BDE8DF
:1039F000F0830000000000002DE9F04F81B0044684
:103A000090F82C0001284FF0020000F0BD8044F235
:103A10000C058846C5F60005012184F82C101646D1
:103A200084F82D00CA20A8615320A86128684006A8
:103A30001ED4286840F080002860FDF769FD2968E1
:103A4000490615D4074600BFFDF762FDC01BB0F55F
:103A50007A7F286802D84006F6D509E0400607D4E8
:103A6000032084F82D002968FF21A96189E000BFA7
:103A7000286800F44070B0F5807F77D0E8683EB1E8
:103A800040060DD44FF0000A88F803A00CE000BFF8
:103A9000400613D44FF0000A88F803A012E000BFDC
:103AA00098F803004FEA805A98F8000098F801202F
:103AB00098F80210120242EA004248E098F8030027
:103AC0004FEA805A98F800204FF0CD0C98F801305A
:103AD0004FF00109A2F10A01CFB207FB0CF7FE0A71
:103AE00009EBD72706EB8606A1EB460EA3F10A06E3
:103AF000F1B201FB0CF0D1B24FEAD02B092988BFFB
:103B00004EEA07120BEB8B0798F802105FFA83FE60
:103B100009EBD020A6EB4706BEF1090F88BF46EAA5
:103B20000013D2B2A1F10A00C7B2DBB207FB0CF757
:103B30001B02FE0A43EA024206EB8603CEB209EB01
:103B4000D727A0EB4300092E88BF40EA0711C8B26F
:103B500047F67F711043C0F27F0140EA0A00084037
:103B600045F80C0CE86820F48020E860204600F05E
:103B700067F94FF0FF01A96118B9012084F82D0001
:103B80000020002184F82C1001B0BDE8F08F000067
:103B90004EF21000CEF20000016841F00201016017
:103BA0007047000000000000411E0020B0EB116FC4
:103BB00002D00120704700BF4EF21002F023CEF277
:103BC000000251604EF62351CEF200010B70072126
:103BD00090601160704700004EF21000CEF20000BD
:103BE000016821F002010160704700000000000040
:103BF000FEE700000000000070B588B041F2986058
:103C000042F20011C2F2004000240794C4F2020103
:103C100001604FF44021C0E90114C0E903440425C8
:103C2000456104830126C66180F82040C0E90A444A
:103C3000C0E90C44846380F83C40FDF711F908B1F9
:103C4000FCF7BEFE06200190052002907F20694609
:103C5000CDE9030541F298600096C2F20040CDE93B
:103C60000544FCF719FF08B1FCF7AAFE08B070BDC7
:103C7000F0B587B044F240500026C5F6020040F28D
:103C80000044CDE905660168C5F6020441F004016F
:103C90000160016801910199016841F00101016031
:103CA000016801910199016841F002010160006819
:103CB000019001980421002220460427FDF720FCF2
:103CC00002AD4FF40050CDE902060220049004F545
:103CD00080602946FDF730FB01202946CDE9030627
:103CE000204602970596FDF727FB07B0F0BD0000C0
:103CF00010B58EB041F6E43044F20001C2F200404B
:103D00000024CDE90C44CDE90A44CDE90844CDE9CD
:103D10000544CDE90344CDE90144C5F60001446200
:103D2000C0E900147F218160FF21C0E90314C0E9CC
:103D300005444FF08041C0E90714FFF709FD08B1C1
:103D4000FCF73EFE41F6E43007A9C2F200400794BA
:103D5000CDE90A440C94FFF75FFC08B1FCF730FE94
:103D60000020ADF808008DF80A0002A9CDE9050091
:103D700041F6E4300122C2F20040FFF73DFE08B1F7
:103D8000FCF71EFE40F2011001A9C2F201500190A1
:103D900041F6E4300122C2F20040FFF785FD08B190
:103DA000FCF70EFE0EB010BD80B541F2BC3040F203
:103DB0000801C2F20040C2F20041012200F010FEF0
:103DC00008B1FCF7FDFD41F2BC3040F22801C2F21F
:103DD0000040C2F2004101F08FF808B1FCF7F0FD9D
:103DE00041F2BC3040F2C401C2F20040C2F20041D4
:103DF00000F03AFB08B1FCF7E3FD41F2BC30C2F23F
:103E0000004001F0A5F8002808BF80BDBDE8804053
:103E1000FCF7D6BD00000000FEE700000000000037
:103E2000FEE700000000000041F20070C2F2004016
:103E3000FDF7E6BD00000000704700000000000034
:103E400070B544F20C060446C5F60006316821F050
:103E500080013160F168890618D4306820F02000B4
:103E60003060FDF755FB05463068800630D4FDF71D
:103E70004FFB401BB0F57A7FF6D93068800627D417
:103E8000032084F82D0084F82D0070BDF06820F028
:103E90002000F060306820F020003060FDF738FB33
:103EA000054600BF3068800614D4FDF731FB401B87
:103EB000B0F57A7FF6D9306880060BD4032084F8F9
:103EC0002D0084F82D00F16841F02001F16070BDF3
:103ED000002070BD0020F16841F02001F16070BD4C
:103EE0007047000000000000FDF71ABB0000000052
:103EF00044F20040C5F602000169C1F3C202032A80
:103F000008D840F60011C0F23D01DFE802F0036B73
:103F10000D1300BF016849F20002C0F2D032C1F3B4
:103F2000C10122FA01F15DE043F20061C0F26E11BD
:103F300058E000BF826A816AC36ADB07C1F30511DA
:103F40000CD19FED2F0AB1B102F00302022A15D065
:103F5000012A17D19FED2D1A21E000BF436B9FED81
:103F6000291AC3F3CC0300EE103AB8EE400A20EE53
:103F7000010A0029E8D1002134E000BF9FED221A98
:103F80000DE000BF026849F20003C0F2D033C2F373
:103F9000C10223FA02F201EE102AB8EE411A026BB6
:103FA00003EE101A6FF35F22016B02EE102AC1F3C9
:103FB0004621B8EE433A0131B8EE422A81EE031AA7
:103FC00030EE020AB7EE002A30EE020A21EE000AB5
:103FD00001EE101AB8EE411A80EE010ABCEEC00ADA
:103FE00010EE101A806940F2240200F00F00C2F2B5
:103FF0000042073838BF002021FA00F010607047F7
:104000000000000000000039001BB74B0024744A78
:104010004EF6885140F20000CEF20001C9F20000D5
:1040200041F8800C086840F4700008607047000098
:1040300010B540F25C140A46C2F2004402A02146C8
:1040400000F03EFC204610BD43444320436F6E66A3
:10405000696700000000000070B5D0F8D42200EBC2
:104060008203D3F8C0222AB301F00F0E8C460EEB68
:104070008E0100EB810151F8144F5CB1D0F8C86299
:104080000EEBCE0506EB8506F669B4FBF6F505FBEF
:1040900016468EB10024C2F81442D3F8C402036954
:1040A00033B1D2F8080202F5047162469847002441
:1040B000204670BD032070BD00240C600022002348
:1040C000614600F0F9FE204670BD000000000000CF
:1040D000B0B50446D0F8D40204EB8000D0F8C0524A
:1040E00095B1204600F06CFDD4F8D412C5F80C024E
:1040F000D5F8040204EB8101D1F8C42205F503715F
:10410000D26890470020B0BD0320B0BD0000000081
:1041100070B58121044600F08BFC0121204600256A
:1041200084F8375000F084FC8221204684F87751CF
:1041300000F07EFCD4F8D40284F84B50656404EBA4
:104140008000D0F8C01289B1D0F8C402406880471E
:10415000D4F8D40204F5307656F8200001F094F932
:10416000D4F8D40246F82050C4F8BC52002070BDE8
:1041700040F2A4001222C2F200400A807047000000
:1041800010B5D0F8D41200EB8100D0F8C0428CB149
:10419000D0F8C41259B194F80002FF2807D094F85F
:1041A00001228B6821469847FF2084F800020020F6
:1041B00010BD00BF032010BD40F2B8010A22C2F2B8
:1041C0000041028008467047F0B581B040F26007B8
:1041D0000446C2F200478221384600F02DFB064615
:1041E0000121384600F028FB05468121384600F0C1
:1041F00023FB002E1CBF1021B171002D1CBF4021DC
:10420000A98000281CBF4021818040F2600043212A
:10421000C2F20040218001B0F0BD000000000000AB
:10422000F0B581B040F260070446C2F20047822137
:10423000384600F001FB06460121384600F0FCFA42
:1042400005468121384600F0F7FA002E1CBF1021E8
:10425000B171002D1CBF4FF40071A98000281CBF54
:104260004FF40071818040F260004321C2F20040AF
:10427000218001B0F0BD0000F0B581B040F26007D0
:104280000446C2F200478221384600F0D5FA0646BD
:104290000121384600F0D0FA05468121384600F069
:1042A000CBFA002E1CBF1021B171002D1CBF402184
:1042B000A98000281CBF4021818040F2600043217A
:1042C000C2F20040218001B0F0BD000000000000FB
:1042D0002DE9F04104464FF4077001F0D9F80028A9
:1042E00048D04FF407710546FCF782F9D4F8D402A0
:1042F000217C4027022204EB800000294FF081013D
:104300004FF00206C0F8C0522046C4F8BC5208BFA5
:104310004FF400773B4600F0D3FC012102222046F7
:104320003B464FF0010884F8378000F0C9FC1020AC
:104330006064822103220823204684F8778100F0FC
:10434000BFFCD4F8D4020027C5F8047204EB800047
:1043500084F84B80D0F8C40200688047C5F8147216
:10436000C5F81872D5F80422A2B1207C012158B1F9
:1043700040230BE0D4F8D402002104EB8000C0F805
:10438000C0120220BDE8F0814FF40073204600F017
:10439000ABFC00263046BDE8F081000000000000C4
:1043A00010B540F25C140A46C2F2004402A0214655
:1043B00000F086FA204610BD43444320496E7465E0
:1043C000726661636500000040F2D8000422C2F208
:1043D00000400A807047000010B540F25C140A46A5
:1043E000C2F2004402A0214600F06AFA204610BD45
:1043F00053544D6963726F656C656374726F6E6957
:10440000637300000000000010B540F25C140A461F
:10441000C2F2004402A0214600F052FA204610BD2C
:1044200053544D3332205669727475616C20436F5A
:104430006D506F7274000000D0F8D41200EB81014F
:10444000D1F8C01271B180B5027C4023002AD1F8A6
:1044500004224FF0010108BF4FF4007300F044FC48
:10446000002080BD0320704741B1D0F8D42200EB7A
:104470008200C0F8C4120020704700BF03207047BC
:10448000B0B54FF6000EC0F6FF0EDEF80000DEF805
:104490000830C0184FF01A030B8000F0A3804FF0D3
:1044A000370C010F0CEB1072B0F1204F38BF01F147
:1044B000300240F2DC01DEF80430C0F30364C2F2E3
:1044C00000414FF0000E8A700201B2F1204F81F8D6
:1044D00003E00CEB127538BF04F13005020281F8DD
:1044E00005E0C0F303540D710CEB1275B2F1204FCF
:1044F00038BF04F13005020381F807E0C0F303443C
:104500008D710CEB1275B2F1204F38BF04F13005FC
:10451000020481F809E0C0F303340D720CEB12754C
:10452000B2F1204F38BF04F13005020581F80BE0ED
:10453000C0F303248D720CEB1275B2F1204F38BF1B
:1045400004F13005020681F80DE0C0F303140D7389
:104550000CEB1275B2F1204F38BF04F130050207A1
:1045600000F00F0000F137048D73B2F1204F81F895
:104570000FE038BF00F13004180FB3F1204F0CEBFF
:1045800013720C7481F811E038BF00F13002180189
:1045900081F813E08A74B0F1204FC3F303620CEB8F
:1045A000107438BF02F13004180281F815E0C3F32B
:1045B00003520C750CEB1074B0F1204F4FEA03302E
:1045C00038BF02F13004C3F30342B0F1204F0CEBCB
:1045D00010738C7581F817E038BF02F1300381F851
:1045E00019E00B7640F2DC00C2F20040B0BD0000E2
:1045F000D0F8D42200EB8200D0F8C00220B1C0F87D
:1046000004120020704700BF032070470000000024
:10461000D0F8D43200EB8300D0F8C00230B1C0F83B
:104620000812C0F810220020704700BF0320704716
:1046300070B582B00446D0F8D40200228DF807206D
:1046400004EB8000ADF80420D0F8C062002E63D0E7
:104650000D46097811F0600218D0202A58D1EA8856
:10466000002A29D049B2B1F1FF3F31DD6878402AF4
:1046700086F80002204628BF4022314686F80122F3
:1046800000F0A2F80026304602B070BD68780B2812
:104690003ED80026DFE800F008063C3C3C3C3C3CB1
:1046A0003C3C2A38EFE700BF94F89C0203282FD146
:1046B00001A9022221E000BFD0F8C41268780022CC
:1046C00000268B6829469847304602B070BD00BF6F
:1046D000D0F8C41268788B6831469847EA8820463B
:1046E0003146072A28BF072208E000BF94F89C0241
:1046F00003280DD10DF107010122204600F080F8BA
:104700000026304602B070BD94F89C020328BAD04F
:104710002046294600F04CF80326304602B070BD12
:10472000D0F8D41200EB8101D1F8C03243B1D3F8F4
:10473000141200294FF0010104D00846704700BF51
:104740000320704780B5C3F814128121D3F80822E2
:10475000D3F81032836200F0AFFB0021BDE8804047
:10476000084670470000000080B5D0F8B8225268B3
:104770009047002818BF032080BD00000000000003
:10478000002070470000000000207047000000007B
:1047900080B513460A46002100F0A6FA002080BD2D
:1047A00080B513460A46002100F086FB002080BD3C
:1047B00010B58021044600F047FB00212046BDE8EB
:1047C000104000F041BB000080B58C460323C0F8C8
:1047D00094321346C0F864110021C0E955226246A4
:1047E00000F082FA002080BD80B50521C0F8941247
:1047F00000210022002300F077FA002080BD000095
:1048000080B58C460223C0F89432134641620021E1
:10481000C0E90522624600F04FFB002080BD000089
:1048200080B50421C0F8941200210022002300F07A
:1048300043FB002080BD0000B0F802C003789C4517
:1048400038D980B504E000BF73449AB2624533D2D0
:1048500090F800E070444278052A02D182788A42BA
:104860002BD073449AB2624526D290F800E070448F
:104870004278052A02D182788A421ED073449AB2C5
:10488000624519D290F800E070444278052A02D1BE
:1048900082788A4211D073449AB262450CD290F861
:1048A00000E070444278052ACED182788A42CBD18A
:1048B00003E000BF00207047002080BD0000000022
:1048C000002808BF704710B50378ABB100F1020EA5
:1048D0004FF0000C734600BF13F8014CA4B11C78D4
:1048E000D4B15C78002C55D09C780CF1040C0433C6
:1048F000002CF1D112E000BF4FF0000C5FFA8CF3F6
:10490000022404EB43030EE04CF0010C5FFA8CF33D
:104910001F2B07D844E000BF4CF0020C5FFA8CF369
:104920001F2B3DD94023138003220B704A7003785C
:104930006BB3023002224FF0000CD4B244F0010EEF
:104940000B5501F80EC010F8013C03B3941CE4B2FF
:1049500044F0010E0B5501F80EC00378002B1FBF69
:10496000141DE4B244F0010E0B551EBF01F80EC039
:104970004378002B0BD0941D0832E4B244F0010EB2
:104980000B5501F80EC083780430002BD5D1BDE85B
:10499000104070474CF0030C5FFA8CF31F2BC1D80A
:1049A0004FF0000C1EF8013C73B19EF800307BB153
:1049B0009EF8013083B19EF802300CF1040C0EF128
:1049C000040E002BEED199E74CF0010C96E700BFE6
:1049D0004CF0020C92E700BF4CF0030C8EE7000095
:1049E00080B10023C0F8B832C0F8C4320029C0F842
:1049F000D03218BFC0F8B412012180F89C120270A6
:104A000000F0E2B80320704780B5D0F8C802FCF788
:104A1000FFFE40F20032C100C0F20132032822FA48
:104A200001F188BF0321C8B280BD00000000000072
:104A300080B5D0F8C802FCF7BFFE40F20032C100DA
:104A4000C0F20132032822FA01F188BF0321C8B263
:104A500080BD000000000000B0B5044681B194F8AC
:104A60009C02032828D1D4F8B802426922B300205E
:104A7000C4F8D40220469047002808BF0020B0BDEB
:104A8000D4F89402022811D1218CA069884215D94A
:104A9000421A606A01442046A2616162FFF780FE0B
:104AA000002100220023204600F01EF994F8A00205
:104AB00010B1002084F8A0020020B0BD10D16169BF
:104AC00081420DD3D4F89802814209D200210022FC
:104AD00020460025FFF764FEC4F89852E0E700BFC7
:104AE00094F89C02032808D1D4F8B802C16821B117
:104AF0000020C4F8D402204688478021204600F0D8
:104B0000A3F92046FFF770FE94F8A0020028D0D148
:104B1000D2E700000000000010B5044681B194F80F
:104B20009C02032824D1D4F8B802826902B3002081
:104B3000C4F8D40220469047002808BF002010BDCA
:104B4000D4F89402032813D1B4F86021D4F85801A2
:104B500090420FD9801AD4F86411C4F85801114456
:104B60009042C4F8641188BF02462046FFF710FE49
:104B7000002010BD94F89C02032808D1D4F8B80294
:104B8000016921B10020C4F8D4022046884720469C
:104B9000FFF746FE002010BD002070470000000017
:104BA000012180F89C12D0F8B8223AB180B5017981
:104BB00052689047002818BF032080BD002070472E
:104BC000D0F8C802FCF758BE0178012930D110B5E1
:104BD00041F20071C2F20041C0F8C812C1F8E0040D
:104BE0000020C4F204000860092008710320487204
:104BF0000020C88048810873C8810846FDF770FC12
:104C000008B1FBF7DDFE41F200744FF40071C2F20F
:104C100000442046FCF73CFD002140222046FCF7E2
:104C20003BFD012180222046FCF736FDBDE8104007
:104C3000002070470000000001F07F02D0F8C80299
:104C400049B202EBC202002900EB820000F25622B8
:104C500048BF00F116021078704700000000000005
:104C6000D0F8D42200EB8202D2F8B82262B190F8D8
:104C70009C32032B06D1126A22B180B590470020E6
:104C800080BD00BF00207047032070470000000077
:104C9000D0F8D42200EB8202D2F8B82262B190F8A8
:104CA0009C32032B06D1526A22B180B59047002076
:104CB00080BD00BF00207047032070470000000047
:104CC00080B59446D0F8C8021A466346FCF7E0FD6A
:104CD00040F20032C100C0F20132032822FA01F191
:104CE00088BF0321C8B280BD80B5D0F8C802FCF7E8
:104CF00007FE40F20032C100C0F20132032822FA5E
:104D000001F188BF0321C8B280BD0000000000008F
:104D1000F0B581B0012680F89C620025C0F894525D
:104D200004464560D0F8B802C4F8A45284F8A052F2
:104D300040B1426832B10021204690470546002824
:104D400018BF032500210022402320464027FFF7FB
:104D5000B7FF802100224023204684F86361A4F835
:104D60006071FFF7ADFF84F823602846278401B007
:104D7000F0BD00000000000090F89C12042903D14F
:104D800090F89D1280F89C120020704700000000EF
:104D900090F89C12032908D1D0F8B81229B1C9693A
:104DA00019B180B58847BDE88040002070470000F9
:104DB000024600201174704780B5D0F8C802FDF794
:104DC0004BFD40F20032C100C0F20132032822FA4A
:104DD00001F188BF0321C8B280BD000000000000BF
:104DE000B0B500F2AA250446284600F079F8012063
:104DF000C4F8940294F8AA02B4F8B02200F01F019B
:104E0000C4F89822022909D001290DD091B9204671
:104E10002946BDE8B04000F09FB800BF20462946B3
:104E2000BDE8B04000F048BA20462946BDE8B04091
:104E300000F0EABA00F080012046BDE8B04000F082
:104E400003B800000000000080B5D0F8C802FCF7ED
:104E500077FD40F20032C100C0F20132032822FA8D
:104E600001F188BF0321C8B280BD0000000000002E
:104E700080B5D0F8C802FDF70BFD40F20032C1004A
:104E8000C0F20132032822FA01F188BF0321C8B21F
:104E900080BD000000000000014690F89C0204283C
:104EA00003D091F89C0281F89D020020042281F831
:104EB0009C2270470000000080B5D0F8C802FCF7C3
:104EC0007FFD40F20032C100C0F20132032822FA15
:104ED00001F188BF0321C8B280BD000000000000BE
:104EE0000A7802704A7842704A8842808A888280B2
:104EF000C988C1807047000010B582B004464FF0E9
:104F00000000ADF80600B9B1D4F8D40204F52E7251
:104F1000C4F8B81252F82000C16A21B10DF10600A0
:104F20008847C4F8D002D4F8D8020130C4F8D802B7
:104F3000002002B010BD00BF032002B010BD000071
:104F4000D0F8B82212B11268104700BF0020704795
:104F5000FFF78EBF00000000B0B582B00D460978A3
:104F6000044611F0600111D0402918BF202940F0FB
:104F7000D980D4F8D402294604EB8000D0F8B802D6
:104F80008268204602B0BDE8B04010476878092822
:104F900000F2C880DFE800F0061CC630C63C5CC6E4
:104FA000768A00BF94F89C020138022800F2BA8089
:104FB000E888022840F0B680D4F8A4020322002832
:104FC000214608BF012241F80C2F022251E100BF07
:104FD00094F89C020138022800F2A4806888002519
:104FE000012840F0A880C4F8A4522046FFF718FC1E
:104FF000284602B0B0BD00BF6888022800F0888053
:10500000012840F08F800120C4F8A40238E100BFDD
:10501000A888002840F08680E888002840F0828038
:1050200068887F2800F27E8094F89C12032900F0A3
:105030007980C5B284F89E0220462946FFF7BCFE5F
:105040002046FFF7EDFB002D00F02E8102202CE121
:1050500068884FF0FF310022ADF8062001EB1021E7
:10506000062900F21581DFE811F0070069007700DA
:105070001301130185009100D4F8B412207C0A6852
:10508000E9E000BFE88801284CD194F89C02411E59
:10509000022941D2214601222046002541F8085F1D
:1050A000FFF7AEFB284602B0B0BD00BF688840F2F3
:1050B0005815C2F2004510F0FE0F28700CD0802168
:1050C0002046FFF7C1FE00212046FFF7BDFE032565
:1050D000284602B0B0BD00BFC1B294F89C22032A9A
:1050E00062D0022A40F08280002900F0C980204668
:1050F0006160FFF725FF002800F0928005468021BF
:105100002046FFF7A1FE00212046FFF79DFE67E045
:10511000687984F8A002B3E0032803D1211D01229D
:10512000A7E000BF80212046FFF78EFE0021204629
:105130000025FFF789FE284602B0B0BD207C00287C
:10514000D4F8B8020CBF816AC16A0DF10600884725
:105150000146022026E000BFC0B2052800F2988078
:10516000DFE800F00464686C707400BFD4F8B40227
:1051700042686EE0207C002840F08A80D4F8B802B3
:10518000416B0DF10600884768E000BF207C0028D5
:1051900040F07E80D4F8B802016B0DF1060088471C
:1051A0000146072048705AE081B36068884267D0A2
:1051B000C1B22046FFF7D8FA297820466160FFF790
:1051C000BFFE00285CD0054680212046FFF73CFE4C
:1051D00000212046FFF738FE21792046FFF7C4FA68
:1051E000022084F89C02284602B0B0BD80212046EF
:1051F000FFF72AFE00212046FFF726FE29782046E9
:10520000FFF7B2FA0325284602B0B0BD022084F8A9
:105210009C026160002120460025FFF7A5FAE4E624
:105220002046FFF7FDFA03203FE000BFD4F8B402A8
:1052300082680EE0D4F8B402C2680AE0D4F8B4027E
:10524000026906E0D4F8B402426902E0D4F8B4027C
:105250008269EAB1207C0DF1060190470146EA8897
:1052600072B1BDF8060098B1904238BF0246ADF861
:1052700006202046FFF7C4FA0025284602B0B0BD3C
:105280002046FFF7CDFA0025284602B0B0BD00BF8A
:1052900080212046FFF7D8FD00212046FFF7D4FDEE
:1052A0000025284602B0B0BD012084F89C020025EC
:1052B000284602B0B0BD000070B50E46097804461D
:1052C000357911F060010BD0402918BF202940F03A
:1052D000878020462946FFF753FAD8B1002070BDD9
:1052E000707828B3012837D0032879D194F89C022C
:1052F000032835D1708840B915F07F0005D0F088BB
:1053000018B920462946FFF79FFD2046FFF788FA87
:10531000002070BDD4F8B80282680020002AC4F8CA
:10532000D402DBD020463146BDE87040104700BFB4
:1053300094F89C02032821D0022808BF5FEA456048
:105340004ED104F11401280658BF04F5AA710020BB
:1053500001F80E0F52E000BF94F89C02032819D008
:1053600002283DD168063BD020462946FFF76CFD58
:1053700080212046FFF768FD002070BD05F00F007A
:10538000802D00EB800004EB800011D290F86301C7
:1053900010E000BF70880028A0D1680603D0204626
:1053A0002946FFF731FB2046FFF73AFA91E700BFA5
:1053B00090F82300A0B105F07F00802D00EB800065
:1053C00004EB800000F1140638BF00F5AA766806E9
:1053D00010D020462946FFF72FFC58B101200AE0E3
:1053E00080212046FFF730FD00212046FFF72CFDED
:1053F000002070BD002006F10E01B073022220468D
:10540000FFF7FEF9002070BDB0B50D4609780446DF
:1054100011F0600118BF402910D194F89C020138A6
:1054200002280DD8A88810F0FE0F09D1C1B220467D
:10543000FFF7AAF980B10320B0BD00BF2029ECD04E
:1054400080212046FFF700FD002120460025FFF7C0
:10545000FBFC2846B0BD00BFD4F8B8028268002A21
:10546000E9D00020C4F8D402204629469047E988B4
:105470000546002908BF002DEBD12046FFF7D0F9E3
:105480000020B0BD000000007047000000000000D8
:1054900040F29C10C2F20040704700000000000083
:1054A00010B50A784B78D0F81CC802F00F044FEA08
:1054B000421E012B1AD1012303FA04F400EB0E0360
:1054C00044EA0C04C0F81C48D3F8000900042AD4AC
:1054D00003F510600B7989686FF3DF21046841EAF6
:1054E000834144EA8252114318E000BF4FF48032F6
:1054F00002FA04F300EB0E0243EA0C03C0F81C3876
:10550000D2F8000B00040ED40B7902F530608968E4
:105510006FF3DF21026841EA8341114341F080517A
:1055200041F400410160002010BD000000000000B7
:105530000146D0F8000940F2FF729043C1F800091B
:10554000D1F80428002042F48072C1F80428704782
:1055500080B582B040F2100CC4F2040CACF1100E15
:10556000704535D0C16841F04001C1600021019112
:105570000199013101910199B1F1706F00F2B4808C
:105580000169002921D40199013101910199B1F1F9
:10559000706F00F2A9800169002916D401990131C8
:1055A00001910199B1F1706F00F29E8001690029AB
:1055B0000BD40199013101910199B1F1706F00F2A1
:1055C00093800169B1F1FF3FD2DC0A2142E000BFC4
:1055D00002F47F40B0F5407F05D15CF8040C20F464
:1055E00080004CF8040C00200090009801300090DE
:1055F0000098B0F1706F00F2D580DCF80000002850
:1056000024D40098013000900098B0F1706F00F23F
:10561000C980DCF80000002818D400980130009000
:105620000098B0F1706F00F2BD80DCF80000002837
:105630000CD40098013000900098B0F1706F00F227
:10564000B180DCF80000B0F1FF3FCEDC0A2059E069
:10565000019901390191019989B1019901390191AA
:10566000019961B1019901390191019900291FBF87
:10567000019901390191019918BF0029E8D1016907
:1056800041F0010101610199013101910199B1F1EB
:10569000706F29D80169C9071DD0019901310191A5
:1056A0000199B1F1706F1FD80169C90713D0019931
:1056B000013101910199B1F1706F15D80169C907E4
:1056C00009D00199013101910199B1F1706F0BD8A5
:1056D0000169C907D7D1002213F47F4F816B08D12C
:1056E00041F4803107E000BF032213F47F4F816B48
:1056F000F6D021F480318163104602B080BD00BF36
:10570000009801380090009888B100980138009006
:10571000009860B1009801380090009800281FBFE1
:10572000009801380090009818BF0028E8D1DCF8F4
:10573000000040F00100CCF800000098013000901B
:105740000098B0F1706F2DD8DCF80000C00720D0B1
:105750000098013000900098B0F1706F22D8DCF80A
:105760000000C00715D00098013000900098B0F1FB
:10577000706F17D8DCF80000C0070AD0009801301D
:1057800000900098B0F1706F0CD8DCF80000C007F2
:10579000D3D1002201F47F00B0F5803F08D010463D
:1057A00002B080BD032201F47F00B0F5803FF6D146
:1057B000DCF84C0080B2CCF84C00DCF84C0040F037
:1057C000007040F0F770CCF84C005CF8080C20F04A
:1057D0001E004CF8080C5CF8080C40F006004CF871
:1057E000080C5CF8080C40F020004CF8080C10463F
:1057F00002B080BD0000000080B54A780978012A17
:105800004FEA41122AD1024447F6000CCEF6334C3F
:105810004FF0010ED2F8003902F51062B3F1FF3FEC
:1058200007DC136843F000631360136843F08043A0
:10583000136001F00F01D0F83C380EFA01F18B43F0
:10584000C0F83C38D0F81C3823EA0101C0F81C1815
:105850001168002001EA0C01116080BD831847F631
:10586000000C03F53062CEF6334CD3F8003B0CF15C
:10587000707CB3F1FF3F4FF4803EDADCD1E70000EB
:105880000146D0F8000E20F00300C1F8000E002001
:10589000D1F8042822F00202C1F804287047000061
:1058A0000146D0F8000E20F00300C1F8000E0020E1
:1058B000D1F8042842F00202C1F804287047000021
:1058C0002DE9F04F85B00027C0F80471C0F80871C9
:1058D0009246C0F80C718946C0F81071190CC0F8D6
:1058E0001471C0F81871C0F81C71C0F82071C0F8AC
:1058F0002471C0F82871C0F82C71C0F83071C0F85C
:105900003471C0F83871C0F83C71C7687F0603D4A1
:10591000826B22F0007282635FFA81F8B8F1000FA7
:105920001AD0C16800F1380311F04001014608BFE8
:1059300019466FF040026FF0800708BF6FF0807269
:1059400008BF6FF400070E6832400A600A683A40E8
:105950000A604FF400111DE0D0F80418034641F02E
:105960000201C0F8041853F8381F21F4001119601F
:1059700053F82C1C490607D4196841F0807119604E
:105980004FF4000106E000BF0168034641F040010A
:10599000016080211A68114319600021C0F8001EBF
:1059A000C268520608D4B1EB196FD0F8001807D0BE
:1059B00041F0010104E000BFD0F8001841F00301FC
:1059C000C0F8001800210391039901310391039954
:1059D000B1F1706F50D8016900291ED403990131CB
:1059E00003910399B1F1706F46D80169002914D46D
:1059F0000399013103910399B1F1706F3CD80169AA
:105A000000290AD40399013103910399B1F1706F10
:105A100032D80169B1F1FF3FD6DC002103914FF488
:105A2000846101610399013103910399B1F1706FB0
:105A300022D8016989061DD5039901310391039983
:105A4000B1F1706F18D80169890613D50399013136
:105A500003910399B1F1706F0ED80169890609D5D8
:105A60000399013103910399B1F1706F04D8016971
:105A70008906D7D4002600E001260021049104996C
:105A8000013104910499B1F1706F4FD80169002977
:105A90001ED40499013104910499B1F1706F45D875
:105AA0000169002914D40499013104910499B1F1D8
:105AB000706F3BD8016900290AD40499013104911F
:105AC0000499B1F1706F31D80169B1F1FF3FD6DCB3
:105AD000002104911021016104990131049104997C
