:020000040800F2
:10000000000600207D030008292800084127000879
:100010002128000889040008412B00080000000086
:10002000000000000000000000000000492A000855
:10003000910400080000000031280008512A00083F
:1000400097030008000000009703000897030008CA
:10005000970300089703000800000000000000005C
:1000600097030008970300089703000800000000AA
:1000700000000000970300080000000000000000DE
:1000800097030008970300089703000897030008E8
:1000900097030008970300089703000897030008D8
:1000A00097030008970300089703000897030008C8
:1000B00097030008970300089703000897030008B8
:1000C00097030008000000000000000097030008EC
:1000D0009703000897030008970300089703000898
:1000E0009703000897030008970300089703000888
:1000F0009703000897030008970300089703000878
:100100009703000897030008970300089703000867
:100110009703000897030008970300089703000857
:100120009703000897030008970300089703000847
:100130009703000897030008970300089703000837
:100140009703000897030008970300089703000827
:100150009703000897030008970300089703000817
:100160009703000897030008970300089703000807
:1001700097030008970300089703000897030008F7
:1001800097030008970300089703000897030008E7
:1001900097030008970300089703000897030008D7
:1001A00097030008970300089703000897030008C7
:1001B00097030008970300089703000897030008B7
:1001C00000000000000000009703000897030008EB
:1001D00097030008970300080000000000000000DB
:1001E0000000000097030008970300089703000829
:1001F00097030008970300080000000000000000BB
:100200009703000897030008970300089703000866
:100210009703000897030008970300089703000856
:100220009703000897030008970300089703000846
:100230009703000897030008970300089703000836
:100240009703000897030008970300089703000826
:100250009703000897030008970300089703000816
:100260009703000897030008970300089703000806
:1002700097030008970300089703000897030008F6
:1002800097030008970300089703000897030008E6
:1002900097030008000000000000000000000000BC
:1002A00097030008970300089703000897030008C6
:1002B00000F002F800F052F814A696E8000CB244E0
:1002C000B344DA4501D100F049F8BAE80F000FA6AF
:1002D00096E83000A5EB040504EB0607AAEB07043B
:1002E000A7F101074FEA15154FEA3414A4F10104F0
:1002F000AC4201D300F032F813F0010F18BFFB1A23
:1003000043F0010300F001F8DBE7184788320000F2
:10031000B8320000103A24BF78C878C1FAD8520722
:1003200024BF30C830C144BF04680C60704700006F
:10033000704700000023002400250026103A28BF43
:1003400078C1FBD8520728BF30C148BF0B60704747
:100350001FB503F011F91FBD10B510BD00F058F81E
:100360001146FFF7F5FF02F07FFF00F076F803B4C7
:10037000FFF7F2FF03BC00F07DF80000094880475A
:1003800009480047FEE7FEE7FEE7FEE7FEE7FEE777
:10039000FEE7FEE7FEE7FEE704480549054A064B8F
:1003A00070470000212B0008B10200080000002067
:1003B0000006002000020020000200204FF0000292
:1003C00000B5134694469646203922BFA0E80C504B
:1003D000A0E80C50B1F12001BFF4F7AF090728BF26
:1003E000A0E80C5048BF0CC05DF804EB890028BFA2
:1003F00040F8042B08BF704748BF20F8022B11F0CB
:10040000804F18BF00F8012B704770477047704746
:10041000754600F02BF8AE4605006946534620F0BD
:100420000700854618B020B5FFF7B6FFBDE82040AD
:100430004FF000064FF000074FF000084FF0000BA0
:10044000AC46ACE8C009ACE8C009ACE8C009ACE80F
:10045000C00921F007018D46704710B50446AFF37F
:1004600000802046BDE81040FFF781BF004870477C
:100470000C00002401491820ABBEFEE72600020054
:100480007047000000000000FEE7000000000000D0
:10049000704700000000000072B600BFFEE70000D9
:1004A000B0B5044600F0F4F840F200010546C2F28F
:1004B0000041621C097818BF0C4400BF00F0E8F846
:1004C000401BA042FAD3B0BD2DE9F04F82B00F68B7
:1004D000002F00F0C9804FF67F728E46C0F22902CD
:1004E0004FF0000B0024002602EA902200920191B6
:1004F0000BE000BF0136DEF8007037FA06F204F1B7
:1005000002040BF1040B00F0AF800122B24017EAA5
:10051000020AEFD0DEF80480032308F0030903FA8F
:1005200004FCA9F10105012D12D88568DEE902E37A
:1005300025EA0C0703FA04F53D438560C8F300156E
:10054000476827EA0202B5402A43426008E000BF3C
:10055000DEF808E0B9F1030F08BFBEF1010F2DD09E
:10056000C26873006FEA0C0122EA0C020EFA04F56D
:10057000B9F1020F42EA0502C2601BD16FF003021B
:100580000BF01C0502EA56020F27024407FA05FE8B
:10059000D2F820C0019F2CEA0E0CBE46D7F810807E
:1005A00008FA05F545EA0C051562D7F8048008F04D
:1005B00003090BE0DDF804E008E000BF4FF0030999
:1005C000234609FA04F2DDF804E0D143026809FA8F
:1005D00003F50A4018F4403F42EA0502026089D060
:1005E00040F2305826F00302C5F600080BF00C0567
:1005F0000F2152F808C001FA05F7009B2CEA070703
:1006000003FA05F54FF0B0412F4342F808700A682D
:10061000DEF8047042EA0A05FB0258BF22EA0A0526
:1006200040F2040CC5F6000C0D60BD02DCF80020A1
:1006300042EA0A0358BF22EA0A03BD03CCF800309D
:10064000DCF8802042EA0A0358BF22EA0A03FF03CB
:10065000CCF88030DCF87C2042EA0A0358BF22EA5A
:100660000A03CCF87C3045E702B0BDE8F08F00000B
:10067000426902EA0103914341EA03418161704703
:100680001823002A08BF2823C1507047000000002B
:1006900040F2E000C2F20040006870470000000035
:1006A00040F2000040F2E001C2F20040C2F200411C
:1006B00000780A68104408607047000000000000DD
:1006C00080B5032000F0DCF80F2000F009F80028C6
:1006D0001CBF012080BD00F093F8002080BD000009
:1006E00070B540F20006C2F200463178E1B104462E
:1006F00040F20800C2F200404FF47A72B2FBF1F10E
:100700000068B0FBF1F001F02BFB0F2C4FF001055E
:1007100008D838B94FF0FF3000222146002500F0FC
:100720007FF87460284670BD012070BD0000000095
:1007300010B54EF6A0524178CEF2000290F800C0FB
:1007400042F8081C116821F001011160116821F0C4
:1007500001011160416842F8041C90F80CE0C37A72
:10076000817A447B1B0643EA0E7390F80EE043EA5D
:10077000C141C37B41EA8441447A41EA4E41007A57
:1007800041EA034141EA042141EA400040EA0C0009
:10079000106010BD000000004EF62450CEF20000A4
:1007A000BFF35F8F016821F4803101600021016790
:1007B000BFF34F8FBFF36F8F704700000000000042
:1007C0004EF6A051CEF2000141F8080C086820F066
:1007D00001000860704700004EF6245140F001000F
:1007E000CEF20001BFF35F8F0867086840F48030E5
:1007F0000860BFF34F8FBFF36F8F7047000000009A
:1008000080B5042000F04CF808B1FFF745FE00F079
:10081000ABF8BDE8804000F09BB80000000000008D
:1008200070B54EF60C5C4FF0FF36CEF2000C00F1C6
:10083000604505F56445DCF80030C3F3022E8EF008
:100840000703042B28BF0423BEF1030406FA03F3B5
:1008500021EA030100F00F0338BF0024043B002805
:10086000634406FA04F048BF03F10C05A14022EAF4
:10087000000008430001287070BD00000000000067
:100880004EF60C514FF6FF03CEF200010A681A40F3
:1008900060F30A2242F0806040F0FD70086070470B
:1008A00070B544F60C060446C5F602063168306899
:1008B00001F00701062913D120F01F00204330600A
:1008C000FFF7E6FE054600BF56F8080C80070DD47A
:1008D000FFF7DEFE401BB0F57A7FF5D9012070BD31
:1008E00000F01F00001B18BF012070BDA4F11D0007
:1008F00001280DD8FFF7CCFE044600BF3068C003C6
:1009000006D4FFF7C5FE001BB0F57A7FF6D9E5E700
:10091000002070BD00000000B0B544F61405C5F617
:100920000205296821F0010108432860FFF7B0FEA5
:10093000044600BF2868800708D4FFF7A9FE001B03
:10094000B0F57A7FF6D90120B0BD00BF0020B0BD60
:1009500044F60C00C5F60200016841F00061016038
:10096000704700000000000044F60C00C5F60200CD
:10097000016841F480410160704700000000000000
:1009800044F60000C5F60200016841F48071016080
:1009900070470000000000002DE9F041016844F2BA
:1009A0002C4804464803C5F6020805D4002001225D
:1009B000CB0700F08A8064E0D8F8440010F440715E
:1009C000E06F25D000F44072914221D0D8F8D413C2
:1009D00041F48071C8F8D413D8F8D413C90505D4EC
:1009E000012000222168CB074BD16EE0D8F84410DB
:1009F000D8F8442042F48032C8F84420D8F8442083
:100A000021F4407122F48032C8F84420C8F8441020
:100A1000B0F5807F15D1FFF73BFE054641F28837E0
:100A2000D8F8440080070BD4FFF732FE401BB842D1
:100A3000F6D9032000222168CB0722D145E000BF70
:100A4000E06F58F81C1C6FF0300221F47C5102EA70
:100A5000101210F47C3F00F4407018BF11430122C3
:100A600048F81C1CD8F844100843C8F84400D8F8CB
:100A7000440040F40040C8F8440000202168CB073F
:100A800023D06368032B11D84027DFE803F0031756
:100A9000150300BFCAB1D8F8202022F003021A4380
:100AA000C8F8202000228B0712D43DE0012201204B
:100AB0008B070DD438E000BF4FF48027D8F80050E2
:100AC0002F43C8F80070002AE5D102468B072BD5CA
:100AD000A56875B1102D05D0202D31D14FF48013AC
:100AE00002E000BF4FF40023D8F800703B43C8F881
:100AF0000030134682B1480719D418460B0730D589
:100B0000D8F82030276923F040533B43C8F8203001
:100B10008B025DD527E000BFD8F8202022F03002FC
:100B20002A43C8F82020002203464807E5D5E56897
:100B30009DB1402D0AD0802D3CD14FF4801007E0AC
:100B4000012201234807F2D4D7E700BF4FF4002069
:100B5000D8F800703843C8F800001046F2B10B070F
:100B6000CED48B0234D5656D25B1042D10D14FF450
:100B7000801301E04FF40023D8F8007043EA070324
:100B8000C8F800301346DAB1C8065BD523E000BFD1
:100B900001220123C8061ED454E000BFD8F820006B
:100BA000002220F0C0002843C8F8200018460B0798
:100BB000D7D5A5E7012201200B07D2D5A0E700BFBA
:100BC000D8F8202022F004022A43C8F8202000226E
:100BD0000346C80636D5656945B1B5F1007F0CD02E
:100BE000B5F1807F62D14FF0005001E04FF48030CA
:100BF000D8F800703843C8F800001046D2B18B0610
:100C000023D40546480637D5D8F82400E36920F0F8
:100C100040501843C8F8240008062FD5D8F8200003
:100C2000236A20F440301843C8F82000C8054BD58B
:100C300026E000BFD8F82000002220F040702843B2
:100C4000C8F8200018468B06DBD5A3694FEA335756
:100C5000052F00F225834FF48035DFE817F00700F9
:100C60002B03290307000700070000BF002A1546D1
:100C700000F029834806C7D40806CFD4C80523D579
:100C8000606A40B1B0F5802F0AD1D8F8003043F047
:100C90008043C8F80030134672B1880536D516E097
:100CA00001220123880512D430E000BF0122012077
:100CB0008B06CAD4A5E700BFD8F8202022F48022F2
:100CC00010430022C8F820002B4688051ED5A56ACF
:100CD00075B1B5F5800F05D0B5F5000F3AD14FF4D9
:100CE000803000E04020D8F800703843C8F8000099
:100CF00010461AB10B0531D50BE000BFD8F824001F
:100D0000002220F440002843C8F8240018460B05B0
:100D100024D5E56A6FF0010303EB3533022B0AD3C8
:100D20004FEA35333BB1012B54D1D8F8003043F0B2
:100D30000053C8F80030134612B148054ED510E0F4
:100D4000D8F8242022F440522A43C8F82420002254
:100D500004E000BF012201200B05DAD40346480558
:100D60003CD5256B6FF0010000EB352002280BD33A
:100D70004FEA352040B1012840F04681D8F8000004
:100D800040F00050C8F800001046CAB1CB0428D487
:100D9000034688043CD418464B044FD40346080449
:100DA00000F163801846CB0340F17580D8F800301D
:100DB00043F00053C8F800308B0340F1DB806CE057
:100DC000D8F82400002220F440702843C8F82400FA
:100DD00004E000BF012201234805C2D41846CB0419
:100DE000D6D5656B4FEA3543052B00F27B824FF475
:100DF0008037DFE813F007007F027D02070007005D
:100E0000070000BF002A134600F07D828804C2D587
:100E1000A56B4FEA3520052800F282824FF4803717
:100E2000DFE810F0060086028402060006000600D5
:100E3000002A104600F085824B04AFD5E56B4FEADF
:100E40003533052B00F28A824FF48037DFE813F048
:100E500006008E028C02060006000600002A1346D9
:100E600000F08D8208047FF59DAF256C052D00F202
:100E700093824FF40030DFE815F0070097029502E7
:100E800007000700070000BF002A104600F0958207
:100E9000CB033FF58BAF8B036CD5A36CB3F1006F25
:100EA00007D0002B58D1D8F8007047F00057C8F889
:100EB0000070002A154655D008035ED42B46C802A0
:100EC00071D418464B0200F184800346080200F1F9
:100ED000B5801846CB0100F1C6800346880100F1B9
:100EE000D88018464B0100F1EC800346C80000F1A1
:100EF000008118468B0000F112810346480000F182
:100F000024811846B1F1FF3F00F32B81A36F6FF0EE
:100F1000010707EBB337022F0AD34FEAB3373FB1CC
:100F2000012F07D1D8F8007047F08057C8F800703B
:100F3000002A5DD00120090140F1168158F81C1CDF
:100F4000D4F8802021F40041114348F81C1C0028EB
:100F500018BF0120BDE8F0810122012508030CD44F
:100F6000ACE700BFD8F8202022F000621A43C8F88E
:100F70002020002205460803A0D5E06C4FEA304748
:100F8000042F00F21F814023DFE817F0280122011F
:100F900026010600060000BF002A134600F0278144
:100FA000C8027FF58EAF256D4FEA3557052F00F249
:100FB00011824020DFE817F092029002140206002E
:100FC00006000600002A104600F091824B027FF5D1
:100FD0007CAFA56E4FEA3567032F1BD84023DFE8AF
:100FE00007F021031F2600BF4FF480231AE000BF43
:100FF000D8F8202022F440421A43C8F820200901E2
:1010000040F1B2809AE700BF01220120CB043FF5F6
:10101000E8AEBDE60122012308020FD459E700BF64
:101020004FF00053D8F800703B43C8F80030002A56
:10103000134600F0B98008027FF54BAFA56D4FEA6B
:101040003527042F00F2E0804020DFE817F0E900A8
:10105000E300E70005000500002A104600F0E980E3
:10106000CB017FF53AAFE56D4FEA3517042F00F25B
:10107000ED804023DFE817F0F600F000F4000600F2
:10108000060000BF002A134600F0F58088017FF5B6
:1010900028AF256E4FEA3510052800F2A5814FF4E0
:1010A0000037DFE810F00700A901A70107000700DB
:1010B000070000BF002A104600F0A7814B017FF512
:1010C00014AF656E4FEA3513052B00F2AB814FF478
:1010D0000037DFE813F00700AF01AD01070007009C
:1010E000070000BF002A134600F0AD81C8007FF55D
:1010F00000AFE56E052D00F2B3814FF40030DFE85C
:1011000015F00700B701B50107000700070000BF91
:10111000002A104600F0B5818B007FF5EEAE256FFA
:10112000052D00F2BB814FF40033DFE815F0070016
:10113000BF01BD0107000700070000BF002A1346DA
:1011400000F0BD8148007FF5DCAE656F002D18BF53
:10115000B5F5805F0ED11046CAB1B1F1FF3F7FF700
:10116000D5AE09013FF5EAAE002818BF0120BDE861
:10117000F08100BFB5F5005F40F08A80D8F800002C
:1011800040F08050C8F80000002A1046E5D1D8F899
:101190002000002220F440502843C8F820001846C0
:1011A000B1F1FF3FDDDCB1E6D8F8242022F0407237
:1011B0002A43C8F824200022034608027FF589AE9E
:1011C0003CE700BF01220123C8023FF5ECAE78E600
:1011D0004FF4803302E000BF4FF00063D8F8007096
:1011E0003B43C8F80030002A13467FF4D9AED8F844
:1011F000282022F4E02210430022C8F828002B46C1
:10120000C8027FF55EAECEE601220120CB013FF59C
:101210002AAF62E64FF4803002E000BF4FF000607A
:10122000D8F800703843C8F80000002A10467FF450
:1012300017AFD8F82800002220F4E0602843C8F84F
:1012400028001846CB017FF548AE0CE701220123A8
:1012500088013FF51EAF44E64FF4803302E000BF43
:101260004FF00063D8F800703B43C8F80030002A04
:1012700013467FF40BAFD8F8242022F070022A43E3
:10128000C8F824200022034688017FF52AAE00E733
:1012900001220120B1F1FF3F3FF763AF36E600BF07
:1012A0000122012548067FF5E7ACFFF7ADBC00BF82
:1012B0004FF00065D8F800702F43C8F80070002A7E
:1012C00015467FF4D7ACD8F8202022F4E0021A4368
:1012D000C8F820200022054648067FF5CDACFFF770
:1012E00093BC00BF0122012388043FF591AD52E574
:1012F0004FF00057D8F800303B43C8F80030002AC0
:1013000013467FF483ADD8F8242022F4E0222A4348
:10131000C8F824200022034688047FF53CAD77E519
:10132000012201204B043FF589AD37E54FF000570E
:10133000D8F800003843C8F80000002A10467FF4AF
:101340007BADD8F82C00002220F4E0602843C8F8D8
:101350002C0018464B047FF521AD6FE501220123D7
:1013600008043FF582AD1DE54FF00057D8F8003076
:101370003B43C8F80030002A13467FF473ADD8F819
:101380002C2022F4E0422A43C8F82C2000220346F5
:1013900008047FF507AD68E501220120CB037FF546
:1013A0007AAD03E54FF08050D8F800703843C8F8A4
:1013B0000000002A10467FF46BADD8F82C00002204
:1013C00020F007002843C8F82C001846CB037FF50F
:1013D00062ADEBE4012201204B023FF5FAAD74E56A
:1013E0004FF000607AE000BF012201204B013FF581
:1013F00068AE7AE54FF08057D8F800003843C8F857
:101400000000002A10467FF459AED8F828000022C8
:1014100020F070002843C8F8280018464B017FF5DB
:1014200064AD4EE601220123C8003FF562AE60E5DF
:101430004FF08057D8F800303B43C8F80030002AFE
:1014400013467FF453AED8F82C2022F070022A43C2
:10145000C8F82C2000220346C8007FF54AAD48E6B4
:10146000012201208B003FF55AAE46E54FF0805037
:10147000D8F800703843C8F80000002A10467FF4FE
:101480004BAED8F82800002220F007002843C8F807
:10149000280018468B007FF530AD40E6012201237D
:1014A00048003FF552AE2CE54FF08053D8F800705D
:1014B0003B43C8F80030002A13467FF443AED8F807
:1014C000242022F007022A43C8F8242000220346E1
:1014D00048007FF516AD38E64FF48030D8F800703C
:1014E0003843C8F80000002A10467FF46FADD8F8E2
:1014F0002800002220F4E0002843C8F828001846FD
:101500004B027FF5E2AC64E52DE9F04381B00028A1
:1015100000F0188142F200080446C5F2002889460E
:10152000D8F8000000F03F0088420ED2D8F8000042
:1015300020F03F0040EA0900C8F80000D8F8000099
:1015400000F03F00484540F0FD80206844F220470D
:101550004107C5F602070AD521693A6802F0070279
:10156000914204D93A6822F0070211433960010719
:101570000AD561693A6802F07002914204D93A686A
:1015800022F0700211433960C1060AD5A1693A6898
:1015900002F4E062914204D93A6822F4E062114315
:1015A000396081060AD5E1693A6802F4E042914265
:1015B00004D93A6822F4E0421143396010F0020184
:1015C0000DD0E26857F8043C03F00F039A4206D9A5
:1015D00057F8043C23F00F031A4347F8042CC207C2
:1015E00047D057F8081CD4E9010221F00F01012867
:1015F00041EA020147F8081C08D003280CD0022851
:1016000010D157F8201C890311D49BE057F8201CF7
:10161000C9050CD496E000BF57F8201C890106D4F8
:1016200090E000BF57F8201C490740F18B8057F825
:10163000101C21F00701084347F8100CFFF728F8A9
:10164000064641F2883500BF57F8100C616800F07B
:101650003800B0EBC10F09D0FFF71AF8801BA84281
:10166000F2D9032001B0BDE8F08300BF206800F08C
:10167000020169B1E16857F8042C02F00F029142AF
:1016800006D257F8042C22F00F02114347F8041C2D
:10169000D8F8001001F03F0149450DD9D8F80010E5
:1016A00021F03F0141EA0901C8F80010D8F8001004
:1016B00001F03F01494545D141070AD521693A6802
:1016C00002F00702914204D23A6822F00702114365
:1016D000396001070AD561693A6802F070029142E7
:1016E00004D23A6822F0700211433960C1060AD56B
:1016F000A1693A6802F4E062914204D23A6822F4A5
:10170000E0621143396080060AD5E069396801F466
:10171000E041884204D2396821F4E041084338604E
:1017200000F016F840F2040140F20802C2F2004153
:10173000C2F2004209681060084601B0BDE8F043FB
:10174000FEF7CEBF012001B0BDE8F083000000002D
:1017500080B544F20040C5F602000169C1F3C20140
:1017600003290FD0022921D031BB0168890629D570
:10177000016849F20002C0F2D032C1F3C10122FA7D
:1017800001F166E0826A816AC36AD0F834C0C1F3AD
:101790000511B9B102F00302022A15D0C2B90268DC
:1017A000920619D49FED310A45E000BF43F2006173
:1017B000C0F26E114DE000BF40F60011C0F23D01D5
:1017C00047E000BF002144E09FED270A11E000BF81
:1017D0009FED240A0DE000BF0268C2F3C10E49F27A
:1017E0000002C0F2D03222FA0EF200EE102AB8EE59
:1017F000400A03F001029FED1E3A524202EADC0267
:101800006FF35F3201EE102A026B6FF35F2202EE7C
:10181000102AB8EE411AB8EE422A01EE032A01EE70
:10182000101AB7EE003AB8EE411A80EE010A32EE15
:10183000031A20EE010A016BC1F34621013101EECA
:10184000101AB8EE411A80EE010ABCEEC00A10EE82
:10185000101A806900F00F00073838BF002021FA05
:1018600000F080BD0024744A001BB74B000000004C
:1018700000000039000000002DE9F04F81B0002881
:1018800074D044F200478346C5F602073869B96A46
:10189000D7F800A09BF8002000F0380801F00309F9
:1018A000D2070FD0B8F1100F07D01AF0285F00F060
:1018B000B580B9F1020F40F0B180DBF804000028D8
:1018C00000F013819BF80000800755D49BF80000BE
:1018D000C0060FD5B8F1080F07D01AF0285F00F046
:1018E0001B81B9F1010F40F01781DBF820000028BF
:1018F00000F0FB809BF8000000075DD49BF800001F
:10190000800673D49BF80000400700F1B780594669
:1019100051F8240F002800F04E81B8F1180F40F064
:101920004181012800F0E180786BDBF84810C0F3BA
:10193000CC00814200F03F81F86A20F00100F8629B
:10194000FEF7A6FE054600BFFEF7A2FEA842FBD0AA
:10195000786B4FF6F871DBF84820884340EAC20004
:101960007863F86A40F00100F86224E10125284616
:1019700001B0BDE8F08F00BFB8F1000F05D01AF03C
:10198000285F59D0B9F1000F56D1DBF80C000028C0
:1019900000F0AB80B9F1000F386840F081801AF098
:1019A000285100F07D8000F01800DBF8101088420C
:1019B00040F09B8076E000BFDBF818000028786FCD
:1019C00000F0988040F001007867FEF761FE054660
:1019D000786F800792D4FEF75BFE401B0128F7D991
:1019E0000325284601B0BDE8F08F00BFDBF81C00DE
:1019F0000028386800F0B68040F480503860FEF768
:101A000047FE0646032500BF386880043FF57AAFDD
:101A1000FEF73EFE801B0128F6D9A8E7DBF804009C
:101A2000B0F5A02F80F29080002800F00381B0F57F
:101A3000803F00F0258127E1DBF80C0039680028A1
:101A400000F0E08021F01901DBE904231143084391
:101A50003860786820F0FE4040EA03607860FEF766
:101A600017FE0646032500BF386840073FF52EAF36
:101A7000FEF70EFE801B0128F6D978E7D7F80004A0
:101A800040F48070C7F80004DBF80800042800F375
:101A90007B80002800F02081012800F0418143E193
:101AA000DBF810003968B8F1000F21F0180140EAA6
:101AB000010040F0010038600DD1386840F20802A2
:101AC00049F20001C2F20042C0F3C100C0F2D031BD
:101AD00021FA00F0106040F20400C2F200400068F9
:101AE000FEF7FEFD002800F083800125284601B0A6
:101AF000BDE8F08F20F001007867FEF7C9FD0646CB
:101B0000032500BF786F80077FF5F8AEFEF7C0FDB4
:101B1000801B0128F6D92AE7DBF820000028386866
:101B200000F0948040F080003860FEF7B1FD06467A
:101B3000032500BF3868C0053FF5DCAEFEF7A8FD01
:101B4000801B0128F6D912E700F09280B0F5502FE3
:101B500040F09A80386840F480203860386840F45B
:101B600000208CE020F480503860FEF791FD06469E
:101B7000032500BF386880047FF5C4AEFEF788FDFA
:101B8000801B0128F6D9F2E6052800F0C1808528DF
:101B900040F0CA80386F40F004003867386F40F07A
:101BA0008000BCE000200125CBF8445000F044FE4A
:101BB00000287FF4DCAE594651F84C0F30B10120BB
:101BC000012500F039FE00287FF4D1AE594651F8C6
:101BD000740F48B302200125CBF8945000F02CFE7E
:101BE000002808BF0025284601B0BDE8F08F00BFDF
:101BF0007868DBF8141020F0FE4040EA016078605D
:101C000064E600BF21F001003860FEF741FD0646A2
:101C1000032500BF386840077FF558AEFEF738FD52
:101C2000801B0128F6D9A2E60025284601B0BDE8B0
:101C3000F08F00BF386820F480303860386820F4B6
:101C400000203860386820F4802028E020F08000F0
:101C50003860FEF71DFD0646032500BF3868C00545
:101C60007FF548AEFEF714FD801B0128F6D97EE60D
:101C7000386840F480203860386820F400203860EC
:101C8000386840F480300AE0386820F480303860EA
:101C9000386820F480203860386820F400203860EC
:101CA000FEF7F6FCDBF8041006464FF0030579B1A9
:101CB000386880033FF506AEFEF7EAFC801B642817
:101CC000F6D954E6FEF7E4FC801B64283FF64FAEDD
:101CD00038688003F6D4F5E5386F20F001003867E6
:101CE000386F20F080003867386F20F004003867C4
:101CF000FEF7CEFC064641F288390325386F80078F
:101D00007FF505AEFEF7C4FC801B4845F6D92EE6EC
:101D1000386F40F004003867386F20F08000386773
:101D2000386F40F001000AE0386F20F0010038679A
:101D3000386F20F004003867386F20F08000386773
:101D4000FEF7A6FC064641F288340325386F80076B
:101D50003FF5DDADFEF79CFC801BA042F6D906E600
:101D6000411E0020B0EB116F02D00120704700BF70
:101D70004EF21002F023CEF2000251604EF62351D3
:101D8000CEF200010B7007219060116070470000D7
:101D90004EF21000CEF20000016821F00201016055
:101DA00070470000000000002DE9F0434BF20042B4
:101DB00045F2000CC5F20022C5F2002CD2F80080DA
:101DC0001368DB0648BF1368D2F8009016681368E2
:101DD000DB0648BF1368DCF80030DB0702D10023C4
:101DE00007E000BFDCF8003023F00103CCF800303E
:101DF00001234AF2000EC5F2002EDEF80070FF0744
:101E000006D0DEF80070023327F00107CEF800702C
:101E10000027176017688C68002527F47F07CFF626
:101E2000FF7505EB04443C431460076877450DD00B
:101E3000674521D189EA5604D1E90050012121EA00
:101E4000040175B16FF0300407E000BFD1E9005123
:101E5000C8F340002DB16FF05004166834402C4395
:101E60001460884210D0012814D0D80718D19807E0
:101E70001ED40020BDE8F083816D41F0080181652A
:101E80000120BDE8F08300BF116841F0010111603D
:101E90000128EAD1106840F002001060D807E6D0AF
:101EA000DCF8000040F00100CCF800009807E0D515
:101EB000DEF8000040F00100CEF800000020BDE890
:101EC000F0830000000000002DE9F04381B01546CA
:101ED0000F460446FEF7DCFB2168D1F84880D1F8B4
:101EE0001091626D042A39D10646F868B0F5800F6A
:101EF00034D1086A800641D497E80D10C1F88800F3
:101F0000C1F880203869C1F89000086820F043507B
:101F1000184340EA0C0040F000500860E068B0F15F
:101F2000806F04D0D1F8000110F4E06F4ED0C1F8FA
:101F30004880086A00074ED4002D55D0681C13D184
:101F4000086A000747D4086A00075CBF086A5FEAAE
:101F5000007040D4086A0007F2D53CE01020A0656C
:101F6000012001B0BDE8F083FEF792FB801BA84280
:101F70003CD82168086A0007F6D52CE0D5B1681C6A
:101F800012D1086A8006B7D5086A800644BF086A7D
:101F90005FEA8060B0D5086A8006F2D4ACE700BF83
:101FA0002168086A8006A7D5FEF772FB801BA8424D
:101FB000F6D901E0FEF76CFB02206065A16D41F0EF
:101FC0000101A16501B0BDE8F08300BFC1F8109127
:101FD000086A0007B0D5082048620220606500202A
:101FE00001B0BDE8F08300BFFEF752FB0220606540
:101FF000A06D40F00100A065032001B0BDE8F083B2
:10200000F0B581B015460F460446FEF741FB616D01
:102010000646242908D014291AD002291DD1E068C7
:10202000B0F1806F05D118E0386840F00200032855
:1020300013D12068016A890614D40020A0652046C7
:10204000394600F0E5FD48B3012001B0F0BD00BF06
:10205000386820F001000228EBD01020A065012094
:1020600001B0F0BD25B3691C12D1016A8906E4D51F
:10207000016A890644BF016A5FEA8161DDD5016AB0
:102080008906F2D4D9E700BF2068006A8006D4D55B
:10209000FEF7FEFA801BA842F6D90BE0B86B88B1B8
:1020A0003868022834D0012838D0D0B33BE000BFD4
:1020B000FEF7EEFA02206065A16D41F00101A16515
:1020C00001B0F0BD2168086A800605D40020022214
:1020D0004A6201B0F0BD00BF55B3681C0ED1086A5A
:1020E0008006F3D5086A800644BF086A5FEA80600C
:1020F000ECD5086A8006F2D4E8E700BFFEF7C8FA1C
:10210000801BA84216D82168086A8006F6D4DDE74D
:10211000606D142805D0242004E000BF606D2428E1
:1021200004D104206065002001B0F0BD1420F9E75F
:10213000FEF7AEFA02206065A06D40F00100A065D8
:102140002168032002224A6201B0F0BD00000000B5
:102150002DE9F0410446FEF79BFA002C00F08C803C
:1021600005460020A065616D002918BFBDE8F0811B
:10217000204600F00DF9206804F10C0341F2883884
:10218000C4F85C804CF2FC070ECB8668CFF6E00703
:1021900037406FF0FF063943E76941EA024106EB39
:1021A0000322394311438160C168226A21F4E0218E
:1021B0001143C1600169226B21F4F81141EA024127
:1021C00001610169626B21F0FF0111430161A16BA3
:1021D00041610168626821F4F85106EB0222114363
:1021E0000160016A890608D5FEF752FA401B404596
:1021F0006AD82068016A8906F6D44AF20002C168EA
:10220000C5F2002221F0FF01636A904241EA030116
:10221000C16005D045F20001C5F20021884203D11A
:10222000E66D016A890631D44FF6BF720168CFF6B8
:10223000FF62E66B1140A2681143A369A76A3143AC
:102240000160022BD0F8081121F0804141EA07011A
:10225000C0F80811016841F00101016003D18168F3
:1022600041F002018160E068B0F1806F08D1012087
:1022700060650020BDE8F0810120BDE8F08100BF6D
:10228000022060650020BDE8F08100BFD6B1711C5E
:102290000ED1016A8906C7D5016A890644BF016A61
:1022A0005FEA8161C0D5016A8906F2D4BCE700BF4C
:1022B000FEF7EEF9401BB04206D82068016A890695
:1022C000F6D4B1E7FEF7E4F902206065A06D40F0B6
:1022D0000100A0650320BDE8F081000000000000BF
:1022E000F0B581B00D460446FEF7D2F9616D0429C0
:1022F0001ED106462068E76D016A89061ED4882132
:1023000061652968082908D16A68C0F8302110225F
:102310004262026842F480120260026822F00802FF
:10232000114341F040510160002001B0F0BD00BFF9
:102330001020A065012001B0F0BD00BFD7B1791C0D
:102340000ED1016A8906DAD5016A890644BF016A9D
:102350005FEA8161D3D5016A8906F2D4CFE700BF75
:10236000FEF796F9801BB84206D82068016A8906F4
:10237000F6D4C4E7FEF78CF902206065A06D40F04A
:102380000100A065032001B0F0BD000000000000C6
:102390002DE9F043A7B001A90446081D8021FEF7EE
:1023A0000DF845F200012068C5F20021884203D0F3
:1023B00027B0BDE8F08300BF1020039001A84FF0C4
:1023C0000208CDF80480FEF7E7FA08B1FEF764F8DA
:1023D00044F2345043F60004C5F60200C5F6020488
:1023E00022AD4FF000090168032641F480410160ED
:1023F000016822912299016841F020010160016881
:1024000022912299C16841F48041C160C168229142
:102410002299C16841F40041C160C06822902298AD
:102420001120CDE9220820462946CDF890900927B1
:1024300025962697FEF748F822A90F20CDE92567B3
:1024400081E8010304F580602946FEF73DF827B0D6
:10245000BDE8F083000000002DE9F04381B015468F
:102460000F460446FEF714F926688046002FB06C2C
:10247000D6F8101178D0626D042A7BD1326C01231A
:102480000132A264A26C62642764326863F31D7235
:102490003260E268B2F1806F04D0D6F8002112F405
:1024A000E06F79D0B06415F1010900F08A80002D49
:1024B00046D100BF2068006A10F0060F60D096F881
:1024C00050003870206CA16C471C2764481EA06423
:1024D000A06C0028EED12068016A89071CD4002D69
:1024E0004ED0B9F1000F0DD1016A890714D4016AE9
:1024F00089075CBF016A5FEA81710DD4016A8907AF
:10250000F2D509E0FEF7C4F8A0EB0800A84239D8DC
:102510002068016A8907F5D50221416261650020C2
:1025200001B0BDE8F08300BF96F850003870206C11
:10253000A16C471C2764481EA064A06C0028CAD068
:102540002068006A10F0060FEED100BFFEF7A0F879
:10255000A0EB0800A84215D82068006A10F0060F0A
:10256000F4D0276CE0E700BF0820A065012001B08F
:10257000BDE8F0831020A065012001B0BDE8F08324
:10258000FEF786F802206065A06D40F00100A065AE
:10259000032001B0BDE8F083C6F8101115F1010960
:1025A0007FF485AF0DE000BF96F850003870206CC6
:1025B000A16C471C2764481EA064A06C00283FF44F
:1025C0008AAF2068016A11F0060FEDD1016A11F09F
:1025D000060F04BF016A11F0060FE5D1016A11F080
:1025E000060FEFD0E0E700002DE9F04381B015467B
:1025F0000F460446FEF74CF8002F6BD08046266845
:10260000606D04286CD1306C15F1010900F10100F6
:10261000A064A06C60642764306820F04050306093
:1026200036D0002D6ED100BF2068006A400779D5F2
:10263000387886F85000206CA16C471C2764481E2F
:10264000A064A06C0028EFD12068016A890739D402
:10265000002D67D0B9F1000F2AD1016A890731D462
:10266000016A89075CBF016A5FEA81712AD4016A45
:102670008907F2D526E000BF387886F85000206C34
:10268000A16C471C2764481EA064A06C0028DBD006
:102690002068016A4907EFD4016A49075CBF016AF3
:1026A0005FEA4171E8D4016A4907F2D5E4E700BF67
:1026B000FDF7EEFFA0EB0800A84235D82068016ABC
:1026C0008907F5D5022141626165002001B0BDE8AE
:1026D000F08300BF0820A065012001B0BDE8F083B1
:1026E0001020A065012001B0BDE8F083387886F89D
:1026F0005000206CA16C471C2764481EA064A06C8D
:102700000028A1D02068006A4007EFD4FDF7C0FF81
:10271000A0EB0800A84207D82068006A4007F5D55A
:10272000276CE3E7FDF7B4FF02206065A06D40F081
:102730000100A065032001B0BDE8F08300000000A7
:10274000FEE700000000000070B586B044F2405083
:102750000025C5F60200059540F2004400220168FC
:10276000C5F6020441F480410160016800910099BE
:10277000016841F00201016001680091009901685F
:1027800041F4004101600068009000980421204657
:102790000426FDF775FF012001A9CDE902052046B9
:1027A00001960495FDF790FE06B070BD0000000094
:1027B000B0B584B040F2800045F20001C2F20040A2
:1027C000C5F200210124002501604FF080714460B2
:1027D0008560C160162101610221C0E90515C0E9CB
:1027E0000755C0E90955C0E90C55C0E90E55FFF77A
:1027F000AFFC08B1FDF750FE102001A9CDE901059D
:1028000040F2800041F28832C2F200400394FFF7A8
:10281000CBFA08B1FDF740FE04B0B0BD00000000E7
:10282000FEE7000000000000FEE7000000000000DE
:1028300070470000000000002DE9F04F83B004460F
:1028400044F22C470B20C5F6020704FB00F9381DA3
:1028500001904FF47870884600FA09F039684FEA21
:10286000440B07F19402029221EA000038604FF015
:10287000807000FA0BFA57F82C0C20EA0A0047F88F
:102880002C0CFDF705FF4FF00071064601FA0BF521
:1028900057F82C0C284209D0FDF7FAFE801B32288D
:1028A000F6D9032003B0BDE8F08F00BFD8F80000D0
:1028B00002280FD1D8F8040002281DD010BB57F809
:1028C0002C1C49F20002C0F2D032C1F3C101CA404F
:1028D0001DE000BFE0004FF47C71043057F8042C79
:1028E00001FA00F022EA000040F0030047F8040C6F
:1028F000002003B0BDE8F08F43F20062C0F26E1218
:1029000005E000BF40F6FF01C0F23D014A1CD8F8C7
:1029100008E0B2FBFEF341F2FF12C0F27A029342EA
:1029200002D94FF0180C13E040F6FF02C0F23D024E
:10293000934203D94FF0100C0AE000BF48F27F46E3
:102940004FF0020CC0F21E06B34288BF4FF0080CD5
:10295000E6004FF47C72B2406FF0030157F8043C7C
:102960005140321D19400EFA02F21143014347F85B
:10297000041C57F8041C01F0030181425ED11B20A6
:10298000396800FA09F008F10C030CFA09F221EA9F
:102990000000104338604FF600660FCBCFF6FF768D
:1029A000A0F1010006EB412140EA010040F20001E4
:1029B000CFF6FF7101EB0241A3F1010240EA0100F1
:1029C000019940EA02606FF0FF0241F82B00D8E95C
:1029D0000701A0F1010002EB012140EA0100029988
:1029E00041F824001CB9386840F020003860D8F85D
:1029F000240070B107EB8B014FF6F8738A689A4395
:102A000042EAC00088600120396800FA09F00843F2
:102A1000386057F82C0C40EA0A0047F82C0CFDF7F8
:102A200037FE044657F82C0C28427FF461AFFDF7BF
:102A30002FFE001B3228F5D933E700BF012003B079
:102A4000BDE8F08F000000007047000000000000AB
:102A5000FDF726BE0000000070B5B0B009A89021B7
:102A60000C30FDF7ABFC01200024CDE90744CDE993
:102A70000544CDE90344CDE901440125FDF74CFFB0
:102A800010B172B6FEE700BFFDF77AFF44F2704165
:102A90000220C5F6020104260A6860F3C4020A6037
:102AA000CDE9120014900521CDE91700CDE91900F8
:102AB000CDE91B401D90CDE920002290CDE9236097
:102AC00009A809914FF48031CDE90A153221CDE9E9
:102AD00015150325CDE91E51CDE92544FEF7CCFEA1
:102AE00010B172B6FEE700BF3F203721CDE90105E6
:102AF000002003900820CDE90406402006904FF402
:102B0000806007904FF48040089001A8FEF7FCFC1D
:102B100010B172B6FEE700BF30B070BD000000001B
:102B20004EF6885140F20000CEF20001C0F60000DF
:102B300041F8800C086840F470000860704700009D
:102B4000FEE7000000000000F0B599B006AC0546B5
:102B5000032700284FF04401204608BF0127FDF756
:102B60002DFC0620089040F2800041F28832C2F22B
:102B70000040214609970026CDE91766FFF740FA85
:102B800030BB201D3421FDF719FC052008904FF4BF
:102B900000500696CDE90E064FF040700B96CDE939
:102BA0000976CDE90C66002D119608BF4FF08070B4
:102BB00041F28832214614900120159040F28000A5
:102BC000C2F200401696CDE91766FFF719FA18B160
:102BD0004FF0FF3019B0F0BD022001A9CDE901008E
:102BE000002003900A2005904FF48000049040F2EA
:102BF000800041F28832C2F20040FFF765F90028F8
:102C000018BF4FF0FF3019B0F0BD00000000000009
:102C10002DE9F047026883681768002B27F04053BE
:102C200013600DD00B68032B13D0022B1AD102F5C1
:102C3000C07E02F5C47302F5C87C02F5D07419E0B9
:102C400013684F6823F040433B4313600B68032B2A
:102C5000EBD102F5A07E02F5A47302F5A87C02F583
:102C6000B07407E002F5807E02F5847302F5887C7B
:102C700002F590748D6CCEF80050CD6A6DB18D6AFE
:102C80002560DEF80040CD6A24F47C144E6B2C43A2
:102C90000D6B34432C43CEF800401C684D6C24F07F
:102CA0001F042C431C608B6BDBB10C6844B10C6CB3
:102CB000B4F1006F0BD1D2F8084124F080440EE04B
:102CC000CC6B013C14640C6CB4F1006FF3D0846ADB
:102CD000B4F1804F05D1D2F8084144F08044C2F8E5
:102CE0000841CD68CC69BDB1DEF80070D1E904A619
:102CF00024B3D1E908898BB34CF2C000CFF2FF00B6
:102D000038400F6C3843304340EA0A0040EA09007B
:102D100040EA080018432CE0A4B3DEF80060D1E9D3
:102D20000807ABB34CF2C005CFF2FF053F352E408C
:102D30000D6C2E433743384318432DE0B3B34CF2A8
:102D4000C0000C6CCFF2FF0000F57C5038402043EF
:102D5000304340EA0A0018432DE000BF43F63F70BD
:102D600027EA0000304340EA0A0040EA090040EA4E
:102D7000080028432043CEF800008868CCF8000003
:102D80000DE000BF0823836501208B6BEBB90BE0DE
:102D900026F47C533B4318432043CEF80000886957
:102DA000906400208B6B83B9BDE8F08727F03F006B
:102DB000304340EA0A002843CEF800008868CCF887
:102DC000000000208B6B002BEED00B68002B18BF8F
:102DD000BDE8F087C96B01391164BDE8F0870000D8
:102DE000F0B595B040F26C0002ACC2F200403C215C
:102DF0000578201DFDF7E2FA03210026CDE90066E3
:102E00000120002D02904FF00B0008BF0121079612
:102E1000002D05914FF44077069641F2883208BFA5
:102E2000EB200997002D04904FF400500A904FF4C6
:102E300040300D904FF0FF000C904FF008000B96C3
:102E400021460F960E9608BF0420129613904FF05D
:102E50004070109040F28000C2F200401496FFF7DC
:102E6000CFF8A8B90220002D08BF4FF48077029058
:102E700002A908BF322041F288320997049040F23B
:102E80008000C2F200400D961396FFF7B9F818B112
:102E90004FF0FF3015B0F0BD0020009040F28000F0
:102EA0006946C2F20040FFF71BFA002818BF4FF036
:102EB000FF3015B0F0BD00002DE9F04F95B00520B2
:102EC000FDF7EEFA02AD44212846FDF777FA40F20D
:102ED000800B41F28832C2F2004B294658464FF02F
:102EE0000309CDF814904FF06608CDF81080002744
:102EF000CDE91377FFF784F802AD44212846FDF7AA
:102F00005DFA41F2883258462946CDF814904FF0C8
:102F1000990ACDF810A0CDE91377FFF771F802AD4B
:102F200044212846FDF74AFA41F28832584629469C
:102F30000126CDE90486CDE91377FFF761F802ADEC
:102F400044212846FDF73AFA41F28832584629468C
:102F5000CDE904A6CDE91377FFF752F80520FDF778
:102F60009FFA40F26C0802ADC2F2004803243821F7
:102F7000284698F80060002E08BF0124FDF71EFACD
:102F80004FF0407105949F20002E049041F288324A
:102F900008BF4FF0807158461497CDE910192946A3
:102FA000CDE91277FFF72CF8D8B940F280000DF187
:102FB0000501C2F2004041F28832FFF74DFA80B9B4
:102FC0009DF805009DF806109DF80720090241EACA
:102FD00000401044C8F8040008F1010000F094F823
:102FE00020B14FF0FF3015B0BDE8F08F00F008F8C9
:102FF000002818BF4FF0FF3015B0BDE8F08F00007B
:10300000F0B595B040F26C00C2F200400478012C9B
:1030100031D001AD032638212846002C08BF0126F7
:10302000FDF7CCF94FF040770496352003904FF42C
:103030000050002C09904FF0000008BF4FF080773F
:1030400011900121CDE9120040F280001091C2F2EE
:10305000004041F2883229460F97FEF7D1FF50B960
:1030600040F280000DF10301C2F2004041F28832CB
:10307000FFF7F2F920B14FF0FF3015B0F0BD00BFFF
:103080009DF80300800739D42046FFF75DFD002836
:10309000F1D19DF8030001AC382140F002008DF819
:1030A00003008DF853002046FDF788F93120039086
:1030B0004FF40050099000201190CDE9120040F229
:1030C000800001211091C2F2004041F28832214675
:1030D00004960F97FEF794FF0028CCD140F28000B1
:1030E0000DF15301C2F2004041F28832FFF77CFA41
:1030F000002818BF4FF0FF3015B0F0BD002015B00C
:10310000F0BD0000000000002DE9F04194B040F255
:103110006C0801ADC2F2004803260446382198F835
:1031200000702846002F08BF0126FDF747F94FF031
:1031300040710496052003904FF40050002F099031
:103140004FF0000008BF4FF08071119041F28832BB
:10315000CDE9120040F280000F9101211091C2F2DE
:1031600000402946FEF74CFF002866D140F280005F
:1031700041F28832C2F200402146FFF76DF9002883
:103180005BD198F8006001AD032738212846002E56
:1031900008BF0127FDF712F94FF040710497352061
:1031A00003904FF40050002E09904FF0000008BF2C
:1031B0004FF08071119041F28832CDE9120040F257
:1031C00080000F9101211091C2F200402946FEF7C4
:1031D00017FF90BB40F28000611CC2F2004041F238
:1031E0008832FFF739F940BB98F8006001AD03273A
:1031F00038212846002E08BF0127FDF7DFF84FF0E1
:1032000040710497152003904FF40050002E099050
:103210004FF0000008BF4FF08071119041F28832EA
:10322000CDE9120040F280000F9101211091C2F20D
:1032300000402946FEF7E4FE20B14FF0FF3014B005
:10324000BDE8F08140F28000A11CC2F2004041F2D2
:103250008832FFF701F9002818BF4FF0FF3014B093
:10326000BDE8F0810000000086B04EF614554FF026
:103270000108CEF20005CDF80880FDF78DFA002098
:103280000026FDF79DFA0120FDF79AFA0220FDF7CE
:1032900097FA0320FDF794FA0420FDF791FA052030
:1032A000FDF78EFA0620FDF78BFA0720FDF788FA66
:1032B0000820FDF785FA0920FDF782FA0A20FDF7BC
:1032C0007FFA0B20FDF77CFA0C20FDF779FA0D2030
:1032D000FDF776FA0E20FDF773FA0F20FDF770FA6E
:1032E00002AC48F21F7004902046039640F201178A
:1032F0000597FDF71DFA4FF01040039016208DF84A
:103300000980C0F20130049020468DF81460ADF8B9
:103310001670FDF70DFA0420FDF75EFA28688003A9
:1033200011D4BFF34F8FBFF36F8FC5F83C62BFF36B
:103330004F8FBFF36F8F286840F400302860BFF3D1
:103340004F8FBFF36F8F2868C0035BD400202867BE
:10335000BFF34F8FE96E0123CA0843F6E07AC1F349
:10336000C907C1F34E30A7F1020903EBD1017B1E5F
:103370004FEA827B01F003044FEA83784FEA8971B8
:103380000191F91E009103E00028A0F101002FD067
:103390000AEA401639469CB1012C4BEA0601C5F8F1
:1033A0004C1219460CD0022C48EA0601C5F84C1202
:1033B000494605D001993143C5F84C12009900BF28
:1033C000032FE1D346EA8176013106F1404286F0CF
:1033D000004C06F1804E00BF0439C5F84C62C5F8B8
:1033E0004C22C5F84CC2C5F84CE2F5D1CCE700BF81
:1033F000BFF34F8F286840F480302860BFF34F8FB1
:10340000BFF36F8F0024C2F6F874FDF759F9FFF788
:1034100023FBFFF799F9FFF7CBF9FFF74DFDFFF716
:10342000DFFC4FF01040006800EA040141F08061C9
:10343000B1F1105F08D004F180510840B0F1405F55
:1034400018BF002840F08B80FEF7A2FC286880039C
:103450000ED5BFF34F8FBFF36F8F286820F4003075
:1034600028600020C5F83C02BFF34F8FBFF36F8F79
:103470002868C0035CD500202867BFF34F8F2868F9
:10348000012320F480302860BFF34F8FE96E43F6AC
:10349000E07ACA08C1F3C907C1F34E30A7F10209A7
:1034A00003EBD1017B1E4FEA827B01F003044FEA5C
:1034B00083784FEA89710191F91E009104E000BF01
:1034C0000028A0F101002FD00AEA401639469CB12D
:1034D000012C4BEA0601C5F8601219460CD0022CEB
:1034E00048EA0601C5F86012494605D00199314302
:1034F000C5F86012009900BF032FE1D346EA817638
:10350000013106F1404286F0004C06F1804E00BFCA
:103510000439C5F86062C5F86022C5F860C2C5F814
:1035200060E2F5D1CCE700BFBFF34F8FBFF36F8FE1
:10353000042240F27C03C9F20002C2F20043EFF31E
:10354000108072B64FF0104145F80C1C12681A60DA
:10355000096881F3088880F310881868804740F272
:103560000044C5F6020400BF04212046FDF780F8A0
:103570006420FCF795FFF7E7F1EE100A4FF6FF71B4
:10358000C0F2C03120EA010040F04070E1EE100AC4
:1035900070470000C4350008000000240C00000043
:1035A00014030008C43500080000002000060000D5
:1035B00034030008D03500080C000024D8000000B7
:1035C0003403000801000000100000000090D00348
:04000005080002B13C
:00000001FF
