:020000040000FA
:1000000000F002F800F06EF814A696E8000CB24476
:10001000B344DA4501D100F065F8BAE80F000FA645
:1000200096E83000A5EB040504EB0607AAEB0704ED
:10003000A7F101074FEA15154FEA3414A4F10104A2
:10004000AC4201D300F04EF813F0010F18BFFB1AB9
:1000500043F0010300F001F8DBE718472C8B0000A8
:100060004C8B000010F0010F18BFC01911F0010FE8
:1000700018BFC91911F0020F18BF494421F003013C
:10008000103A24BF78C878C1FAD8520724BF30C8C4
:1000900030C144BF04680C60704700007047000026
:1000A00010F0010F18BFC01911F0010F18BFC919C6
:1000B00011F0020F18BF494421F00301002300246E
:1000C00000250026103A28BF78C1FBD8520728BF68
:1000D00030C148BF0B6070471FB508F003FD1FBD5E
:1000E00010B510BD08F0F8FB1146FFF7F5FF08F05A
:1000F00025FB08F016FC03B4FFF7F2FF03BC08F081
:100100003BFC000082B00848016841F48041016076
:10011000016801910199016841F4004101600068A2
:100120000090009802B070474045025810B500207A
:1001300006F0A2FB012002F031FA0948B82109EBD0
:100140000004204608F0A1FB0648484460600220F5
:1001500001F01CFF01460020BDE8104006F074BB12
:100160009801000050020000FEB5174C17481622F7
:100170004FF08073022100250126042749F804006E
:1001800009EB0400C0E9033200F114020563C0E981
:100190000955C0E901750562C0E90D55C56362C224
:1001A00005F0F8FA08B100F05FF9102000906946F8
:1001B00041F28832CDE9015609EB040006F0F8F966
:1001C00008B100F051F9FEBD50020000005000528D
:1001D0002DE9F045A7B0044601A88021043008F0BD
:1001E00054FB20682549884244D110204FF0020872
:1001F0000390CDF8048001A801F048FA08B100F09E
:1002000033F91F484FF0090A032600271D4C0168E7
:1002100041F480410160016822912299016841F016
:1002200020010160016822912299C16841F4804156
:10023000C160C16822912299C16841F40041C16046
:10024000C06822902298CDF898A02596CDE9238702
:100250001120229022AD2046294602F0A9FA0F2053
:1002600022902946CDE9256ACDE9238704F58060EF
:1002700002F09EFA27B0BDE8F08500BF00500052A2
:10028000344502580038025800680D49884218BFAA
:10029000704710B50B480C4C016821F48041016097
:1002A000016821F0200101602046112102F034FB99
:1002B00004F580600F21BDE8104002F02DBB00BFA7
:1002C00000500052344502580038025880B50420CE
:1002D00004F066FB08B100F0C7F8BDE8804004F008
:1002E00019BD00002DE9F041B0B000F0CFF85D4C31
:1002F00072B62068800310D4BFF34F8F0020BFF385
:100300006F8FC4F83C02BFF34F8FBFF36F8F20682D
:1003100040F40030206000F0B4F82068C0031CD422
:100320000020206743F6E07500F09FF800EA05061C
:100330001F461644C4F84C6206F14046013FF9D10D
:1003400020384E1E00293146F0D1BFF34F8F206870
:1003500040F48030206000F094F804F06BFF04F06B
:100360000BFF0020206743F6E075BFF34F8F206836
:1003700020F48030206000F078F800EA05061F467F
:100380001644C4F8606206F14046013FF9D12038B6
:100390004E1E00293146F0D1BFF34F8F0025982122
:1003A000BFF36F8FBFF34F8FBFF36F8F206820F4C1
:1003B00000302060C4F83C5200F063F809A8043013
:1003C00008F063FA01A8202108F05FFA0120012655
:1003D00004F024FB00B1FEE77D211F9102204FF0C5
:1003E0000808CDE925552490CDE92208CDE9200063
:1003F000CDE91C05CDE91800CDE91660042740249D
:1004000014211E914FF48051CDE91A012521159137
:1004100012A90E94CDE90C650990A1C109A800F0BC
:10042000ADF900B1FEE74FF480400890CDE90487B4
:1004300037214FF48060CDE906400020039003206F
:1004400002903F20019001A800F0A6FC00B1FEE759
:10045000FFF758FEFFF788FEFFF768FE002030B078
:10046000BDE8F08114ED00E0FEE7BFF34F8FE36ECF
:10047000DA08C3F34E31C3F3C903920748010133CD
:100480007047BFF34F8FBFF36F8F70470649054822
:1004900048440860D1F8800040F47000C1F8800042
:1004A000704700BF9401000008ED00E03848016982
:1004B000C1F3C202032A04D83649DFE802F0025C25
:1004C000090B0168384AC1F3C10122FA01F152E077
:1004D000364950E0826A816AC36ADB07C1F30511BD
:1004E00002D19FED2D0A0AE0436B9FED2C1AC3F356
:1004F000CC0300EE103AB8EE400A20EE010A41B1FA
:1005000002F00302022A06D0012A07D19FED251A24
:100510000EE000212FE09FED221A09E00268224B35
:10052000C2F3C10223FA02F201EE102AB8EE411A18
:1005300002EE101A016B6FF35F21B8EE422A81EED2
:10054000021A02EE101A016BC1F34621B8EE422ADC
:10055000013130EE020AB7EE002A30EE020A21EE37
:10056000000A01EE101AB8EE411A80EE010ABCEE44
:10057000C00A10EE101A806900F00F00073838BF6B
:10058000002021FA00F00A4949F80100704700BF35
:100590000044025800093D0000000000000000393E
:1005A000001BB74B0024744A0090D00300366E0144
:1005B0000C000000F8B508F0AFF85D4F044638684D
:1005C00040F0010038603868400706D408F0A4F80D
:1005D000001B0128F7D903241FE07868554C40F030
:1005E0008040786000F0B4F8A0420AD90020386159
:1005F000534849F80040514801F031F878B10124DE
:100600000BE04D480124016864F3050101600020FE
:1006100038614A4801F023F880B12046F8BD08F05F
:100620007BF8044641F28835386910F0380F14D051
:1006300008F072F8001BA842F6D9CCE708F06CF875
:10064000044641F28835386910F0380F0BD008F0B5
:1006500063F8001BA842F6D9BDE7374801220168BC
:1006600062F30501016008F057F80446386835491F
:10067000084038603868860308F04EF80546002EBA
:1006800003D5281B6428F5D9A5E7386820F08070C9
:1006900038603868840108F03FF80646002C04D51D
:1006A000701B03243228F4D9B7E7386820F0806043
:1006B00038603868040108F02FF80546002C04D58E
:1006C000A81B03243228F4D9A7E73868032420F0B4
:1006D000805038603868800005D508F01DF8401B50
:1006E0003228F7D999E718480024BC61FC613C62C4
:1006F000B862FC6240F2011114483863C7F8C010B8
:100700007C63B863C7F8C410FC633864C7F8C810CA
:100710007C64386820F4802038603C664FF0FF30FD
:10072000B866D7F8300140F48030C7F8300174E77C
:10073000004402580090D003002000520400000042
:100740000C00000065EDEEFF0002020280020101D4
:1007500080B500F021FC0649096801F00F01082965
:1007600004D304A2114411F8081CC84080BD00BF86
:100770001C44025801020304060708092DE9FC4D38
:10078000002800F02F81DA4F80463869B96AD7F81F
:1007900000B000F03800019001F0030A98F8000062
:1007A000C0070FD00198102807D01BF0285F00F079
:1007B000A680BAF1020F40F0A280D8F80400002809
:1007C00000F0108198F8000080074ED498F80000DF
:1007D000C0060FD50198082807D01BF0285F00F04D
:1007E0001681BAF1010F40F01281D8F820000028DC
:1007F00000F0F88098F80000000754D498F8000042
:10080000800666D498F80000400700F1B4804146A5
:1008100051F8240F002800F02881019A182A40F08E
:100820001C81012800F0DE80D8F84800796BC1F304
:10083000CC01884200F01981F86A20F00100F862CA
:1008400007F06AFF054607F067FFA842FBD0786B08
:100850004FF6F8718843D8F8481040EAC100786331
:10086000F86A40F00100F862FFE0019828B11BF03F
:10087000285F5FD0BAF1000F5CD1D8F80C000028D7
:1008800000F0B0803868BAF1000F40F092801BF0A1
:10089000285100F08E8000F01800D8F8101088421F
:1008A00000F089809EE0786FD8F81810002900F0D9
:1008B0009D8040F00100786707F02EFF0546786FB5
:1008C00080079BD407F028FF401B0128F7D9032598
:1008D00089E03868D8F81C10002900F0AE8040F498
:1008E000805000F0B7FE06460325386880043FF5C7
:1008F00089AF07F011FF801B0128F6D973E0D8F803
:100900000400002800F0E280B0F5502F00F0E880ED
:10091000B0F5A02F00F0EE80B0F5803F00F0F08041
:10092000386820F480303860386820F4802000F087
:10093000A8FEE8E03868D8F80C10002900F0B6806E
:10094000D8E9042320F01900104308433860786880
:1009500020F0FE4040EA0360786007F0DDFE0646C6
:100960000325386840073FF531AF07F0D5FE801BFF
:100970000128F6D937E0D7F8000440F48070C7F8B2
:100980000004D8F80800002800F0E880852800F06E
:10099000FF80052800F00481012800F00781386FEE
:1009A00020F001003867386F20F0040000F05BFE93
:1009B000FFE0D8F81000396821F01801084340F032
:1009C00001003860019840B938688249C0F3C1001D
:1009D00021FA00F0804949F80100804800F03FFE0C
:1009E00000285AD001252846BDE8FC8D20F00100E2
:1009F000786707F091FE06460325786F80077FF53C
:100A0000FDAE07F089FE801B0128F6D9EBE73868B8
:100A1000D8F82010002900F0918040F0800000F00C
:100A200019FE064603253868C0053FF5E3AE07F01A
:100A300073FE801B0128F6D9D5E720F4805000F022
:100A400009FE06460325386880047FF5DBAE07F013
:100A500063FE801B0128F6D9C5E700200125C8F8F0
:100A6000445000F0BDF80028BDD1414651F84C0F6C
:100A700028B10120012500F0B3F80028B3D1414688
:100A800051F8740F38B102200125C8F8945000F0D5
:100A9000A7F80028A7D10025A5E7D8F814007968A1
:100AA00021F0FE4141EA006078608FE620F001000D
:100AB00000F0D0FD06460325386840077FF586AE76
:100AC00007F02AFE801B0128F6D98CE7386820F44D
:100AD000803000F0D6FD3860386820F4802012E0C5
:100AE000386840F480203860386840F4002006E020
:100AF00000440258386840F4802000F0C2FD38609D
:100B0000386840F4803000F0A5FD0646D8F80400AF
:100B1000032578B1386880033FF554AE07F0FCFD3B
:100B2000801B6428F6D95EE707F0F6FD801B642879
:100B30003FF659AF38688003F6D443E620F08000D2
:100B400000F088FD064603253868C0057FF552AEE3
:100B500007F0E2FD801B0128F6D944E7386F20F04A
:100B6000010000F080FD3867386F20F0040038671E
:100B700007F0D2FD064641F2883A0325386F800718
:100B80007FF545AE07F0C8FD801B5045F6D92AE732
:100B9000386F40F004003867386F40F0800004E0A0
:100BA000386F40F0040000F05EFD3867386F40F0A9
:100BB0000100386707F0B0FD064641F2883403258E
:100BC000386F80073FF523AE07F0A6FD801BA042DB
:100BD000F6D908E70090D0030C00000004000000E4
:100BE0002DE9FF4D04460B20634F884604FB00FAB5
:100BF0004FF478704FEA440BF96A00FA0AF021EAE0
:100C00000000F8624FF0807000FA0BF13868039131
:100C1000884338604FF0007000FA0BF507F1C00010
:100C2000029007F13000019007F076FD0646386823
:100C3000284206D007F070FD801B3228F7D9032028
:100C400097E0D8F8000002280BD1D8F80400022859
:100C500015D0B0B939684A4AC1F3C10122FA01F18D
:100C600011E0E0004FF47C71043001FA00F0B96A41
:100C700021EA000040F00300B862002079E03F491B
:100C800001E040490131D8F80820B1FBF2F33E49B8
:100C90008B4201D9182109E03A498B4201D9102130
:100CA00004E03A4E0221B34288BF0821E3001E1D32
:100CB000B2404FF47C7606FA03F36FF003067340FC
:100CC000BE6A33401A430243BA62BA6A02F00302B0
:100CD00082424DD101FA0AF01B21FA6A08F10C0395
:100CE0002B4E01FA0AF122EA01010843F8620FCB08
:100CF00006EB0242274E013806EB41210843591EFC
:100D000010436FF0FF0240EA0160019941F82B00A7
:100D1000D8E90701013802EB01210843029941F8A3
:100D200024001CB9F86A40F02000F862D8F82400CA
:100D300070B107EB8B014FF6F8734A6B9A4342EAA6
:100D4000C00048630120F96A00FA0AF00843F8621B
:100D500038680399084300F07DFC0446386828424F
:100D60007FF48BAF07F0D8FC001B3228F6D966E77A
:100D7000012004B0BDE8F08D0044025800366E0139
:100D80000090D003FF083D00FF117A007F841E0011
:100D90000000FFFF00FEFFFF2DE9F845002800F0EE
:100DA000F080794D04468846286800F03F0088426C
:100DB0000BD2286820F03F0040EA0800286028682D
:100DC00000F03F00404540F0DC8020686F4F410755
:100DD0000AD521693A6A02F00702914204D93A6AB7
:100DE00022F007021143396201070AD561693A6AA4
:100DF00002F07002914204D93A6A22F07002114363
:100E00003962C1060AD5A1693A6A02F4E0629142E8
:100E100004D93A6A22F4E0621143396281060AD5A4
:100E2000E1693A6A02F4E042914204D93A6A22F452
:100E3000E0421143396210F002010AD0E268FB6916
:100E400003F00F039A4204D9FB6923F00F031A43FE
:100E5000FA61C20739D0D4E90101BA6922F00F0260
:100E60001143B961012807D0032809D002280BD10A
:100E7000396889030BD484E03968C90507D480E058
:100E80003968890103D47CE03968490779D5396923
:100E9000AA4621F007010843386107F03DFC0646E9
:100EA00041F288356068396901F03801B1EBC00F53
:100EB00007D007F031FC801BA842F3D90320BDE81E
:100EC000F8852068554600F0020151B1E168FA69E1
:100ED00002F00F02914204D2FA6922F00F0211438C
:100EE000F961296801F03F0141450AD9296821F0DB
:100EF0003F0141EA08012960296801F03F014145AD
:100F00003FD141070AD521693A6A02F007029142AE
:100F100004D23A6A22F007021143396201070AD566
:100F200061693A6A02F07002914204D23A6A22F090
:100F3000700211433962C1060AD5A1693A6A02F406
:100F4000E062914204D23A6A22F4E06211433962CB
:100F500080060AD5E069396A01F4E041884204D28A
:100F6000396A21F4E0410843386200F015F8084975
:100F700049F80100074859F80000BDE8F84507F0B6
:100F8000ADBB0120BDE8F8850020005200440258A6
:100F90000C00000004000000B0B53A480169C1F33C
:100FA000C20103290CD002291CD0E9B901688906C5
:100FB0001CD50168394AC1F3C10122FA01F157E099
:100FC000846A816AC36A426BC1F3051171B104F08E
:100FD0000304022C0CD074B90468A4060ED49FED4F
:100FE0002E0A37E0294943E0274941E000213FE04C
:100FF0009FED280A0CE09FED260A09E00468274DC2
:10100000C4F3C10425FA04F400EE104AB8EE400A15
:1010100003F001039FED223A5B4203EAD2026FF331
:101020005F3201EE102A026B6FF35F2202EE102A8C
:10103000B8EE411AB8EE422A01EE032AB7EE001AC2
:1010400032EE011A02EE101AB8EE422A80EE020ABF
:1010500020EE010A016BC1F34621013101EE101AA5
:10106000B8EE411A80EE010ABCEEC00A10EE101A6A
:10107000806900F00F00073838BF002021FA00F027
:10108000B0BD00BF0044025800093D0000366E01AB
:101090000024744A001BB74B000000000090D003EE
:1010A00000000039F0B585B0164F0D460646C0F376
:1010B0000340012114468140D7F830211143C7F87D
:1010C0003011032103910221019100210291C6F305
:1010D00007510491B1B200910B4941EA8020694661
:1010E00001F066FB3868F10004D420F0FE7028435C
:1010F000204304E020F07E4040EAC41028433860DA
:1011000005B0F0BD104402580000025802480168C2
:1011100041F48011016070470044025802480168A0
:1011200021F48011016070470044025880B5FFF738
:101130000FFB0449096801F00701033938BF00219A
:10114000C84080BD2044025880B5FFF701FB044928
:101150000968C1F30211033938BF0021C84080BDBE
:101160002044025880B5FFF7F3FA04490968C1F337
:101170000221033938BF0021C84080BD20440258F5
:1011800080B5FFF7E5FA04490968C1F30231033974
:1011900038BF0021C84080BD2044025810B5034824
:1011A0000068C0F3462000F068FA3EE2304402587E
:1011B000164A936A116BC3F3051038B110B500F0ED
:1011C00057FAE40704D19FED120A06E000207047A9
:1011D000546B9FED101A00F034FA03F00303022B56
:1011E00008D0012B09D013B913689B0608D49FEDD2
:1011F000081A09E09FED081A06E09FED081A03E0BF
:101200001268074B00F014FAFCE100BF00440258DA
:101210000000000000000039001BB74B0024744A96
:101220000090D00310B503480068C0F3064000F0FA
:1012300024FAFAE13044025810B503480068C0F3BC
:10124000066000F01AFAF0E13044025810B5034885
:10125000006800F0070000F010FAE6E1C044025810
:1012600010B503480068C0F3462000F0F6F9DCE151
:1012700038440258164A936A916BC3F3053038B16B
:1012800010B500F0F5F9240504D49FED120A06E02C
:1012900000207047D46B9FED101A00F0D2F903F0D4
:1012A0000303022B08D0012B09D013B913689B0646
:1012B00008D49FED081A09E09FED081A06E09FED9B
:1012C000081A03E01268074B00F0B2F99AE100BF78
:1012D000004402580000000000000039001BB74B1A
:1012E0000024744A0090D00310B503480068C0F38E
:1012F000064000F0B2F998E13844025810B50348AE
:101300000068C0F3066000F0A8F98EE13844025886
:1013100010B50348006800F0070000F09EF984E172
:10132000C444025810B503480068C0F3022000F01E
:1013300094F97AE1C444025810B503480068C0F338
:10134000462000F09CF970E140440258164A936A26
:10135000116CC3F3055038B110B500F089F964027F
:1013600004D49FED120A06E000207047546C9FEDF4
:10137000101A00F066F903F00303022B08D0012BCA
:1013800009D013B913689B0608D49FED081A09E029
:101390009FED081A06E09FED081A03E01268074B5C
:1013A00000F046F92EE100BF0044025800000000A2
:1013B00000000039001BB74B0024744A0090D00392
:1013C00010B503480068C0F3064000F058F92CE15E
:1013D0004044025810B503480068C0F3066000F0AE
:1013E0004EF922E14044025810B50348006800F06D
:1013F000070000F044F918E1C84402582DE9F0450F
:101400005C4902264FF03F0C4FF0020E0A6F4C6F02
:101410000D68EB0158BF01264F6802F0850A05F000
:101420008002466204F0010805F45024C0E900C4BB
:1014300002624FF0000C05F0010305F4805205F044
:101440001806C0E902A3C0E906820024C7F30665B6
:10145000C0E904658A6AC2F3051302F00302C3629D
:101460008262CA6AD2071CBF4B6BC3F3CC040B6BFE
:10147000D1F8C0500E6876011F4605F0070558BF29
:101480004FF0010EC0E9124EC3F30666C3F30642E5
:101490006FF35F27C3F346230135C0E9105C0136C3
:1014A000013201370133C0E90C73C0E90E268A6AA4
:1014B000C2F3053302F00302C0E91423CA6A12051D
:1014C00044BFCA6BC2F3CC0C8A6BD1F8C4300C6831
:1014D000E40016464FF00204C2F30665C2F3064765
:1014E000C2F346226FF35F2658BF0124013205F193
:1014F000010EC3F3022503F007030136C0E91662AB
:101500000137C0E9187E446700F1680201330135F4
:1015100082E828108A6AC2F3055302F00302C0E988
:101520001E23CA6A0023520244BF4B6CC3F3CC0390
:101530000022C0E925230A6CC2F306630133C0F818
:101540008C3013466FF35F230133C0F88030C2F351
:101550000643C2F3462201330132C0F88830C0F896
:101560008420D1F8C81001F007010131C0F89010B3
:10157000BDE8F085004402583F220260114A13681A
:1015800003F007034360936803F00F038360D3689D
:1015900003F00F03C360136903F0070303611369CA
:1015A00003F070034361136903F4E063836112691C
:1015B00002F4E042C2610448006800F03F000860A5
:1015C000704700BF104402580020005204480168D0
:1015D000490558BF70474FF48061416000F002B880
:1015E000644402587047704704480168026842F436
:1015F0008032026002480840704700BF3045025800
:101600000000625502EE100AB8EE422A81EE021A7C
:1016100002EE101AB8EE422A30EE020A20EE010A5B
:10162000BCEEC00A10EE100A10BDB0FBF4F010BD05
:10163000C2F3C10223FA02F201EE102AB8EE411AF7
:101640007047C4F3CC0400EE104AB8EE400A20EE16
:10165000010A7047386007F05FB8441C0AE659F881
:10166000000007F03BB83867386F20F08000704703
:101670006FF35F21D46A01317047441C98E5441C24
:1016800064E63860386820F400207047F8B50168D7
:101690000446C84E480302D4002001224CE0E06F0B
:1016A000316E11F440711BD000F44072914217D09A
:1016B000D6F8F01341F48071C6F8F013D6F8F013A1
:1016C000C90501D401201CE0316E326E42F4803233
:1016D000326621F44071326E22F480323266316615
:1016E000B0F5807F10D107F017F8054641F2883732
:1016F000306E800707D407F00FF8401BB842F7D9C7
:101700000320002217E0E06F32686FF0300110F420
:101710007C3F22F47C5201EA101100F4407018BFA3
:101720000A433260316E012208433066306E40F465
:101730000040306600202168CB0715D06368032B7A
:1017400000F2E0814025DFE803F0070402074FF4D0
:101750008025F7693D43F56132B1F26B22F0030257
:101760001A43F263002200E002468B0715D5A568F4
:101770005DB1102D04D0202D1BD14FF4801301E05A
:101780004FF40023F7693B43F361134632B9F26B20
:1017900022F030022A43F26300220346480718D59C
:1017A000E56875B1402D07D0802D42D14FF48010EF
:1017B00004E001220123F1E74FF40020F7693843E8
:1017C000F061104632B9F06B002220F0C0002843CF
:1017D000F06318460B0705D52369F56B25F04055D6
:1017E0002B43F3638B0213D5656D25B1042D11D105
:1017F0004FF4801301E04FF40023F7693B43F3619A
:1018000013464AB9F26B22F004022A43F263002223
:10181000034601E001220123C8061AD5606958B1C8
:10182000B0F1007F0DD0B0F1807F6AD14FF000554C
:1018300004E001220120CDE74FF48035F7693D43F4
:10184000F561154632B9F26B22F040721043002266
:10185000F0631D468806B4461DD5A3694FEA335789
:10186000052F00F27D814FF48030DFE807F00B0593
:10187000030B0B0B4FF00060DCF81C606746304335
:10188000CCF81C001046664632B9F06B002220F4FA
:10189000E0001843F06328464B0605D5E369356C34
:1018A00025F040552B4333640B0605D5236AF56BB1
:1018B00025F440352B43F363CB0510D5656A35B16C
:1018C000B5F5802F0DD1F36943F08043F3611346E2
:1018D0004AB9F26B22F480222A43F26300220346C3
:1018E00001E00122012388051DD5A56A9DB1B5F54A
:1018F000800F09D0B5F5000F40F001814FF4803022
:1019000003E001220125A5E74020DCF81C603043FC
:101910006646CCF81C00104632B9306C002220F428
:1019200040002843306418460B0518D5E56A6FF06F
:10193000010303EB3533022B09D34FEA353333B1BF
:10194000012B40F0E280F36943F00053F36113464A
:1019500032B9326C22F440522A43326400220346E8
:10196000480518D5256B6FF0010000EB35200228E3
:1019700009D34FEA352030B1012840F0C980F06921
:1019800040F00050F061104632B9306C002220F473
:101990004070284330641846CB0421D5656B4FEA6C
:1019A0003547052F00F2DF800FF20C064FF480332D
:1019B000D6E807F0104402580D07050D0D0D4FF045
:1019C0000053DCF81C6067463343CCF81C301346E8
:1019D000664632B9326C22F4E0222A433264002295
:1019E000034688041DD5A56B4FEA3527052F00F265
:1019F000BD804FF48030DFE807F00B05030B0B0BC5
:101A00004FF00050DCF81C6067463043CCF81C00F7
:101A10001046664632B9B06C002220F4E0602843DC
:101A2000B06418464B041DD5E56B4FEA3537052FDA
:101A300000F29F804FF48033DFE807F00B05030BC3
:101A40000B0B4FF00053DCF81C6067463343CCF8B7
:101A50001C301346664632B9B26C22F4E0422A4387
:101A6000B2640022034608041BD5206C052800F24E
:101A700083804FF40035DFE800F00B05030B0B0B00
:101A80004FF08055DCF81C6067463543CCF81C509D
:101A90001546664632B9B26C22F0070210430022A6
:101AA000B0641D46C80303D5F06940F00050F061F2
:101AB000880310D5A36CB3F1006F04D06BB9F06943
:101AC00040F00050F06110464AB9F06B002220F05F
:101AD00000601843F063284601E0012201200B0357
:101AE0002DD5E56C4FEA3547042F14D84023DFE8A5
:101AF00007F01703151D1D004FF4803310E001227D
:101B0000012011E7012201202FE60122012327E70E
:101B10000122012040E70122012311E04FF0006380
:101B2000DCF81C6067463343CCF81C30134666462D
:101B300032B9726C22F4E0222A4372640022034616
:101B4000C80230D5256D4FEA3557052F17D84020EC
:101B5000DFE807F01A03182020204FF4803013E04C
:101B60000122012098E6012201233AE70122012007
:101B700058E70122012376E70122012592E701229D
:101B8000012011E04FF00060DCF81C606746304334
:101B9000CCF81C001046664632B9706C002220F466
:101BA000E0002843706418464B0220D5A56E4FEA2A
:101BB0003567032F07D84023DFE807F00A02081033
:101BC0004FF4802304E00122012311E04FF0005381
:101BD000DCF81C6067463343CCF81C30134666467D
:101BE00032B9326C22F040722A433264002203463A
:101BF000080221D5A56D4FEA3527042F08D84020CB
:101C0000DFE807F00B03091111004FF4803004E006
:101C10000122012011E04FF00060DCF81C606746F3
:101C20003043CCF81C001046664632B9706C002276
:101C300020F4E060284370641846CB0121D5E56D9F
:101C40004FEA3517042F08D84023DFE807F00B03CD
:101C5000091111004FF4803304E00122012311E047
:101C60004FF00063DCF81C6067463343CCF81C304F
:101C70001346664632B9326C22F070022A4332644F
:101C80000022034688011DD5256E4FEA3517052F22
:101C900000F2B9804FF40030DFE807F00B05030BCA
:101CA0000B0B4FF08050DCF81C6067463043CCF8DB
:101CB0001C001046664632B9706C002220F070009D
:101CC0002843706418464B011DD5656E4FEA3517E1
:101CD000052F00F29B804FF40033DFE807F00B057F
:101CE000030B0B0B4FF08053DCF81C60674633434B
:101CF000CCF81C301346664632B9B26C22F0700242
:101D00002A43B26400220346C8001BD5E56E052DA8
:101D100000F27F804FF40030DFE805F00B05030B85
:101D20000B0B4FF08050DCF81C6067463043CCF85A
:101D30001C001046664632B9706C002220F0070085
:101D40002843706418468B001AD5256F052D63D87B
:101D50004FF40033DFE805F00B05030B0B0B4FF0DE
:101D60008053DCF81C6067463343CCF81C301346C4
:101D7000664632B9326C22F007022A4332640022EE
:101D80000346480013D5656F4DB1B5F5805F06D0A9
:101D9000B5F5005F22D1F06940F08050F061104647
:101DA00032B9F06B002220F440502843F06318460B
:101DB000B1F1FF3F1ADCA36F6FF0010505EBB335FE
:101DC000022D08D34FEAB3352DB1012D04D1F569A9
:101DD00045F08055F56122B1012007E00122012084
:101DE000E6E7F26B22F440421A43F263090106D59A
:101DF000D4F88010326822F4004211433160002888
:101E000018BF0120F8BD012201205CE70122012357
:101E10007AE70122012096E701220123B1E700BF02
:101E20004FF0FF31016058490A6802F04072426188
:101E30000A6802F4E00282614A6802F04052C2611C
:101E40000A6802F0405202610A6802F440320262FB
:101E50000A6802F4802242624A6802F44002826206
:101E6000D1F8B42002F4E042B2F5A04F1ABF0A68DC
:101E700002F003024FF4A0424260002242644A682A
:101E800002F44052C2624A6802F4407202634A6835
:101E900002F4E0224263CA6802F4E0628263CA6824
:101EA00002F4E042C263CA6802F007020264D1F899
:101EB000B42002F07002402A1ABF0A6802F0300211
:101EC00040228260D1F8B42002F4E062B2F5806F63
:101ED0001ABF0A6802F0C0024FF48062C2600A684A
:101EE00002F0006282644A6A02F44072B2F5407FF6
:101EF00008D151F83C2C4FF47C3303EA021202F56E
:101F0000407C02E04A6A02F4407C2DE9F04D8B6887
:101F10008C680D684E688F68D1F804A0D1F808E08D
:101F2000D1F80C8051F83C2C03F4E02B04F4E003CE
:101F3000C0E913B302F4004205F00404C0E91FC273
:101F400006F0407C07F4E0660AF070070EF07005BA
:101F5000C0F868C000F1540308F07002C0E91852DC
:101F6000D0C38A6802F00702C2664A6802F007021C
:101F700002670A6802F440524267096801F440416E
:101F80008167BDE8F08D00BF4C44025880B5014622
:101F9000421E0020072A77D9B1F1004F00F0BE8021
:101FA000102900F01781202900F02481402900F039
:101FB0003081802900F03D81B1F5807F00F04581BE
:101FC000B1F5007F00F04E81B1F5806F00F05A81CD
:101FD000B1F5006F00F06081B1F5805F00F06681BF
:101FE000B1F5005F00F07181B1F5804F00F0A7807E
:101FF000B1F5004F00F07A81B1F5803F00F0AE807E
:10200000B1F5003F00F08581B1F5802F00F0A88088
:10201000B1F5002F00F0B480B1F5801F00F07E8193
:10202000B1F5001F00F0BA80B1F5800F00F0828199
:10203000B1F5000F00F09A81B1F1807F00F0A2812C
:10204000B1F1007F00F0BD81B1F1806F00F0B3808D
:10205000B1F1805F00F0C581B1F1005F00F0E08177
:10206000B1F1804F40F02D82B648C16C01F440516F
:10207000B1F5005F00F01082B1F5805F00F03082B2
:10208000002900F0AA810AE2DFE812F00800190036
:102090001B022B001B021B021B023800A948D0F8B0
:1020A000001101F4E041B1F5A04F23D0C16C01F063
:1020B0000301DFE811F0ED0173014B01A601A14816
:1020C000D0F8001101F07001402913D0C16CC1F3A8
:1020D0000111022900F0F681012940F0D781C06A80
:1020E00062E09848D0F8001101F4E061B1F5806F2A
:1020F00040F0C481FEF72CFB800880BD9148C16C84
:1021000001F04051B1F1005F00F06781B1F1805FF3
:1021100000F09581002940F0FB8172E18948C16C93
:10212000C1F38131022900F05881012900F0B48106
:10213000002940F0B481006883498004CDE18148E2
:10214000816DC1F30231052900F2E281DFE811F06F
:10215000DD00310106017B01CC002E017948FDE054
:102160007849086F00F44070B0F5407F40F09D81E1
:1021700008694FF47C3202EA001000F5407097E1E4
:102180007048416DC1F30241042900F2C181DFE8CA
:1021900011F005011001600167010D016948C16C72
:1021A000C06A490700F18F81000340F1B181BDE8A9
:1021B0008040FFF7ADB86348816DC1F30211052976
:1021C00000F2A681DFE811F0A1004F0156011D01C8
:1021D0003B0109015B48C16C01F04071B1F1007F26
:1021E00000F0E480B1F1807F00F0B880002940F079
:1021F0008F81DEE05348C16CC1F30251052900F222
:102200008781DFE811F04501D60026012D011C0170
:10221000FE004C48016D01F04051B1F1005F00F04B
:102220000E81B1F1805F00F05F80002940F0708185
:1022300009E14448C16C01F44031B1F5003F05D0DB
:10224000B1F5803F00F0C98062E13E48C16C4903AE
:1022500040F1C380C06A400040F15A81BDE880402F
:10226000FFF7C2B8AE48016D01F44001B1F5000FAF
:1022700000F09F80B1F5800F00F09080002900F001
:10228000AC8045E1A648016DC1F30121DFE811F002
:10229000D3006600B900D700A148016DC1F3013138
:1022A000DFE811F0C9005C00AF00CD009C48016D73
:1022B000C1F30241052900F22B81DFE811F0BC00D7
:1022C0007A004F00C400150077009548816DC1F376
:1022D0000221052900F21C81DFE811F017006B00D4
:1022E0004000B50006006800406FF3E08C48816D47
:1022F00001F00701052900F20B81DFE811F006006B
:10230000B400BB008200A000A400BDE88040FEF73E
:1023100029BF8348C16C090120D547E08048416D41
:10232000C1F30251042900F2F380DFE801F03742E3
:1023300092993F007A48016DC1F30161DFE801F035
:102340002E060E6100440258006CDC02C06A400395
:1023500040F1DE80BDE88040FEF7D0BFC06A80005B
:1023600040F1D680BDE88040FFF734B86C48416D3D
:10237000C1F30221042900F2CB80DFE801F00F1A3B
:102380006A7117006648016DC1F30211042900F259
:10239000BF80DFE801F0030E5E650B00C06A4006F7
:1023A00040F1B680BDE88040FEF73CBFBDE880400C
:1023B000C0E0C06AC00340F1AB80BDE88040FEF7DA
:1023C0004FBF5748416DC1F30211052900F2A080AB
:1023D000DFE801F0134950173503006851498003C5
:1023E0007BE04F48416D01F00701052900F2908024
:1023F000DFE801F0033940072529BDE88040FEF7FA
:10240000A3BE0168490740F183800168890640F155
:102410007F8000684649C0F3C10021FA00F080BD0A
:102420003F48016D01F00701052971D8DFE801F08F
:10243000031B226D070BBDE88040FEF777BE0068E6
:102440003A49C00549E0006F4FF4004101EA80308D
:1024500080BDC06A00015BD5BDE88040FEF76CBF5F
:102460004BF6803080BDC06A800351D5BDE8804006
:10247000FEF73ABFC06AC0004AD512E0C16C01F055
:10248000C00180291ED040293FF429AE00293FD148
:10249000BDE88040FEF75CB9C06AC00001D40020EE
:1024A0000FE0BDE88040FEF78BBF086F00F440707E
:1024B00038B1B0F5007F0CD0B0F5807F13D1086F34
:1024C000C2E780BDC06AC00222D5BDE88040FEF7E9
:1024D00029BF486F80074FF4FA4101EAE07080BDE0
:1024E000006811497BE7086F00F44070B0F5407F49
:1024F0000ED1086880030BD50869C0F305200228B7
:1025000006D30849B1FBF0F080BD0168490701D44A
:10251000002080BD016889063FF57BAFBFE700BFA3
:102520000044025800366E01001BB70000093D0050
:102530000090D0031148C16C01F04051B1F1005F2F
:102540000BD0B1F1805F0CD029B90168490702D5E1
:10255000016889060BD40020704700680849800391
:1025600002E000680749C00501EAE07070470068B2
:102570000549C0F3C10021FA00F070470044025839
:1025800000366E0100093D000090D00302490A6840
:1025900010430860704700BF0045025802490A68AE
:1025A00022EA0000086070470045025802480168AE
:1025B00041F02001016070477044025804480169ED
:1025C00021F020010161016821F400710160704770
:1025D000604402580A48016941F020010161016824
:1025E00041F4007101604FF0B040016841F4802176
:1025F00001600448016841F480210160704700BF18
:10260000604402588000005803490A6822F04002E2
:1026100010430860704700BF1044025803490A681D
:1026200022F0800210430860704700BF1044025837
:1026300004480168890558BF70474FF40071416034
:1026400000F002B864440258704700BF10B50F494B
:102650000A6842F002020A600A6822F002020A6076
:1026600090E81E00114302691943214341EA0241E7
:10267000074A51604069116821F47C5141EA002009
:102680001060106840F06000106010BD9444025863
:10269000008400400248016841F0800101607047F9
:1026A0000084004007494A6892B202600A688B6859
:1026B0001B0C8360C2F305224260896801F400416B
:1026C000C1607047008400402DE9F04D0446204E63
:1026D00006F022F88246671C04254FF0020B4FF0EB
:1026E00001086FB106F018F8A0EB0A00B4FA84F103
:1026F000A0424FF0000088BF01204909084300E0D4
:1027000000203168C90702D00230C6F80480316861
:10271000890702D50430C6F804B03168490501D5EF
:10272000203075603168C90502D540F00800756039
:102730003168890502D540F01000756031680907DD
:1027400001D5082171600028CBD0BDE8F08D00BF15
:1027500008840040134881680268CB0701D0D30782
:102760000CD18B0701D593070CD40B0701D51307A8
:102770000CD44B0701D552070CD470470121C1601E
:1027800000F012B80221C16000F00FB80821C1604A
:1027900000F00CB80422C260382000EA511000F0AA
:1027A00006B800BF0084004070477047704770470C
:1027B0002DE9F84D554A00274FF0000A002602EA9D
:1027C000902200920C6834FA06F300F09D800122FA
:1027D00002FA06F314EA030B00F09180D1F804C06A
:1027E00003220CF0030E02FA0AF5AEF10104012CEB
:1027F00013D8846824EA0508D1E9024202FA0AF2F1
:1028000042EA08028260CCF3001202FA06F842683B
:102810009A4342EA0802426005E08C68BEF1030F69
:1028200008BF012C23D0C36804FA0AF26FEA050836
:10283000AB4375001A43C260BEF1020F1ED107F010
:102840001C020F2303FA02FC6FF0030303EA560491
:102850000444236A23EA0C0C0B6903FA02F242EAED
:102860000C022262D1F804C00CF0030E06E04FF017
:10287000030E55460EFA0AF26FEA020803680EFAD2
:1028800005F203EA08031A4302601CF4403F36D005
:10289000BC4607F00C0226F003041E4F0F239340A2
:1028A000E55925EA0303009D05FA02F21A43E251B5
:1028B0004FF0B0473A684C6842EA0B03E50258BF54
:1028C00022EA0B033B60124FA5023A6842EA0B036F
:1028D00058BF22EA0B033B60A503D7F8802042EAE9
:1028E0000B0358BF22EA0B03C7F88030E403FA6FEA
:1028F00042EA0B0358BF22EA0B03FB676746043723
:102900000AF1020A01365DE7BDE8F88D7FFF290074
:1029100004000058300500582DE9F84D314A0023D5
:102920000F254FF0000A02EA90220092002231FAAD
:1029300002F654D0012404FA02FC1CEA010E49D02C
:1029400022F0030B294C03F00C0605FA06F85BF89D
:102950000470009C07EA080704FA06F6B7421CD187
:10296000214C9608E76F27EA0E07E767D4F88070D6
:1029700027EA0E07C4F88070276827EA0E07276049
:102980004FF0B044276827EA0E072760174C54F829
:10299000267027EA080744F826700324076804FA1B
:1029A0000AF66FF0030404EA520437430760044454
:1029B00003F01C0705FA07F7256ABD432562846802
:1029C0000F25B4438460446824EA0C044460C4685E
:1029D000B443C46004330AF1020A0132A7E7BDE838
:1029E000F88D00BF7FFF2900040000583005005813
:1029F0000069084018BF012070471823002A08BF4B
:102A00002823C150704742EA014181617047426901
:102A100002EA0103914341EA03418161704781B0B9
:102A20004FF480320092009A0A430092009AC261E9
:102A3000C1610099C161C1690091C069012121EAA8
:102A4000104001B0704700BF03490A68024208BF46
:102A50007047086000F002B8880000587047000016
:102A6000F8B500F0A5FBECB105460020E06426684F
:102A7000606D20B904F16000142105F006FF02200A
:102A80006065706940F00600706120684169C9079F
:102A90000AD005F041FE401B0528F6D9012003218C
:102AA000102272E00120F8BD216A426904F110058C
:102AB00022F44302114341612ECD2A43114341EADE
:102AC0000302384901444FEAF1110F290BD3364B69
:102AD000984208D0354B03444FEAF3130F2B02D32F
:102AE000334B984211D104F124064FF07C7768CE25
:102AF00007EB055505F07C7535434FF47C7606EB06
:102B0000031303F47C732B431A430264D4E90125B5
:102B1000266BE36802F07F022A433243B3F5007F5D
:102B200013D0B3F5806F12D10F290BD31E49884201
:102B300008D01E4901444FEAF1110F2902D31C4964
:102B4000884204D142F4806201E042F40072416C98
:102B5000184B1940184B0A43616B0A434264002228
:102B6000826498420BD0154B98421CBF144B98427C
:102B700005D00F4B98421CBF124B984208D14265BA
:102B800082652165C26701210020A2656165F8BDEB
:102B90000D4B9842F3D0044B9842F0D00B4B984227
:102BA000EDD0EEE7B0FFFFADD0070052B0EFFDBFB4
:102BB000D01702408021C03C50160240D01602407F
:102BC0005017024050060052D006005250070052E3
:102BD000B0B500F0EDFA94B105462068416941F0C6
:102BE0000601416120684169C9070AD005F094FDDA
:102BF000401B0628F6D31020A06503206065012045
:102C0000B0BD00211A4A01604161016441648164E0
:102C1000C1640165C16790420BD0164A90421CBF47
:102C2000154A904205D0154A90421CBF144A904262
:102C300013D1416581654FF4FE41C16004F160002C
:102C4000182105F022FEE06D08B10020E0650020AB
:102C5000A065C4E913006065B0BD0A4A9042E8D09F
:102C6000094A9042E5D0094A9042E2D0E3E700BF2A
:102C700050160240D016024050170240D0170240B2
:102C800050060052D0060052D007005250070052A2
:102C900030B1B0B50446C06C012803D10220B0BDEC
:102CA000012070470120E064606D012812D10220EC
:102CB00060650020A0652468A56CC3EA0503A364D1
:102CC0004FF4FE43E360E1642265616941F0010174
:102CD0006161B0BD0020E0644020A0650120B0BD6E
:102CE00028B170B5C46C012C03D1022070BD012045
:102CF00070470124C464446D012C23D1022444652F
:102D0000002484650468456EA66CC3EA0603A364C8
:102D10004FF4FE43E360E1642265616941F4BA4126
:102D200061611DB1616941F400716161006F18B1A9
:102D3000606940F400506061606940F001006061CA
:102D4000002070BD0021C16440218165012070BD5B
:102D5000B0B500F02DFA14B30546606D022820D1FD
:102D60002068416941F004014161052060652168E6
:102D70000869800419D405F0CFFC401B0628F6D35F
:102D8000A06D40F01000A0650320606594F850002D
:102D900000064FF001001CD5616FC86019E00120EA
:102DA000B0BD2020A065012013E04869012240F059
:102DB00002004861042060654FF4FE40C86062650F
:102DC00094F8500000064FF0000002D5636FDA60FF
:102DD00088640021E164B0BD70B1416D022909D160
:102DE0000421416542F204020068416911434161D6
:102DF0000020704720218165012070472DE9F845AA
:102E00001646884600F0D4F97CB18246606D0228EF
:102E100007D1206D00F08100812809D14FF4807026
:102E200002E00020E0642020A0650120BDE8F885D4
:102E30004FF40075B8F1000F08BF0125771C216819
:102E40000869284211D1002FF9D005F065FCA0EBEC
:102E50000A00B04201D8002EF1D1A06D40F0100060
:102E6000A0652046FFF774FFDFE7420406D5A26D98
:102E700042F00802A2654FF48042CA6010F4E05F9D
:102E800029D0420506D5A26D42F00102A2654FF499
:102E90008062CA60020506D5A26D42F00202A265F8
:102EA0004FF40062CA60C00406D5A06D40F0040073
:102EB000A0654FF48050C860486940F00200486146
:102EC0000120606594F85010090601D5616FC86053
:102ED0000020E064A9E7B8F1010F05D14FF40070BC
:102EE000C8600020BDE8F8850120B8F1000F0CD1C2
:102EF0004FF44072CA60606594F85000000602D535
:102F0000606F0121C1600020E064BDE8F88510B564
:102F1000044600680C21024661F30B02116800F5BB
:102F20007B62C2F3C412D140C90700F0A4800169DA
:102F3000490509D54169490506D54FF48061C1604D
:102F4000A16D41F00101A1650169090509D541693A
:102F5000090506D54FF40061C160A16D41F0020181
:102F6000A1650169C90409D54169C90406D54FF4B1
:102F70008051C160A16D41F00401A165016949045E
:102F800009D54169490406D54FF48041C160A16D5E
:102F900041F00801A165016989050AD541698905E2
:102FA00007D54FF40071C160616E11B120468847AA
:102FB00020680169890425D54169890422D54FF427
:102FC0000051C160616D042915D1416921F400519E
:102FD0004161416941F0020141610121616594F85B
:102FE0005020120603D5626FD16000218164002059
:102FF000E064E16E3AE005216165216F11B1204680
:10300000884720680169C9051ED54169C9051BD5D6
:1030100094F85010090604D4816C61B904F154018C
:1030200007E0C16F39B9816C29B901216165616F10
:103030000C3101220A600021E1644FF44071C1604B
:10304000216E09B120468847A06DA0B12068416972
:1030500041F0020141610120606594F850100906B9
:1030600001D5616FC860A16E0020E06419B12046EF
:10307000BDE81040084710BD58B1436D012B08D181
:10308000042906D8DFE801F00307090B0D006030C2
:1030900008E001207047643004E0683002E06C30E2
:1030A00000E0703002600020704700BF68B1024647
:1030B000406D012809D1052907D8DFE801F0030890
:1030C0000B0E11140020106670470120704700207D
:1030D000506670470020906670470020D0667047A9
:1030E00000201067704780B502F16000142105F0E0
:1030F000CCFB002080BD406D7047806D704700BFE5
:1031000002460120AAB1CB0112D5136840F6FF7226
:1031100023EA020203F57B63C3F3C4139840054B13
:103120001940994251680CBF084321EA00005060E1
:10313000002070470100000190B189B100680422AD
:1031400000F57B6362F30B000068C3F3C412D04048
:10315000C007044808BF4FF0807008600020704727
:1031600001207047010000010146012061B109689A
:1031700001F57B62C2F3C4129040082262F30B0196
:103180000A68104308600020704778B171B1006888
:10319000082200F57B6362F30B000068C3F3C412DE
:1031A000D04000F001000860002070470120704707
:1031B000044605F0B1BA0000B0B5044605F0ACFA1B
:1031C000B4B10546022060650020E06420684169D2
:1031D00041F00601416120684169C9070AD005F044
:1031E0009BFA401B0528F6D90120032210213AE062
:1031F0000120B0BD224901444FEAF112D4E90E1377
:1032000019430F2A0BD31F4A904208D01E4A02448A
:103210004FEAF2120F2A02D31C4A904201D1226CCB
:103220001143426922F443021143416100210164C8
:10323000626C42648164C1640165154A90420BD09E
:10324000144A90421CBF144A904205D00F4A904243
:103250001CBF124A904209D141658165C1670122B4
:10326000A06C20650020A1656265B0BD0C4A90424B
:10327000F2D0044A9042EFD00A4A9042ECD0EDE7F7
:10328000B0FFFFADD0070052B0EFFDBFD017024036
:1032900050160240D016024050170240500600520D
:1032A000D006005250070052B0B5044605F034FA7B
:1032B00094B105462068416941F0060141612068EA
:1032C0004169C9070AD005F027FA401B0628F6D342
:1032D0001020A065032060650120B0BD00211E4ABA
:1032E00041610160016441648164C1640165C16739
:1032F00090420BD0194A90421CBF194A904205D007
:10330000184A90421CBF184A90421AD14165816503
:103310004FF4FE41C16004F16000142105F0B5FADC
:10332000606F20B10121C160002161670161E06D22
:1033300008B10020E0650020A065C4E913006065C5
:10334000B0BD0A4A9042E1D0094A9042DED0094A13
:103350009042DBD0DCE700BF50160240D01602409E
:1033600050170240D017024050060052D0060052BB
:10337000D00700525007005290B3436F83B310B58B
:103380000268446D012C516904D0022C2AD111F439
:10339000803127D0416D01291CD1C46C0221012C40
:1033A00025D04165D96000218165196119684FF602
:1033B000FF7321EA030313600123C3644FF6FC701B
:1033C0000840096A0C4B490861F3596361F39A6339
:1033D0001844D0675069002140F00100506106E0B8
:1033E000012106E00021C164402181650121BDE881
:1033F00010400846704700BF000001F8002843D085
:10340000436F002B40D010B50268446D012C516908
:1034100004D0022C3AD111F4803137D0416D01290A
:103420002CD1C46C0221012C35D04165D96000211A
:10343000816519610121C164516941F4BA41516149
:10344000416E19B1516941F400715161006F18B1B9
:10345000506940F40050506118684FF6FF71104BEE
:1034600020EA010111604FF6FC710140006A40083A
:1034700060F3596360F39A635818D067506900216C
:1034800040F00100506106E0012106E00021C16426
:10349000402181650121BDE810400846704700BF0A
:1034A000000001F8002878D0002976D0F0B500F1AE
:1034B0001006C26B78CE344322431A432A430A6073
:1034C000037813F0600F14D000F124054FF07C77DF
:1034D000866B38CD07EB0454354304F07C742C43E1
:1034E0004FF47C7505EB031303F47C7323431A43F9
:1034F0000A60426840F27F24036B22401A434A600C
:10350000C368B3F5007F06D0B3F5806F05D10478AA
:1035100014F0600F01D01A434A60436B1A434A60AB
:10352000436C43B1856C046C05F03F0544EA0544E7
:1035300022431A434A60B0F868308B6002789207E1
:10354000314A21D5C46C4FF0805502EB044414403D
:1035500023438B60046D05EAD4044FF000552344E7
:103560008B60446D05EA94044FF0804523448B60E2
:10357000846D05EA540423448B60C46DB4F1FF3FAD
:1035800002DC03F100438B60036ECB60436E0B6182
:1035900003789B0703D4052325E0012231E0036D66
:1035A000002B00D55B426FF35F334B6102F1C054D7
:1035B000456D2E04002D48BF05FB04F6344023431F
:1035C0004B61836D002B00D55B429BB28B6102F196
:1035D0007842C46D2504002C48BF04FB02F545EA7F
:1035E00003028A610723002241F823200068830731
:1035F0004FF4E06358BF4FF4A06318430862BDE87E
:10360000F0401046704700BF0000FF07C0B3B9B3D9
:10361000B0B591F82020474C02600B6803F0080316
:1036200003610B6803F4002343610B6803F0030399
:1036300083610B6803F44033C3610B68C3F3051364
:10364000013343620B68C3F30553013383620B6894
:1036500003F04023C3620B68234083630B6803F4C9
:10366000C053C3634B689C050CD403F07F034360D5
:103670004B795B0754BF00234FF48063C36005E0C0
:10368000012155E04FF40073C36043604B6892071B
:1036900003F4006383604B6803F4404303644B68A6
:1036A00003F040734364CB8803F03F0383644B68AB
:1036B00003F0404303630B8983660BD40122C26489
:1036C000CA6802660A6900214266C0E91411C0E9AD
:1036D00016112BE04A896FF3DF220132C264CA68F7
:1036E00002660A6942664B696FF35F330365CA8AF3
:1036F0006FF35F3242658C68E50002D55B4203657B
:103700008C68A30001D5524242650B8B83658A69A0
:10371000120CC2658C68650002D55B4283658C68BB
:10372000B4F1FF3F01DC5142C1650021BDE8B0406A
:10373000084670470020001C50B12DE9F04186B0CA
:10374000154682B104464069012803D1042009E0EE
:103750000120704727682A460E46384600F056F882
:1037600020B105202061012001F0DCB83846314647
:103770002A4600F05AF80028E8D10220E060224AE8
:1037800000202061286A01F0EDF861F39A624FB1E0
:1037900096B11746CDF8048001AA01F0DFF898B180
:1037A0000620DFE7DEB14FF6FC702840104346F8F4
:1037B00028002660022022E04FF6FC7038401043BB
:1037C00045F82800256018E0A068039981420AD1D5
:1037D000606860B14FF6FC710840384305E0012095
:1037E000A06025600CE056F8280045F828004FF648
:1037F000FC702840384346F82800A0680130A060DB
:10380000002001F092F8AFE7000001F841EA000360
:103810001343002908BF1146002818BF014681EA5A
:103820000300000C18BF0120704740B190F8200041
:1038300041B191F82010884204D00220704731B184
:1038400091F820001AB192F82010884201D100208E
:103850007047032070472DE9F0458568D2F800C015
:10386000C9B14FF6FC7E00274FF6FF7800264FF0D7
:10387000000A01EA0E03AF4224D29E4222D004681D
:103880002FB124EA0804B246344354F82C4004EA29
:103890000E060137EFE700234FF6FC784FF6FF7E68
:1038A00000264FF0000A9D420BD007682BB127EA93
:1038B0000E04B246344354F82C7007EA080601336C
:1038C000F1E72F4621B14FF6FC7319408E4213D118
:1038D0004088976046EA00414AEA0043D16053605D
:1038E00051F82C1029B14FF6FC730004194008431D
:1038F00010610020BDE8F0850120BDE8F08500BF23
:1039000040B1F8B50D4681B104464069012803D1A4
:10391000042009E00120704726682946002230462D
:10392000FFF774FF18B1052020610120F8BD304673
:10393000294600220027FFF778FF0028E8D102205F
:10394000E06027617EB1296A0B4B4FF6FC704A0894
:1039500001F00201304062F3596305EB810162F32B
:103960009A63184448610020206125600121E160CC
:10397000A1680131A160F8BD000001F848B1F0B5BF
:1039800085B00D4681B104464069012803D1042069
:1039900009E0012070472668294600223046FFF7DB
:1039A00035FF20B105202061012005B0F0BD304673
:1039B00029460022FFF739FF0028E8D1FEB12F6A1F
:1039C0006A46002107F00200461D20460096FFF7D8
:1039D00042FF79080E4861F3596061F39A606168AB
:1039E00029B14FF6FC721140014345F826104FF6FD
:1039F000FC7129400843039941F8260000E0256046
:103A0000002000F092FFA1680131A160CDE700BF66
:103A1000000001F860B12DE9F04186B00D46D9B142
:103A200000F0B9FF06D06069012805D1042012E03A
:103A30000120704702200EE00220E06029460020AD
:103A40002061286A00F00200461D019601AA00F0DC
:103A500098FF20B106202061012000F063BF039889
:103A6000012816D160680499884209D101AA20462C
:103A700000210027FFF7EFFE049840F826706760EA
:103A800055F82600002145F8261020F0030020807C
:103A900022E0A168029F884207D10499002047F8DC
:103AA000260041F82600606016E0606804998842AC
:103AB0000BD101AA204600214FF00008FFF7CBFEF2
:103AC000049840F82680C4F8048055F8260047F88A
:103AD0002600002045F82600A0680138A0604FF0BD
:103AE000000002D000F021FFB7E700F04DFFB4E77F
:103AF00048B1F0B585B00568044635B16069012864
:103B000007D1042002E0012070470220206101203B
:103B100036E00220E06000202061296A01F0020105
:103B20004E1DA168012904D145F82600606020617E
:103B30001BE06068A8420AD16A4620460021009630
:103B40000027FFF788FE039840F826706760002181
:103B500055F8260045F826104FF6FC724FF6FF7117
:103B6000104025EA010108442060A0680138A060E7
:103B70004FF0000002D000F0D8FE01E000F004FF9A
:103B800005B0F0BD48B170B586B000F004FF06D0B6
:103B90006169012907D1042002E001207047022059
:103BA0002061012027E00221E16000252561016AF2
:103BB00001F002014E1DA168012903D140F82650F1
:103BC00025610AE0019601AA204600F0A8FE0298AD
:103BD000049940F8265041F826500020A168606002
:103BE0000139A16002D000F0A0FE04E0E060206195
:103BF000A0602060606106B070BD00BF70B12DE9AB
:103C0000F04585B00E46A9B115469AB1076804463D
:103C100037B16069012805D104200AE0012070470E
:103C2000022006E0384631462A46FFF7EFFD28B16C
:103C300005202061012005B0BDE8F08538463146F9
:103C40002A46FFF7F2FD0028E6D10220E0606A462E
:103C50003146002020612F6A07F0020000F1050ABA
:103C6000204600F077FE08B10620E2E77808244EEF
:103C7000029960F35966012960F39A6612D103989C
:103C800000F060FE25606168814235D16A462046B9
:103C900000F045FE4FF6FC7003992840304341F890
:103CA0002A0028E04FF6FC70A268019B284046EAF3
:103CB00000080398914243F82A800DD1002140F872
:103CC0002A106168814214D0B1B14FF6FC700840EF
:103CD000304345F82A000FE000F034FE616881426D
:103CE0000AD16A46204600F01AFE039840F82A805E
:103CF00001E045F82A806560002000F016FE9AE792
:103D0000000001F860B12DE9F04186B00D4699B18F
:103D10000668044636B16069012805D104200AE02E
:103D200001207047022006E0304629460022FFF7B6
:103D30006DFD20B105202061012000F0F3BD30466B
:103D4000294600220027FFF770FD0028E6D1022057
:103D5000E0602761286A00F00208606808F1050742
:103D6000B04215D1019701AA204600F0D8FD4FF6C8
:103D7000FC700D49284001F1C061B8F1000F04BF8B
:103D80000021CFF601010844049941F8270065603D
:103D900056F8270045F827000121002046F82700A3
:103DA00020612560E160C8E7000001F860B12DE9FD
:103DB000F04186B00D4659B100F0EDFD06D06069C6
:103DC000012808D1042002E0012070470220206170
:103DD000012000F0A7BD0220E0604FF00008C4F809
:103DE000108000212F6A07F00200461D019601AAEB
:103DF00000F0C7FD4FF6FC707A08049B05EA00014D
:103E0000104862F3596062F39A60029A014442F8E2
:103E1000261043F8268062689A4207D04AB14FF6CE
:103E2000FC711140084345F8260002E045F82610D1
:103E30006560A068012808BF2560002000F075FDBE
:103E4000C7E700BF000001F850B1C168022902D1E4
:103E50000121016134E04169012903D1042101619B
:103E600001212DE00221C16000210161026812B32D
:103E7000F0B5146A4FF6FF734FF6FC7C002700265E
:103E800004F0020422EA030305348568AE4210D22E
:103E900047EA0305002E2F4608BF174657F824703F
:103EA00008BF22F0030545F82410013607EA0C0785
:103EB000EBE7BDE8F0400161C0E900118160C1603D
:103EC0000846704778B12DE9F04D8AB0144632B3F8
:103ED000066805464EB1686901280AD06069012864
:103EE00005D104201AE001207047022002E0686832
:103EF00010B10420286112E0D4F8008030460F464B
:103F00004246FFF783FC08B1052006E030463946FB
:103F10004246FFF78AFC30B104202861206101206D
:103F20000AB0BDE8F08D02200021E8602961E06060
:103F30002161B8F1000F14D0306A394A410800F00D
:103F4000020061F3596200F1050A61F39A62934637
:103F500057B16A462046394600F0FCFC30B30620D3
:103F6000DCE72660A86856E0CDF814A005AA28462C
:103F700000F0D5FC606840450DD16A46204600211E
:103F800000F0E8FC4FF6FC700399304040EA0B006B
:103F900041F82A0066604FF6FC70089900EA0800B4
:103FA00040EA0B0041F82A00266031E028684FF60D
:103FB000FC76A168DDE902235F4630408A4240EA90
:103FC0000B0043F82A0017D1D4E90161A86808441E
:103FD000A0600EB3CDF814A005AA284600F09FFCFF
:103FE0006A4600F0BBFC4FF6FC7003990840089944
:103FF000384341F82A000FE0CDF814A005AA28465E
:1040000000F08DFC049808993040384341F82A00AC
:10401000A868A1680844A06000F076FC80E700BFB3
:10402000000001F860B12DE9F0458BB00C4629B3D2
:104030000668054636B16869012806D1042002E009
:10404000012070470220286118E06069012801D131
:10405000042012E02768304600223946FFF7D6FBDD
:1040600008B1052008E03046394600224FF000082C
:10407000FFF7DBFB30B104202861206101200BB089
:10408000BDE8F08500F055FC2DD0306A194A00F0EB
:1040900069FCCDF81880284661F39A6200219246A7
:1040A00006AAFFF7D8FB6068B8420FD1CDF80480AC
:1040B00001AA204600F033FC51464FF6FC700499EB
:1040C000304040EA0A0041F8280066604FF6FC7074
:1040D0000999384040EA0A0041F828002660A8689B
:1040E000A168084401E02660A868A06000F00CFC0C
:1040F000C5E700BF000001F860B12DE9F0458BB0C5
:104100000C4629B30668054636B16869012806D110
:10411000042002E0012070470220286118E0606955
:10412000012801D1042012E02768304600223946D8
:10413000FFF76CFB08B1052008E030463946002245
:104140004FF00008FFF771FB30B1042028612061B7
:1041500001200BB0BDE8F08500F0EBFB2FD0306AFA
:104160001A4F410800F0020061F3596700F1050899
:10417000CDF8048001AA204661F39A6700F0CFFBD6
:104180004FF6FC7A049906EA0A00384341F8280001
:104190006668A868A1680844A0609EB1CDF8188040
:1041A00006AA284600F0BBFB01AA00F0D7FB049842
:1041B000099900EA0A00384341F8280002E0266025
:1041C000A868A06000F0A0FBC3E700BF000001F8F2
:1041D0002DE9F04186B088B10E4679B100F0DBFBE5
:1041E00005D0606828B1B04206D1002507E0022062
:1041F00003E06069012804D10420206101252846DC
:1042000090E30220E060002525613146306A00F02D
:104210000207204607F10508CDF8048001AAFFF740
:104220001AFB08B10620E8E701AA204600F077FB58
:104230004FF6FC700649304001F1C061002F04BF09
:104240000021CFF601010844049900F093FBD6E762
:10425000000001F82DE9F04186B078B10668044607
:104260002EB1606828B1B04206D1002507E00220D7
:1042700003E06069012804D104202061012528465B
:1042800050E30220E060002525610021376A07F035
:10429000020000F10508CDF8048001AA00F071FBCE
:1042A0007908064A4FF6FC7061F35962304061F3B9
:1042B0009A620499104400F05DFBE0E7000001F809
:1042C00070B586B058B100F066FB06D0616851B198
:1042D0006169012909D1042000E002202061012543
:1042E000284606B070BD0025FAE70221E1600025EE
:1042F0002561006A002100F00200461D019601AA16
:1043000000F03FFB049840F82650256165600120CD
:10431000E060E5E7E0B12DE9F04D9CB004680746A8
:10432000C4B179690020012900F0A5800221F9605B
:104330003861206A00F002067868711D059168B145
:10434000069106AA384600F0EAFA0998009005E0BE
:10435000012070470220386101208CE00BAD20461F
:10436000294600F08DF84FF6FC7006364FF0010834
:104370000DF1500A24EA000003904048059A029784
:1043800078440190B868804565D255F822004FF610
:10439000FC710840039940EA0104786848B100992B
:1043A000814206D0844204D1294600F069F8059A7A
:1043B0004EE0504601992022CDF8108004F0EEF92D
:1043C000059A4FF0000B00274FF4803090464AF8D2
:1043D00022005E4529D0ABF1050154F8270011F108
:1043E000030F05D855F82B10814201D15A4508D149
:1043F00045F82B0001375AF82B0054F828100843D1
:104400000EE0204639463246012300F065FAA8F155
:1044100001085AF82B00059A54F8281021EA0000E8
:1044200044F828000BF1010BD3E76FF0FF00216A7D
:10443000DDF8108000EB072021F4E06108432062E2
:104440000020072F03D844F827000137F9E7029F1F
:1044500008F1010896E7786810B10099814201D10E
:10446000012100E00021384600F016F8002001216B
:1044700079613861F9601CB0BDE8F08DD847000063
:104480000022082A05D050F8223041F822300132AB
:10449000F7E7006A086270472DE9F045D0F800C0E0
:1044A0004FF6FF724FF0000A4FF6FC7E00272CEA11
:1044B000020863468468A74218D297B153F82A408D
:1044C00004EA0E06A40846EA0806356AC5F3022582
:1044D00056F8252064F38F0243F82A20AA46334673
:1044E00002E01A6AC2F3022A0137E3E7406828B102
:1044F00031B153F82A0020F480300DE000200BE0A9
:10450000196A074A4FF6FC70490800EA0C0061F38B
:10451000596261F39A62104443F82A00BDE8F085BD
:10452000000001F800285CD02DE9F04D96B0056838
:104530000746002D57D079690020002960D002215C
:10454000F9603861384600212C6A00F05FF804F009
:1045500002004FF001080DF1140A861D053003908A
:10456000000202900EAC2848049778440190B86885
:1045700080453CD228465146FFF782FF039F2046E4
:10458000019920225AF827B004F008F94FF480303E
:1045900044F8270000274FEA9B0060F38F050D9831
:1045A000C0F302205AF820B0BE4210D054F82700C1
:1045B00010EA0B0F09D1284639463246002300F095
:1045C0008BF95AF8270045F827000137ECE7286AED
:1045D000029908F10108049F20F4E0600843286272
:1045E000C5E70120704702203861012008E0384605
:1045F0000121012400F00AF8002078613861FC6094
:1046000016B0BDE8F08D00BFEE4500002DE9F04189
:104610000268164B00254FF6FC7C4FF6FF7E166AAB
:10462000740864F3596364F39A6306F0020404F1B6
:1046300005088468A54217D2C6F30226002952F85D
:10464000267007EA0C0618BF46EA0307013CA5429C
:1046500002D1446804B9002742F8287022EA0E0209
:1046600001353244166AE4E7BDE8F081000001F844
:1046700050B149B1426D436D022B01D0052A05D1DD
:104680000021C1644021816501207047CA68022A67
:1046900002D10120086170470268164B9A420BD084
:1046A000154B9A421CBF154B9A4205D0144B9A42A7
:1046B0001CBF144B9A420CD1036D4A68812B03D165
:1046C00022B1416700207047002AFAD00420086117
:1046D000DAE70D4B9A42EFD00C4B9A42ECD00C4BE0
:1046E0009A42E9D00A6892F820209207E4D5032084
:1046F000EDE700BF50160240D016024050170240AE
:10470000D017024050060052D00600525007005207
:10471000D007005248B1416D426D022A01D00529EF
:1047200006D10021C16440218165012108467047FE
:1047300000214167FAE700BF90B189B1426D012ABB
:104740000AD10068074B026C1A40D1E900131A43E2
:1047500011430164002070470021C164402181653C
:1047600001207047FFC7FFE3B0B1A9B1426D012A34
:104770000ED110B50068094B426C1A40D1E90034E3
:10478000896822431A4342EA01414164002010BD76
:104790000021C1644021816501207047FF3FC0FCBA
:1047A000E8B3E1B3426D012A35D1F0B5D1E9013466
:1047B000CA6826041F46002CA4EB440548BF2E04FB
:1047C000002B00D55F4200680D683E4346650969CD
:1047D0000E04A1EB4107002948BF3E04002A1746FA
:1047E00000D557423E43866501F000410D4E002C36
:1047F0004FF0805404EAD30306EB054548BF45F06B
:1048000000552B4319434FF0804303EA52021143F2
:1048100081640020F0BD0021C16440218165012038
:10482000704700BF0000FFFFB0B5044603F074FFFF
:10483000F4B10546606D022816D12068416941F047
:104840000401416120680069800413D403F064FF0F
:10485000401B0628F6D3A06D40F01000A065002094
:10486000E0640320606503E00020E0642020A06590
:104870000120B0BD052060650020B0BD70B1416D64
:10488000022907D1006842F20402416911434161E3
:10489000002070470021C1642021816501207047FC
:1048A00098B1416D05290CD101684A6922F00402D2
:1048B0004A61CA6842F40052CA6002214165002080
:1048C00070470021C1642021816501207047006884
:1048D0000069C0F307407047012B09D1013A9142AA
:1048E00011D200EB81035B6840F821300131F6E71B
:1048F00000EB8200023A0C388A4204D90368436014
:104900000438013AF8E770470020E86028616861E0
:104910002061C5E90000A8600121E1607047002125
:10492000FEF799BF06B0BDE8F08120610121E1608A
:1049300070470220E860C5F81080E060C4F810807D
:10494000002F704750F82A1045F82A10002140F82F
:104950002A107047CDF800A0FEF77DBF20463146F3
:10496000FEF779BF410800F0020061F3596200F1DF
:104970000508704741F82800256166600120E06065
:1049800070472046FEF767BFE0602061C4E9000081
:10499000A06060617047044600680028704700000E
:1049A00070B5194E04463168306801F007010629D8
:1049B00012D120F01F002043306003F0ADFE054609
:1049C00056F8080C80070DD403F0A6FE401BB0F586
:1049D0007A7FF5D9012070BD00F01F00001B18BFC1
:1049E000012070BDA4F11D0001280BD803F094FE36
:1049F00004463068C00305D403F08EFE00F0B1FA1F
:104A0000F7D9E7E7002070BD0C480258024800685B
:104A100000F01F00704700BF0C480258B0B50A4DA7
:104A2000296821F00101084300F098FA044628683B
:104A3000800706D403F070FE00F093FAF7D9012046
:104A4000B0BD0020B0BD00BF144802580248006845
:104A500000F00100704700BF0448025803490A688B
:104A600022F00102104308600020704700480258FD
:104A70000248006800F00100704700BF004802587B
:104A80000248016841F40071016070470048025813
:104A90000248016821F40071016070470048025823
:104AA00010B5D0E900121024806891FAA1F3B3FA8E
:104AB00083F304EB430404F01E04A04003F1080454
:104AC00004F01F04A2404FF4403410431E2202EAB7
:104AD000430203F01F0304FA02F24FF4807404FA55
:104AE00003F31A43074B0A431C6824EA02021043EB
:104AF000084318600448026822F0F06242EAC1519B
:104B0000016010BD284802589000005802490A6808
:104B100022EA0000086070472848025801490968E5
:104B20000840704724480258034908604968084013
:104B300018BF0120704700BF2048025810B5144C20
:104B40006068C00705D0206840F00100206000F0D8
:104B500021F86068800705D5206840F002002060D9
:104B600000F019F86068400705D5206840F004009F
:104B7000206000F011F86068000758BF10BD206881
:104B800040F008002060BDE8104000F006B800BF0B
:104B9000204802587047704770477047B0B5094DBC
:104BA000286840F0010000F0D9F904462868C003E5
:104BB00006D403F0B1FD00F0D4F9F7D90120B0BD5F
:104BC0000020B0BD08480258B0B5094D286820F053
:104BD000010000F0C3F904462868C00306D503F0BD
:104BE0009BFD00F0BEF9F7D90120B0BD0020B0BD9B
:104BF000084802580248016841F00071016070479E
:104C00000C4802580248016821F0007101607047A9
:104C10000C480258B0B5094D286840F0807000F08B
:104C20009DF904462868400106D403F075FD00F0A4
:104C300098F9F7D90120B0BD0020B0BD0C4802584A
:104C4000B0B5094D286820F0807000F087F904465F
:104C50002868400106D503F05FFD00F082F9F7D91E
:104C60000120B0BD0020B0BD0C48025802480168C8
:104C700041F00061016070470C4802580248016829
:104C800021F00061016070470C4802580248016839
:104C900041F00201016070472C4802580248016847
:104CA00021F00201016070472C480258004861E180
:104CB0002C480258004858E12C48025804490A6818
:104CC00022F44072104340F480700860704700BFC7
:104CD0000C4802580248016821F440710160704795
:104CE0000C4802580448016841F480510160016891
:104CF00041F40061016070470048025804480168AF
:104D000021F400610160016821F480510160704765
:104D1000004802580248016841F480410160704730
:104D20000C4802580248016821F480410160704734
:104D30000C4802580248016841F400410160704784
:104D40000C4802580248016821F400410160704794
:104D50000C48025810B5074AB0F5406F136823F4A9
:104D6000406423F4405343EA810308BF44EA01034B
:104D7000136010BD0C4802580449B0F5406F096833
:104D800018BF890801F44060704700BF0C48025802
:104D90000248016841F0100101607047084802585C
:104DA0000248016821F0100101607047084802586C
:104DB0000648006800F44000A0F50001B1FA81F156
:104DC0004909B0F5800F18BFC80570470848025858
:104DD0000648006800F44010A0F50011B1FA81F116
:104DE0004909B0F5801F18BF4805704708480258A8
:104DF0001C4AD0E90001136823F4404318431060B3
:104E00001948D0F8802022F48032C0F88020C26F88
:104E100022F48032C2674FF0B042136823F480332B
:104E20001360026822F480320260CA0303D5C26FA5
:104E300042F48032C2678A0305D5D0F8802042F45C
:104E40008032C0F88020CA0705D04FF0B042136806
:104E500043F480331360890703D5016841F480313E
:104E60000160704700480258040000580248016879
:104E700041F400510160704700480258024801683F
:104E800021F400510160704700480258044801684D
:104E9000C90358BF70474FF48031016000F002B879
:104EA00088000058704700BF00485EE03048025854
:104EB00000485FE030480258054A10B1012805D18A
:104EC00008321068084310600020704701207047C6
:104ED00034480258054A10B1012805D1083210683B
:104EE0008843106000207047012070473448025802
:104EF000022807D001280AD078B90948026811436E
:104F0000016008E00648C2681143C16003E004483C
:104F1000826811438160002070470120704700BF04
:104F200038480258022808D001280CD090B90A4805
:104F3000026822EA010101600AE00748C26822EA29
:104F40000101C16004E00448826822EA0101816035
:104F5000002070470120704738480258286003F04D
:104F6000DBBB001BB0F57A7F7047016841F001019F
:104F700001607047016821F0010101607047000085
:104F800005494FF6FF030A681A4060F30A220348F6
:104F900010430860704700BF0CED00E00000FA0508
:104FA000F0B5114B4FF0FF361C68C4F30224E51E28
:104FB00084F0070438BF002506FA05F7BA43042C2D
:104FC00028BF042406FA04F4A14300F00F04A9400A
:104FD000043C1143054A234409010244002848BF08
:104FE00003F10C021170F0BD0CED00E000E400E0F4
:104FF000002808D400F01F010122400902FA01F143
:10500000014A42F82010704700E100E000280CD46B
:1050100000F01F010122400902FA01F1034A42F89F
:105020002010BFF34F8FBFF36F8F704780E100E018
:1050300000F000F80648BFF34F8F064A016801F4FC
:10504000E06111430160BFF34F8F00BFFDE700BF78
:105050000CED00E00400FA05411E0020B0EB116FDA
:1050600001D001207047044AF023516003490B70BE
:10507000906007211160704710E000E023ED00E030
:1050800002480068C0F30220704700BF0CED00E04A
:10509000F0B5114D01F0070100F00F060F4FCC1EC7
:1050A000054481F0070138BF0024002848BFF519E6
:1050B00028784FF0FF360509E540042928BF042170
:1050C00006FA01F125EA0101116006FA04F1C9436B
:1050D00001EA10101860F0BD00E400E014ED00E0FB
:1050E000002808D400F01F010122400902FA01F152
:1050F000014A42F82010704700E200E0002802D484
:105100004109024A87E00020704700BF00E200E04A
:10511000002808D400F01F010122400902FA01F121
:10512000014A42F82010704780E200E0002802D4D3
:105130004109024A6FE00020704700BF00E300E031
:1051400003490A6822F0040210430860704700BF58
:1051500010E000E0AFF30080704700BF0549BFF3E7
:105160005F8F40F001000867086840F480300860F5
:105170005AE000BF24ED00E00448BFF35F8F0168F0
:1051800021F480310160002101674DE024ED00E051
:1051900003490860886840F001008860704700BFDC
:1051A00098ED00E003490860886820F001008860FD
:1051B000704700BF98ED00E010B5144A43780178BD
:1051C0001360936823F001039360936823F0010355
:1051D000936043685360C47A037B240644EA0373F4
:1051E000847A43EAC443447B43EA8443847B43EAAE
:1051F0004443C47B43EA0443447A007A43EA0423E9
:1052000043EA40000843906010BD00BF98ED00E005
:1052100040BF20BF704700F01F0052F8211021FA54
:1052200000F000F001007047BFF34F8FBFF36F8FA6
:105230007047000080B50320FFF7A2FE0F2003F0A7
:105240004DFA08B1012080BDFBF740F8002080BD79
:1052500070B5114E044609EB06004068C0B14FF42A
:105260007A71B1FBF0F00D4959F80110B1FBF0F083
:10527000FFF7F2FE01250F2C0BD850B94FF0FF308D
:10528000214600220025FFF78BFE49F8064000E08A
:105290000125284670BD00BF040000000C0000007E
:1052A000704700BF80B512481249134A41618261BC
:1052B000002242618261C1611049C26101620262E1
:1052C0001621016102610E494160426044F20221EF
:1052D000816082605721816282620A49C160C26036
:1052E00009490160026000F011F8002080BD00BF94
:1052F0007C440258FFC3FFC8220100082A9E000414
:105300003080008EFFB008003B511800704700BF8E
:10531000054A04484A4459F800105268114449F8B3
:10532000001070472C03000004000000014859F8E9
:10533000000070472C030000014859F80000704736
:1053400004000000B0B50A4C09EB04014D68854229
:105350000BD009EB0401486059F8040003F0BEF9D2
:1053600018B109EB04014D60B0BD0020B0BD00BF15
:1053700004000000014848444068704704000000F1
:1053800070B50446074809EB000603F0C5F9054669
:105390007068611C18BF044403F0BEF9401BA042B2
:1053A000FAD370BD040000000048E3E110E000E023
:1053B0000048E4E110E000E000487047000102010D
:1053C00001480068000C70470010005C024800684B
:1053D0006FF31F30704700BF0010005C0148006889
:1053E000704700BF00F8FF0801480068704700BF21
:1053F00004F8FF0801480068704700BF08F8FF087C
:105400000248016841F00101016070470410005C2E
:105410000048B9E10410005C0048B0E10410005CF1
:105420000048A7E10410005C0248016841F0040153
:10543000016070470410005C0248016821F004011B
:10544000016070470410005C01480068704700BFAD
:105450000004005801486A227AE100BF1004005895
:1054600001480068C0B27047140400580148B422D3
:105470006EE100BF200400580348B422016862F3C3
:105480000F210160704700BF20040058B42801D1EB
:105490000120704704490A6822F47F0242EA004072
:1054A00008600020704700BF2004005802480068D0
:1054B000C0F30740704700BF200400580148B422E1
:1054C00046E100BF240400580148C32240E100BF68
:1054D0002404005802494FF6FF730A689A433CE1DE
:1054E000340400580148006880B270473404005802
:1054F0000148012239E100BF000500580248016857
:1055000021F48071016070470005005801480222B3
:105510002BE100BF000500580248016821F400712A
:10552000016070470005005802490A6822F46002D1
:1055300013E100BF0005005802490A6822F08052BA
:105540000BE100BF0005005801490A6805E100BFF2
:1055500010050058004903E1100500580249096888
:10556000084018BF012070471005005870B5114C55
:10557000012912D11025042808BF0825461E18BF8E
:105580002E4646F00405B240AB40A5681A43FF23FF
:10559000B34025EA03031A43A260226822EA4002CC
:1055A00090FAA0F0B0FA80F0013001FA00F0104358
:1055B000206070BD1005005870B5012411B30AB306
:1055C00003B3114C256815EA40052E4618BF012685
:1055D0000E601021042808BF0821013818BF0846B2
:1055E0000421002D18BF0821095921FA00F440F0C8
:1055F000040004F00F0421FA00F01460002400F00D
:105600000F001860204670BD1005005801490A6857
:10561000A3E000BF100500580049A1E010050058A4
:1056200001490A6899E000BF200500580248034973
:1056300000680840704700BF20050058CC60A000FB
:10564000B0B50C22064C0F2302EA800220F00300C2
:1056500093409140055925EA030319430151B0BD18
:10566000300500580C21054B0F2201EA800120F083
:1056700003008A40C0581040C840704730050058A9
:1056800002490A6822F0700267E000BF003C00583F
:1056900002490A6822F002025FE000BF003C0058A5
:1056A00002490A6822F03F0257E000BF043C00585C
:1056B000B0B50A4D286840F00100286003F02CF8CE
:1056C00004462868000706D403F026F8001B0B28C0
:1056D000F7D30320B0BD0020B0BD00BF003C005890
:1056E000004851E0003C0058002141627047012110
:1056F000416270471143C0F808117047C0F80011AB
:105700007047C0F8041170470021416270470121C1
:10571000416270471143C0F808117047114381601E
:1057200070470121C16270470021C162704700BF0C
:1057300002490A6822F040720FE000BF00400052A8
:105740000248006800F04070704700BF00400052FF
:10575000016862F3070101607047104308607047F9
:105760000A6822EA000008607047016862F30921B4
:1057700001607047016821F0020101607047016813
:1057800041F0020101607047016821F001010160F0
:1057900070470000F8B500F0FFFF2CB1054600206F
:1057A000A065616D11B1F8BD0120F8BD2046FAF782
:1057B0000FFD04F10C06206838496FF0FF0C4CCE49
:1057C000876839400CEB06261143E26941EA034140
:1057D000114331438160216AC26822F4E0221143FF
:1057E000C160216B026922F4F81242EA01410161B1
:1057F000616B026922F0FF0211430161A16B4161FB
:1058000041F28831E1650268636822F4F8520CEBDA
:1058100003231A4302600091204620212B460022D8
:1058200000F048F80028BED12068616AC26822F002
:10583000FF021143C1601A49884202D019498842C7
:1058400007D100F0E8FF2B4600F0F4FF0028AAD1B2
:1058500020680168144AE66BA369A56A1140A26832
:10586000114331430160D0F8081121F080412943F0
:10587000C0F808110168022B41F00101016003D159
:10588000816841F002018160E0680221B0F1806F1F
:1058900008BF012161650020F8BD00BFFCC0E0F831
:1058A00000A0005200500052BFFFFFFE7047C165CC
:1058B000002070472DE9F845DDF820A098461646EF
:1058C0000F4604460AF101052068006A384018BFF7
:1058D0000120B04213D0002DF6D002F01DFFA0EB46
:1058E0000800504502D8BAF1000FEDD102206065E2
:1058F000A06D40F00100A0650320BDE8F885002000
:10590000BDE8F88580B110B504460068016821F053
:1059100001010160816821F0020181602046FAF7EF
:10592000B3FC0020606510BD01207047704700BFC8
:10593000B0B501680446086A0B68626D450701D579
:105940005D0316D4850701D59D031BD4020701D53D
:105950001A0326D4C20701D0DA0332D4C00679D59F
:10596000D80277D5102048622046BDE8B04000F04C
:10597000ACB8282A5AD0182A5ED1206C007881F859
:10598000500057E0282A3ED1A26C002A60D010F4C3
:10599000FE4F5DD091F85000216C087000F04DFF73
:1059A000B0BD082048620868400205D5086820F4A8
:1059B00010200860022060652046BDE8B04000F07D
:1059C0006BB801204862086820F4F81008600220D3
:1059D000A0650A68520710D5E06C2B4D7D4400F09D
:1059E000F9FE20B102206065204600F054F8206DD9
:1059F000C566FDF7F1F968B3022060652046BDE891
:105A0000B04000F048B8022048620B68082A23F42E
:105A1000E0230B6060651ED0B2F5807F20D0182A8D
:105A200018D12046BDE8B04000F032B891F85000DF
:105A3000216C087000F001FFA06C20B9206801689B
:105A400021F4802101602046BDE8B04000F01EB87E
:105A5000A06C68B1B0BD2046BDE8B04000F019B8F8
:105A6000A06D0028CAD12046BDE8B04000F012B8B1
:105A7000022048620A6822F4E0220A60606520463B
:105A8000BDE8B04000F003B8BB00000070477047AD
:105A900070477047704770477047C06D0021816440
:105AA000416DB1F5807F07D101680A6A920607D47B
:105AB00002214165FFF7EEBF02214165FFF7EBBF11
:105AC000724600F07CFE9646704770472DE9FC4117
:105AD00016460F4600F060FE0546606D242808D08B
